{
  "_format": "hh-sol-artifact-1",
  "contractName": "MissionControl",
  "sourceName": "contracts/mission_control/MissionControl.sol",
  "abi": [
    {
      "anonymous": false,
      "inputs": [
        {
          "indexed": false,
          "internalType": "address",
          "name": "user",
          "type": "address"
        }
      ],
      "name": "LootCrateFound",
      "type": "event"
    },
    {
      "anonymous": false,
      "inputs": [
        {
          "indexed": false,
          "internalType": "address",
          "name": "newMint",
          "type": "address"
        }
      ],
      "name": "MintSet",
      "type": "event"
    },
    {
      "anonymous": false,
      "inputs": [
        {
          "indexed": false,
          "internalType": "address",
          "name": "user",
          "type": "address"
        },
        {
          "indexed": false,
          "internalType": "address",
          "name": "tokenAddress",
          "type": "address"
        },
        {
          "indexed": false,
          "internalType": "uint256",
          "name": "tokenId",
          "type": "uint256"
        },
        {
          "indexed": false,
          "internalType": "int256",
          "name": "x",
          "type": "int256"
        },
        {
          "indexed": false,
          "internalType": "int256",
          "name": "y",
          "type": "int256"
        },
        {
          "indexed": false,
          "internalType": "int256",
          "name": "z",
          "type": "int256"
        }
      ],
      "name": "NFTPlaced",
      "type": "event"
    },
    {
      "anonymous": false,
      "inputs": [
        {
          "indexed": false,
          "internalType": "address",
          "name": "user",
          "type": "address"
        },
        {
          "indexed": false,
          "internalType": "address",
          "name": "tokenAddress",
          "type": "address"
        },
        {
          "indexed": false,
          "internalType": "address",
          "name": "underlyingAddress",
          "type": "address"
        },
        {
          "indexed": false,
          "internalType": "uint256",
          "name": "tokenId",
          "type": "uint256"
        },
        {
          "indexed": false,
          "internalType": "uint256",
          "name": "underlyingTokenId",
          "type": "uint256"
        },
        {
          "indexed": false,
          "internalType": "int256",
          "name": "x",
          "type": "int256"
        },
        {
          "indexed": false,
          "internalType": "int256",
          "name": "y",
          "type": "int256"
        },
        {
          "indexed": false,
          "internalType": "int256",
          "name": "z",
          "type": "int256"
        }
      ],
      "name": "NFTRemoved",
      "type": "event"
    },
    {
      "anonymous": false,
      "inputs": [
        {
          "indexed": true,
          "internalType": "address",
          "name": "previousOwner",
          "type": "address"
        },
        {
          "indexed": true,
          "internalType": "address",
          "name": "newOwner",
          "type": "address"
        }
      ],
      "name": "OwnershipTransferred",
      "type": "event"
    },
    {
      "anonymous": false,
      "inputs": [
        {
          "indexed": false,
          "internalType": "uint256",
          "name": "newRadius",
          "type": "uint256"
        }
      ],
      "name": "RadiusSet",
      "type": "event"
    },
    {
      "anonymous": false,
      "inputs": [
        {
          "indexed": false,
          "internalType": "address",
          "name": "defender",
          "type": "address"
        },
        {
          "indexed": false,
          "internalType": "uint256",
          "name": "raidId",
          "type": "uint256"
        },
        {
          "indexed": false,
          "internalType": "uint256",
          "name": "booty",
          "type": "uint256"
        },
        {
          "indexed": false,
          "internalType": "uint256",
          "name": "timeStamp",
          "type": "uint256"
        }
      ],
      "name": "Raid",
      "type": "event"
    },
    {
      "anonymous": false,
      "inputs": [
        {
          "indexed": false,
          "internalType": "address",
          "name": "token",
          "type": "address"
        },
        {
          "indexed": false,
          "internalType": "bool",
          "name": "whitelisted",
          "type": "bool"
        }
      ],
      "name": "WhitelistSet",
      "type": "event"
    },
    {
      "inputs": [
        {
          "internalType": "address",
          "name": "_user",
          "type": "address"
        },
        {
          "internalType": "int256",
          "name": "_x",
          "type": "int256"
        },
        {
          "internalType": "int256",
          "name": "_y",
          "type": "int256"
        },
        {
          "internalType": "int256",
          "name": "_z",
          "type": "int256"
        }
      ],
      "name": "checkLastUpdated",
      "outputs": [
        {
          "internalType": "uint256",
          "name": "_timestamp",
          "type": "uint256"
        }
      ],
      "stateMutability": "view",
      "type": "function"
    },
    {
      "inputs": [
        {
          "internalType": "address",
          "name": "_user",
          "type": "address"
        },
        {
          "internalType": "int256",
          "name": "_x",
          "type": "int256"
        },
        {
          "internalType": "int256",
          "name": "_y",
          "type": "int256"
        },
        {
          "internalType": "int256",
          "name": "_z",
          "type": "int256"
        }
      ],
      "name": "checkStakedOnTile",
      "outputs": [
        {
          "components": [
            {
              "internalType": "address",
              "name": "stakeable",
              "type": "address"
            },
            {
              "internalType": "uint256",
              "name": "tokenId",
              "type": "uint256"
            },
            {
              "internalType": "uint256",
              "name": "nonce",
              "type": "uint256"
            }
          ],
          "internalType": "struct IMissionControl.TileElement",
          "name": "_base",
          "type": "tuple"
        },
        {
          "components": [
            {
              "internalType": "address",
              "name": "stakeable",
              "type": "address"
            },
            {
              "internalType": "uint256",
              "name": "tokenId",
              "type": "uint256"
            },
            {
              "internalType": "uint256",
              "name": "nonce",
              "type": "uint256"
            }
          ],
          "internalType": "struct IMissionControl.TileElement",
          "name": "_top",
          "type": "tuple"
        }
      ],
      "stateMutability": "view",
      "type": "function"
    },
    {
      "inputs": [
        {
          "internalType": "address",
          "name": "_user",
          "type": "address"
        },
        {
          "internalType": "int256",
          "name": "_x",
          "type": "int256"
        },
        {
          "internalType": "int256",
          "name": "_y",
          "type": "int256"
        },
        {
          "internalType": "int256",
          "name": "_z",
          "type": "int256"
        }
      ],
      "name": "checkTile",
      "outputs": [
        {
          "internalType": "uint256",
          "name": "",
          "type": "uint256"
        },
        {
          "internalType": "uint256",
          "name": "",
          "type": "uint256"
        }
      ],
      "stateMutability": "view",
      "type": "function"
    },
    {
      "inputs": [
        {
          "components": [
            {
              "internalType": "int256",
              "name": "x",
              "type": "int256"
            },
            {
              "internalType": "int256",
              "name": "y",
              "type": "int256"
            },
            {
              "internalType": "int256",
              "name": "z",
              "type": "int256"
            }
          ],
          "internalType": "struct IMissionControl.CollectOrder[]",
          "name": "_orders",
          "type": "tuple[]"
        },
        {
          "internalType": "uint8",
          "name": "_v",
          "type": "uint8"
        },
        {
          "internalType": "bytes32",
          "name": "_r",
          "type": "bytes32"
        },
        {
          "internalType": "bytes32",
          "name": "_s",
          "type": "bytes32"
        }
      ],
      "name": "collectFromTiles",
      "outputs": [],
      "stateMutability": "nonpayable",
      "type": "function"
    },
    {
      "inputs": [],
      "name": "enableSignature",
      "outputs": [
        {
          "internalType": "bool",
          "name": "",
          "type": "bool"
        }
      ],
      "stateMutability": "view",
      "type": "function"
    },
    {
      "inputs": [
        {
          "internalType": "uint256",
          "name": "_radius",
          "type": "uint256"
        },
        {
          "internalType": "address",
          "name": "_mint",
          "type": "address"
        }
      ],
      "name": "initialize",
      "outputs": [],
      "stateMutability": "nonpayable",
      "type": "function"
    },
    {
      "inputs": [
        {
          "internalType": "address",
          "name": "",
          "type": "address"
        }
      ],
      "name": "nonces",
      "outputs": [
        {
          "internalType": "uint256",
          "name": "",
          "type": "uint256"
        }
      ],
      "stateMutability": "view",
      "type": "function"
    },
    {
      "inputs": [
        {
          "internalType": "address",
          "name": "_defender",
          "type": "address"
        },
        {
          "internalType": "uint256",
          "name": "_timestamp",
          "type": "uint256"
        },
        {
          "internalType": "uint256",
          "name": "_raidId",
          "type": "uint256"
        },
        {
          "components": [
            {
              "internalType": "int256",
              "name": "x",
              "type": "int256"
            },
            {
              "internalType": "int256",
              "name": "y",
              "type": "int256"
            },
            {
              "internalType": "int256",
              "name": "z",
              "type": "int256"
            }
          ],
          "internalType": "struct IMissionControl.CollectOrder[]",
          "name": "_orders",
          "type": "tuple[]"
        },
        {
          "internalType": "uint8",
          "name": "_v",
          "type": "uint8"
        },
        {
          "internalType": "bytes32",
          "name": "_r",
          "type": "bytes32"
        },
        {
          "internalType": "bytes32",
          "name": "_s",
          "type": "bytes32"
        }
      ],
      "name": "notifyRaided",
      "outputs": [],
      "stateMutability": "nonpayable",
      "type": "function"
    },
    {
      "inputs": [],
      "name": "owner",
      "outputs": [
        {
          "internalType": "address",
          "name": "",
          "type": "address"
        }
      ],
      "stateMutability": "view",
      "type": "function"
    },
    {
      "inputs": [
        {
          "internalType": "int256",
          "name": "_x",
          "type": "int256"
        },
        {
          "internalType": "int256",
          "name": "_y",
          "type": "int256"
        },
        {
          "internalType": "int256",
          "name": "_z",
          "type": "int256"
        },
        {
          "internalType": "uint256",
          "name": "_tokenId",
          "type": "uint256"
        },
        {
          "internalType": "address",
          "name": "_tokenAddress",
          "type": "address"
        }
      ],
      "name": "placeNFT",
      "outputs": [],
      "stateMutability": "nonpayable",
      "type": "function"
    },
    {
      "inputs": [
        {
          "components": [
            {
              "internalType": "int256",
              "name": "x",
              "type": "int256"
            },
            {
              "internalType": "int256",
              "name": "y",
              "type": "int256"
            },
            {
              "internalType": "int256",
              "name": "z",
              "type": "int256"
            },
            {
              "internalType": "uint256",
              "name": "tokenId",
              "type": "uint256"
            },
            {
              "internalType": "address",
              "name": "tokenAddress",
              "type": "address"
            }
          ],
          "internalType": "struct IMissionControl.PlaceOrder[]",
          "name": "_placeOrders",
          "type": "tuple[]"
        }
      ],
      "name": "placeNFTs",
      "outputs": [],
      "stateMutability": "nonpayable",
      "type": "function"
    },
    {
      "inputs": [
        {
          "internalType": "int256",
          "name": "_x",
          "type": "int256"
        },
        {
          "internalType": "int256",
          "name": "_y",
          "type": "int256"
        },
        {
          "internalType": "int256",
          "name": "_z",
          "type": "int256"
        }
      ],
      "name": "removeNFT",
      "outputs": [],
      "stateMutability": "nonpayable",
      "type": "function"
    },
    {
      "inputs": [
        {
          "components": [
            {
              "internalType": "int256",
              "name": "x",
              "type": "int256"
            },
            {
              "internalType": "int256",
              "name": "y",
              "type": "int256"
            },
            {
              "internalType": "int256",
              "name": "z",
              "type": "int256"
            },
            {
              "internalType": "uint256",
              "name": "tokenId",
              "type": "uint256"
            },
            {
              "internalType": "address",
              "name": "tokenAddress",
              "type": "address"
            }
          ],
          "internalType": "struct IMissionControl.PlaceOrder[]",
          "name": "_placeOrders",
          "type": "tuple[]"
        }
      ],
      "name": "removeNFTs",
      "outputs": [],
      "stateMutability": "nonpayable",
      "type": "function"
    },
    {
      "inputs": [],
      "name": "renounceOwnership",
      "outputs": [],
      "stateMutability": "nonpayable",
      "type": "function"
    },
    {
      "inputs": [
        {
          "internalType": "address",
          "name": "_mint",
          "type": "address"
        }
      ],
      "name": "setMint",
      "outputs": [],
      "stateMutability": "nonpayable",
      "type": "function"
    },
    {
      "inputs": [
        {
          "internalType": "uint256",
          "name": "_radius",
          "type": "uint256"
        }
      ],
      "name": "setRadius",
      "outputs": [],
      "stateMutability": "nonpayable",
      "type": "function"
    },
    {
      "inputs": [
        {
          "internalType": "int256",
          "name": "_timeout",
          "type": "int256"
        }
      ],
      "name": "setRaidParams",
      "outputs": [],
      "stateMutability": "nonpayable",
      "type": "function"
    },
    {
      "inputs": [
        {
          "internalType": "address",
          "name": "_address",
          "type": "address"
        },
        {
          "internalType": "bool",
          "name": "_isSigner",
          "type": "bool"
        }
      ],
      "name": "setRaidSigner",
      "outputs": [],
      "stateMutability": "nonpayable",
      "type": "function"
    },
    {
      "inputs": [
        {
          "internalType": "bool",
          "name": "_requiresSignature",
          "type": "bool"
        }
      ],
      "name": "setSignature",
      "outputs": [],
      "stateMutability": "nonpayable",
      "type": "function"
    },
    {
      "inputs": [
        {
          "internalType": "address",
          "name": "_token",
          "type": "address"
        },
        {
          "internalType": "address",
          "name": "_alias",
          "type": "address"
        }
      ],
      "name": "setStakeableAlias",
      "outputs": [],
      "stateMutability": "nonpayable",
      "type": "function"
    },
    {
      "inputs": [
        {
          "internalType": "address",
          "name": "_token",
          "type": "address"
        },
        {
          "internalType": "bool",
          "name": "_whitelisted",
          "type": "bool"
        }
      ],
      "name": "setWhitelist",
      "outputs": [],
      "stateMutability": "nonpayable",
      "type": "function"
    },
    {
      "inputs": [
        {
          "internalType": "address",
          "name": "newOwner",
          "type": "address"
        }
      ],
      "name": "transferOwnership",
      "outputs": [],
      "stateMutability": "nonpayable",
      "type": "function"
    }
  ],
  "bytecode": "0x608060405234801561001057600080fd5b50613094806100206000396000f3fe608060405234801561001057600080fd5b50600436106101425760003560e01c80638da5cb5b116100b8578063c195e44e1161007c578063c195e44e146102c3578063c33f0598146102d6578063c9899b4c146102e9578063da35a26f146102fc578063f2fde38b1461030f578063f77d978d1461032257600080fd5b80638da5cb5b1461025c5780639c2605a514610277578063a0c5da861461028a578063a2dbaddf1461029d578063abb6e08c146102b057600080fd5b8063715018a61161010a578063715018a6146101da57806371fe8ae1146101e2578063797a722e146102035780637ecebe001461021657806385c07af2146102365780638d0b3b0f1461024957600080fd5b80632275dad014610147578063291c12d11461016d5780632d9090b41461018a57806353d6fd59146101b25780636acd4f55146101c7575b600080fd5b61015a610155366004612823565b610335565b6040519081526020015b60405180910390f35b60a25461017a9060ff1681565b6040519015158152602001610164565b61019d610198366004612823565b610503565b60408051928352602083019190915201610164565b6101c56101c036600461286a565b6106df565b005b6101c56101d53660046128a1565b61076c565b6101c56107eb565b6101f56101f0366004612823565b610821565b6040516101649291906128bc565b6101c56102113660046129c1565b610aa0565b61015a6102243660046128a1565b60a36020526000908152604090205481565b6101c5610244366004612a9f565b610b24565b6101c5610257366004612ac9565b610bb4565b6033546040516001600160a01b039091168152602001610164565b6101c5610285366004612b86565b610e2e565b6101c56102983660046129c1565b610e42565b6101c56102ab36600461286a565b610efe565b6101c56102be366004612bcf565b610f53565b6101c56102d1366004612bfb565b610f63565b6101c56102e4366004612c18565b610fa0565b6101c56102f7366004612a9f565b610ffa565b6101c561030a366004612c4b565b6110a0565b6101c561031d3660046128a1565b61117f565b6101c5610330366004612c6e565b61121a565b600083838383816103468486612d62565b6103509190612d62565b90506000600261035f846114ae565b610368866114ae565b610371886114ae565b61037b9190612da3565b6103859190612da3565b61038f9190612dbb565b9050609f5481111580156103a35750600081115b80156103ad575081155b6103d25760405162461bcd60e51b81526004016103c990612ddd565b60405180910390fd5b60006103df8a8a8d6114cc565b6001600160a01b038c1660009081526099602090815260408083208e845282528083208d84529091529020909150816002811061041e5761041e612e21565b60030201546001600160a01b038c811660009081526099602090815260408083208f845282528083208e84529091529020911690639474acf8908d90846002811061046b5761046b612e21565b60030201600201546040518363ffffffff1660e01b81526004016104a49291906001600160a01b03929092168252602082015260400190565b60206040518083038186803b1580156104bc57600080fd5b505afa1580156104d0573d6000803e3d6000fd5b505050506040513d601f19601f820116820180604052508101906104f49190612e37565b9b9a5050505050505050505050565b60008084848483816105158486612d62565b61051f9190612d62565b90506000600261052e846114ae565b610537866114ae565b610540886114ae565b61054a9190612da3565b6105549190612da3565b61055e9190612dbb565b9050609f5481111580156105725750600081115b801561057c575081155b6105985760405162461bcd60e51b81526004016103c990612ddd565b6001600160a01b038b1660009081526099602090815260408083208d845282528083208c845290915281206105ce8c8c8f6114cc565b600281106105de576105de612e21565b600302016040518060600160405290816000820160009054906101000a90046001600160a01b03166001600160a01b03166001600160a01b0316815260200160018201548152602001600282015481525050905080600001516001600160a01b03166379145f358d83604001516040518363ffffffff1660e01b815260040161067c9291906001600160a01b03929092168252602082015260400190565b604080518083038186803b15801561069357600080fd5b505afa1580156106a7573d6000803e3d6000fd5b505050506040513d601f19601f820116820180604052508101906106cb9190612e50565b97509750505b505050505094509492505050565b6033546001600160a01b031633146107095760405162461bcd60e51b81526004016103c990612e74565b6001600160a01b0382166000818152609c6020908152604091829020805460ff19168515159081179091558251938452908301527f0aa5ec5ffdc7f6f9c4d0dded489d7450297155cb2f71cb771e02427f7dff4f51910160405180910390a15050565b6033546001600160a01b031633146107965760405162461bcd60e51b81526004016103c990612e74565b609e80546001600160a01b0319166001600160a01b0383169081179091556040519081527f550def9b56df880451569697efe949d6ad6b93a0e5c7f6c55ab5ce377c1dec3f906020015b60405180910390a150565b6033546001600160a01b031633146108155760405162461bcd60e51b81526004016103c990612e74565b61081f60006115ab565b565b61084e604051806060016040528060006001600160a01b0316815260200160008152602001600081525090565b61087b604051806060016040528060006001600160a01b0316815260200160008152602001600081525090565b84848460008161088b8486612d62565b6108959190612d62565b9050600060026108a4846114ae565b6108ad866114ae565b6108b6886114ae565b6108c09190612da3565b6108ca9190612da3565b6108d49190612dbb565b9050609f5481111580156108e85750600081115b80156108f2575081155b61090e5760405162461bcd60e51b81526004016103c990612ddd565b6001600160a01b038b1660009081526099602090815260408083208d845282528083208c845290915290206005015415610a0a576001600160a01b038b1660009081526099602090815260408083208d845282528083208c845290915290206001604080516060810182526003929092029290920180546001600160a01b0390811683526001820154602080850191909152600290920154838501528e166000908152609982528381208e825282528381208d825290915291822090975090604080516060810182526003929092029290920180546001600160a01b0316825260018101546020830152600201549181019190915296506106d1565b6001600160a01b038b1660009081526099602090815260408083208d845282528083208c8452909152902060020154156106d157505050506001600160a01b03968716600090815260996020908152604080832098835297815287822096825295865286902086516060810188528154909816885260018101549588019590955250600290930154938501939093525091929050565b60005b8151811015610b2057610b0e828281518110610ac157610ac1612e21565b602002602001015160000151838381518110610adf57610adf612e21565b602002602001015160200151848481518110610afd57610afd612e21565b6020026020010151604001516115fd565b80610b1881612ea9565b915050610aa3565b5050565b6033546001600160a01b03163314610b4e5760405162461bcd60e51b81526004016103c990612e74565b60008113610baf5760405162461bcd60e51b815260206004820152602860248201527f4d495353494f4e5f434f4e54524f4c3a20526169642074696d656f7574206d7560448201526707374206265203e360c41b60648201526084016103c9565b60a055565b604080517f176421dbb7a2e0089460a27a5efcbffc60e2726159f333c909a60acb9eab5ac260208201526001600160a01b038a16918101919091526060810188905260808101879052600090610c2f90610c279060a0015b6040516020818303038152906040528051906020012061182c565b85858561187a565b6001600160a01b0381166000908152609d602052604090205490915060ff16610c6a5760405162461bcd60e51b81526004016103c990612ec4565b60a054610c778942612f06565b12610cd55760405162461bcd60e51b815260206004820152602860248201527f4d495353494f4e5f434f4e54524f4c3a205369676e61747572652068617320746044820152671a5b5959081bdd5d60c21b60648201526084016103c9565b6000878152609b602052604090205460ff1615610d455760405162461bcd60e51b815260206004820152602860248201527f4d495353494f4e5f434f4e54524f4c3a205261696420616c726561647920726560448201526719da5cdd195c995960c21b60648201526084016103c9565b60008060005b87811015610db557610d948c8a8a84818110610d6957610d69612e21565b905060600201600001358b8b85818110610d8557610d85612e21565b905060600201602001356118a2565b509150610da18284612da3565b925080610dad81612ea9565b915050610d4b565b506000898152609b6020908152604091829020805460ff1916600117905581516001600160a01b038e1681529081018b9052908101839052606081018b90527f1865686fff80ec60e7f4f9d144faa698a0c1a7cf18e08c0dd83f35e6f1d02d7e9060800160405180910390a15050505050505050505050565b610e3b8585858585611aeb565b5050505050565b60005b8151811015610b2057610eec828281518110610e6357610e63612e21565b602002602001015160000151838381518110610e8157610e81612e21565b602002602001015160200151848481518110610e9f57610e9f612e21565b602002602001015160400151858581518110610ebd57610ebd612e21565b602002602001015160600151868681518110610edb57610edb612e21565b602002602001015160800151611aeb565b80610ef681612ea9565b915050610e45565b6033546001600160a01b03163314610f285760405162461bcd60e51b81526004016103c990612e74565b6001600160a01b03919091166000908152609d60205260409020805460ff1916911515919091179055565b610f5e8383836115fd565b505050565b6033546001600160a01b03163314610f8d5760405162461bcd60e51b81526004016103c990612e74565b60a2805460ff1916911515919091179055565b6033546001600160a01b03163314610fca5760405162461bcd60e51b81526004016103c990612e74565b6001600160a01b03908116600090815260a1602052604090208054919092166001600160a01b0319909116179055565b6033546001600160a01b031633146110245760405162461bcd60e51b81526004016103c990612e74565b6000811161106b5760405162461bcd60e51b81526020600482015260146024820152735261646975732063616e2774206265207a65726f60601b60448201526064016103c9565b609f8190556040518181527fe0f94f9a5e7e22b8ccd24f479e3a626213bf6aa3ed4b2659e8cc0f165c233b7b906020016107e0565b600054610100900460ff16806110b9575060005460ff16155b6110d55760405162461bcd60e51b81526004016103c990612f45565b600054610100900460ff161580156110f7576000805461ffff19166101011790555b609f839055609e80546001600160a01b0319166001600160a01b03841617905561111f611dcf565b6111696040518060400160405280600f81526020016e135a5cdcda5bdb8810dbdb9d1c9bdb608a1b815250604051806040016040528060018152602001603160f81b815250611e4a565b8015610f5e576000805461ff0019169055505050565b6033546001600160a01b031633146111a95760405162461bcd60e51b81526004016103c990612e74565b6001600160a01b03811661120e5760405162461bcd60e51b815260206004820152602660248201527f4f776e61626c653a206e6577206f776e657220697320746865207a65726f206160448201526564647265737360d01b60648201526084016103c9565b611217816115ab565b50565b60a25483908390839060ff16156112e15733600081815260a360205260408120805491926112a492610c27927fab360c0aacde48c0221e8acc4318d3247d6b5b8c84ee029be82ace8f2ef23eeb9291908661127483612ea9565b91905055604051602001610c0c939291909283526001600160a01b03919091166020830152604082015260600190565b6001600160a01b0381166000908152609d602052604090205490915060ff166112df5760405162461bcd60e51b81526004016103c990612ec4565b505b865160008167ffffffffffffffff8111156112fe576112fe61290a565b604051908082528060200260200182016040528015611327578160200160208202803683370190505b50905060008267ffffffffffffffff8111156113455761134561290a565b60405190808252806020026020018201604052801561136e578160200160208202803683370190505b50905060008060005b8c51811015611439576113e28d828151811061139557611395612e21565b6020026020010151600001518e83815181106113b3576113b3612e21565b6020026020010151602001518f84815181106113d1576113d1612e21565b602002602001015160400151611eab565b8094508193505050828582815181106113fd576113fd612e21565b6020026020010181815250508184828151811061141c5761141c612e21565b60209081029190910101528061143181612ea9565b915050611377565b50609e54604051639e74b0e760e01b81526001600160a01b0390911690639e74b0e79061146e90339088908890600401612fce565b600060405180830381600087803b15801561148857600080fd5b505af115801561149c573d6000803e3d6000fd5b50505050505050505050505050505050565b60008082126114bd57816114c6565b6114c68261300e565b92915050565b6001600160a01b0381166000908152609960209081526040808320868452825280832085845290915281206005015415611508575060016115a4565b6001600160a01b0382166000908152609960209081526040808320878452825280832086845290915290206002015415611544575060006115a4565b60405162461bcd60e51b815260206004820152602f60248201527f4d495353494f4e5f434f4e54524f4c3a204e6f20746f6b656e207374616b656460448201526e206f6e20636f6f7264696e6174657360881b60648201526084016103c9565b9392505050565b603380546001600160a01b038381166001600160a01b0319831681179093556040519116919082907f8be0079c531659141344cd1fd0a4f28419497f9722a3daafe3b4186f6b6457e090600090a35050565b82828260008161160d8486612d62565b6116179190612d62565b905060006002611626846114ae565b61162f866114ae565b611638886114ae565b6116429190612da3565b61164c9190612da3565b6116569190612dbb565b9050600081118015611666575081155b6116825760405162461bcd60e51b81526004016103c990612ddd565b3360008181526099602090815260408083208c845282528083208b84529091528120916116b2908b908b906114cc565b90506116d28282600281106116c9576116c9612e21565b60030201612043565b80600114156117455781546002830154604051634d92942960e11b815233600482015260248101919091526001600160a01b0390911690639b25285290604401600060405180830381600087803b15801561172c57600080fd5b505af1158015611740573d6000803e3d6000fd5b505050505b7ff3b3fbb5a1080f2632dbc5c344f2f746409855616800cd7452582d830ca5e84b3383836002811061177957611779612e21565b60030201546001600160a01b0316600184146117965760006117a2565b84546001600160a01b03165b8585600281106117b4576117b4612e21565b6003020160010154856001146117cb5760006117d1565b60018701545b604080516001600160a01b039687168152948616602086015292909416838301526060830152608082019290925260a081018d905260c081018c905260e081018b90529051908190036101000190a150505050505050505050565b60006114c66118396120b9565b8360405161190160f01b6020820152602281018390526042810182905260009060620160405160208183030381529060405280519060200120905092915050565b600080600061188b87878787612139565b9150915061189881612226565b5095945050505050565b60008083836118b18183612d62565b6118ba9061300e565b6000816118c78486612d62565b6118d19190612d62565b9050600060026118e0846114ae565b6118e9866114ae565b6118f2886114ae565b6118fc9190612da3565b6119069190612da3565b6119109190612dbb565b9050609f5481111580156119245750600081115b801561192e575081155b61194a5760405162461bcd60e51b81526004016103c990612ddd565b6001600160a01b038a1660009081526099602090815260408083208c845282528083208b845290915281206119808b8b8e6114cc565b6002811061199057611990612e21565b604080516060810182526003929092029290920180546001600160a01b0316808352600182015460208401819052600290920154838501529251637046440560e11b8152919350829163e08c880a916119ef9160040190815260200190565b60206040518083038186803b158015611a0757600080fd5b505afa158015611a1b573d6000803e3d6000fd5b505050506040513d601f19601f82011682018060405250810190611a3f919061302b565b611a525760006007985098505050611ade565b6040828101519051632fd6753d60e01b815233600482015260248101919091526001600160a01b03821690632fd6753d906044016040805180830381600087803b158015611a9f57600080fd5b505af1158015611ab3573d6000803e3d6000fd5b505050506040513d601f19601f82011682018060405250810190611ad79190612e50565b9850985050505b5050505050935093915050565b848484600081611afb8486612d62565b611b059190612d62565b905060006002611b14846114ae565b611b1d866114ae565b611b26886114ae565b611b309190612da3565b611b3a9190612da3565b611b449190612dbb565b9050609f548111158015611b585750600081115b8015611b62575081155b611b7e5760405162461bcd60e51b81526004016103c990612ddd565b6001600160a01b0386166000908152609c6020526040902054869060ff1680611bce57506001600160a01b03808216600090815260a160209081526040808320549093168252609c9052205460ff165b611c1a5760405162461bcd60e51b815260206004820181905260248201527f4d495353494f4e5f434f4e54524f4c3a204e6f742077686974656c697374656460448201526064016103c9565b6001600160a01b03808816600090815260a1602052604090205488911615611c5957506001600160a01b03808816600090815260a16020526040902054165b60405163393a737f60e21b8152600481018a90526001600160a01b0382169063e4e9cdfc9060240160206040518083038186803b158015611c9957600080fd5b505afa158015611cad573d6000803e3d6000fd5b505050506040513d601f19601f82011682018060405250810190611cd1919061302b565b15611d1f57611d1a8c8c8c8c85609a6000336001600160a01b03166001600160a01b0316815260200190815260200160002060008154611d1090612ea9565b91829055506123e1565b611d63565b611d638c8c8c8c85609a6000336001600160a01b03166001600160a01b0316815260200190815260200160002060008154611d5990612ea9565b9182905550612535565b604080513381526001600160a01b03831660208201529081018a9052606081018d9052608081018c905260a081018b90527f0eac41066047c9a6c95357c08b7c7c1bb784bf83f901a59f5ce77c31f198cea79060c00160405180910390a1505050505050505050505050565b600054610100900460ff1680611de8575060005460ff16155b611e045760405162461bcd60e51b81526004016103c990612f45565b600054610100900460ff16158015611e26576000805461ffff19166101011790555b611e2e6126b3565b611e3661271d565b8015611217576000805461ff001916905550565b600054610100900460ff1680611e63575060005460ff16155b611e7f5760405162461bcd60e51b81526004016103c990612f45565b600054610100900460ff16158015611ea1576000805461ffff19166101011790555b611169838361277d565b6000808484848381611ebd8486612d62565b611ec79190612d62565b905060006002611ed6846114ae565b611edf866114ae565b611ee8886114ae565b611ef29190612da3565b611efc9190612da3565b611f069190612dbb565b9050609f548111158015611f1a5750600081115b8015611f24575081155b611f405760405162461bcd60e51b81526004016103c990612ddd565b3360008181526099602090815260408083208e845282528083208d845290915281209091611f71908d908d906114cc565b60028110611f8157611f81612e21565b604080516060810182526003929092029290920180546001600160a01b0316808352600182015460208401526002909101548284018190529251632fd6753d60e01b8152336004820152602481019390935290925090632fd6753d906044016040805180830381600087803b158015611ff957600080fd5b505af115801561200d573d6000803e3d6000fd5b505050506040513d601f19601f820116820180604052508101906120319190612e50565b97509750505050505050935093915050565b80546002820154604051634e27a35b60e01b815233600482015260248101919091526001600160a01b0390911690634e27a35b90604401600060405180830381600087803b15801561209457600080fd5b505af11580156120a8573d6000803e3d6000fd5b505050506000816002018190555050565b60006121347f8b73c3c69bb8fe3d512ecc4cf759cc79239f7b179b0ffacaa9a75d522b39400f6120e860655490565b6066546040805160208101859052908101839052606081018290524660808201523060a082015260009060c0016040516020818303038152906040528051906020012090509392505050565b905090565b6000807f7fffffffffffffffffffffffffffffff5d576e7357a4501ddfe92f46681b20a0831115612170575060009050600361221d565b8460ff16601b1415801561218857508460ff16601c14155b15612199575060009050600461221d565b6040805160008082526020820180845289905260ff881692820192909252606081018690526080810185905260019060a0016020604051602081039080840390855afa1580156121ed573d6000803e3d6000fd5b5050604051601f1901519150506001600160a01b0381166122165760006001925092505061221d565b9150600090505b94509492505050565b600081600481111561223a5761223a613048565b14156122435750565b600181600481111561225757612257613048565b14156122a55760405162461bcd60e51b815260206004820152601860248201527f45434453413a20696e76616c6964207369676e6174757265000000000000000060448201526064016103c9565b60028160048111156122b9576122b9613048565b14156123075760405162461bcd60e51b815260206004820152601f60248201527f45434453413a20696e76616c6964207369676e6174757265206c656e6774680060448201526064016103c9565b600381600481111561231b5761231b613048565b14156123745760405162461bcd60e51b815260206004820152602260248201527f45434453413a20696e76616c6964207369676e6174757265202773272076616c604482015261756560f01b60648201526084016103c9565b600481600481111561238857612388613048565b14156112175760405162461bcd60e51b815260206004820152602260248201527f45434453413a20696e76616c6964207369676e6174757265202776272076616c604482015261756560f01b60648201526084016103c9565b3360009081526099602090815260408083208984528252808320888452909152902060020154156124645760405162461bcd60e51b815260206004820152602760248201527f4d495353494f4e5f434f4e54524f4c3a20416c726561647920612062617365206044820152666f6e2074696c6560c81b60648201526084016103c9565b60405163b7abb1f760e01b8152336004820152602481018490526044810182905260006064820181905260848201526001600160a01b0383169063b7abb1f79060a401600060405180830381600087803b1580156124c157600080fd5b505af11580156124d5573d6000803e3d6000fd5b50503360009081526099602090815260408083208b845282528083208a845290915281209092509050815b60030201600281019290925550600181019290925581546001600160a01b0319166001600160a01b0391909116179055505050565b33600090815260996020908152604080832089845282528083208884529091529020600201541580159061258c57503360009081526099602090815260408083208984528252808320888452909152902060050154155b6125e35760405162461bcd60e51b815260206004820152602260248201527f4d495353494f4e5f434f4e54524f4c3a20496e76616c696420706c6163656d656044820152611b9d60f21b60648201526084016103c9565b3360008181526099602090815260408083208a84528252808320898452909152908190208054600190910154915163b7abb1f760e01b8152600481019390935260248301869052604483018490526001600160a01b039081166064840152608483019190915283169063b7abb1f79060a401600060405180830381600087803b15801561266f57600080fd5b505af1158015612683573d6000803e3d6000fd5b50503360009081526099602090815260408083208b845282528083208a8452909152812090925090506001612500565b600054610100900460ff16806126cc575060005460ff16155b6126e85760405162461bcd60e51b81526004016103c990612f45565b600054610100900460ff16158015611e36576000805461ffff19166101011790558015611217576000805461ff001916905550565b600054610100900460ff1680612736575060005460ff16155b6127525760405162461bcd60e51b81526004016103c990612f45565b600054610100900460ff16158015612774576000805461ffff19166101011790555b611e36336115ab565b600054610100900460ff1680612796575060005460ff16155b6127b25760405162461bcd60e51b81526004016103c990612f45565b600054610100900460ff161580156127d4576000805461ffff19166101011790555b82516020808501919091208351918401919091206065919091556066558015610f5e576000805461ff0019169055505050565b80356001600160a01b038116811461281e57600080fd5b919050565b6000806000806080858703121561283957600080fd5b61284285612807565b966020860135965060408601359560600135945092505050565b801515811461121757600080fd5b6000806040838503121561287d57600080fd5b61288683612807565b915060208301356128968161285c565b809150509250929050565b6000602082840312156128b357600080fd5b6115a482612807565b82516001600160a01b03168152602080840151908201526040808401519082015260c0810182516001600160a01b0316606083015260208301516080830152604083015160a08301526115a4565b634e487b7160e01b600052604160045260246000fd5b60405160a0810167ffffffffffffffff811182821017156129435761294361290a565b60405290565b6040516060810167ffffffffffffffff811182821017156129435761294361290a565b604051601f8201601f1916810167ffffffffffffffff811182821017156129955761299561290a565b604052919050565b600067ffffffffffffffff8211156129b7576129b761290a565b5060051b60200190565b600060208083850312156129d457600080fd5b823567ffffffffffffffff8111156129eb57600080fd5b8301601f810185136129fc57600080fd5b8035612a0f612a0a8261299d565b61296c565b81815260a09182028301840191848201919088841115612a2e57600080fd5b938501935b83851015612a935780858a031215612a4b5760008081fd5b612a53612920565b85358152868601358782015260408087013590820152606080870135908201526080612a80818801612807565b9082015283529384019391850191612a33565b50979650505050505050565b600060208284031215612ab157600080fd5b5035919050565b803560ff8116811461281e57600080fd5b60008060008060008060008060e0898b031215612ae557600080fd5b612aee89612807565b97506020890135965060408901359550606089013567ffffffffffffffff80821115612b1957600080fd5b818b0191508b601f830112612b2d57600080fd5b813581811115612b3c57600080fd5b8c6020606083028501011115612b5157600080fd5b602083019750809650505050612b6960808a01612ab8565b925060a0890135915060c089013590509295985092959890939650565b600080600080600060a08688031215612b9e57600080fd5b85359450602086013593506040860135925060608601359150612bc360808701612807565b90509295509295909350565b600080600060608486031215612be457600080fd5b505081359360208301359350604090920135919050565b600060208284031215612c0d57600080fd5b81356115a48161285c565b60008060408385031215612c2b57600080fd5b612c3483612807565b9150612c4260208401612807565b90509250929050565b60008060408385031215612c5e57600080fd5b82359150612c4260208401612807565b60008060008060808587031215612c8457600080fd5b843567ffffffffffffffff811115612c9b57600080fd5b8501601f81018713612cac57600080fd5b80356020612cbc612a0a8361299d565b8281526060928302840182019282820191908b851115612cdb57600080fd5b948301945b84861015612d255780868d031215612cf85760008081fd5b612d00612949565b8635815284870135858201526040808801359082015283529485019491830191612ce0565b819950612d33848c01612ab8565b999c999b5060408b01359a013598975050505050505050565b634e487b7160e01b600052601160045260246000fd5b600080821280156001600160ff1b0384900385131615612d8457612d84612d4c565b600160ff1b8390038412811615612d9d57612d9d612d4c565b50500190565b60008219821115612db657612db6612d4c565b500190565b600082612dd857634e487b7160e01b600052601260045260246000fd5b500490565b60208082526024908201527f4d495353494f4e5f434f4e54524f4c3a20496e76616c696420636f6f7264696e6040820152636174657360e01b606082015260800190565b634e487b7160e01b600052603260045260246000fd5b600060208284031215612e4957600080fd5b5051919050565b60008060408385031215612e6357600080fd5b505080516020909101519092909150565b6020808252818101527f4f776e61626c653a2063616c6c6572206973206e6f7420746865206f776e6572604082015260600190565b6000600019821415612ebd57612ebd612d4c565b5060010190565b60208082526022908201527f4d495353494f4e5f434f4e54524f4c3a20494e56414c49445f5349474e415455604082015261524560f01b606082015260800190565b60008083128015600160ff1b850184121615612f2457612f24612d4c565b6001600160ff1b0384018313811615612f3f57612f3f612d4c565b50500390565b6020808252602e908201527f496e697469616c697a61626c653a20636f6e747261637420697320616c72656160408201526d191e481a5b9a5d1a585b1a5e995960921b606082015260800190565b600081518084526020808501945080840160005b83811015612fc357815187529582019590820190600101612fa7565b509495945050505050565b6001600160a01b0384168152606060208201819052600090612ff290830185612f93565b82810360408401526130048185612f93565b9695505050505050565b6000600160ff1b82141561302457613024612d4c565b5060000390565b60006020828403121561303d57600080fd5b81516115a48161285c565b634e487b7160e01b600052602160045260246000fdfea2646970667358221220480f97bc279011057dc281cb4df1fd93723e9d0c1be53b7a3137e5e3dd10fd1664736f6c63430008090033",
  "linkReferences": {},
  "deployedLinkReferences": {}
}