{
  "_format": "hh-sol-artifact-1",
  "contractName": "FacilityStore",
  "sourceName": "contracts/mission_control/FacilityStore.sol",
  "abi": [
    {
      "inputs": [
        {
          "internalType": "uint256",
          "name": "have",
          "type": "uint256"
        },
        {
          "internalType": "uint256",
          "name": "want",
          "type": "uint256"
        }
      ],
      "name": "AdditionalBiomodsWrongLength",
      "type": "error"
    },
    {
      "inputs": [],
      "name": "BiomodTokenIdsAndPriceLengthsAreDifferent",
      "type": "error"
    },
    {
      "inputs": [],
      "name": "BiomodTokensAndFacilityTokensLengthsAreDifferent",
      "type": "error"
    },
    {
      "inputs": [],
      "name": "FacilityTokenIdsAndWeightsLengthsAreDifferent",
      "type": "error"
    },
    {
      "inputs": [
        {
          "internalType": "uint256",
          "name": "orderId",
          "type": "uint256"
        }
      ],
      "name": "InvalidOrderId",
      "type": "error"
    },
    {
      "inputs": [],
      "name": "InvalidSpeedupAmount",
      "type": "error"
    },
    {
      "inputs": [],
      "name": "MaxOpenOrdersReached",
      "type": "error"
    },
    {
      "inputs": [
        {
          "internalType": "address",
          "name": "player",
          "type": "address"
        }
      ],
      "name": "NoOrders",
      "type": "error"
    },
    {
      "inputs": [],
      "name": "NoPossibleSpeedUps",
      "type": "error"
    },
    {
      "inputs": [
        {
          "internalType": "address",
          "name": "have",
          "type": "address"
        },
        {
          "internalType": "address",
          "name": "want",
          "type": "address"
        }
      ],
      "name": "OnlyCoordinatorCanFulfill",
      "type": "error"
    },
    {
      "inputs": [],
      "name": "OnlyGovCanCall",
      "type": "error"
    },
    {
      "inputs": [],
      "name": "OrderIsNotFinished",
      "type": "error"
    },
    {
      "anonymous": false,
      "inputs": [
        {
          "indexed": true,
          "internalType": "address",
          "name": "user",
          "type": "address"
        },
        {
          "indexed": true,
          "internalType": "uint256",
          "name": "orderId",
          "type": "uint256"
        }
      ],
      "name": "FacilityOrderPlaced",
      "type": "event"
    },
    {
      "anonymous": false,
      "inputs": [
        {
          "indexed": true,
          "internalType": "address",
          "name": "previousOwner",
          "type": "address"
        },
        {
          "indexed": true,
          "internalType": "address",
          "name": "newOwner",
          "type": "address"
        }
      ],
      "name": "OwnershipTransferred",
      "type": "event"
    },
    {
      "anonymous": false,
      "inputs": [
        {
          "indexed": true,
          "internalType": "address",
          "name": "user",
          "type": "address"
        },
        {
          "indexed": false,
          "internalType": "uint256",
          "name": "orderId",
          "type": "uint256"
        },
        {
          "indexed": false,
          "internalType": "uint256",
          "name": "facilityTokenId",
          "type": "uint256"
        }
      ],
      "name": "ReceiveFacility",
      "type": "event"
    },
    {
      "anonymous": false,
      "inputs": [
        {
          "indexed": true,
          "internalType": "address",
          "name": "user",
          "type": "address"
        },
        {
          "indexed": true,
          "internalType": "uint256",
          "name": "orderId",
          "type": "uint256"
        }
      ],
      "name": "RequestClaimFacility",
      "type": "event"
    },
    {
      "anonymous": false,
      "inputs": [
        {
          "indexed": true,
          "internalType": "address",
          "name": "user",
          "type": "address"
        },
        {
          "indexed": true,
          "internalType": "uint256",
          "name": "orderId",
          "type": "uint256"
        },
        {
          "indexed": false,
          "internalType": "uint256",
          "name": "_numSpeedups",
          "type": "uint256"
        }
      ],
      "name": "SpeedUpConstruction",
      "type": "event"
    },
    {
      "inputs": [],
      "name": "assetManager",
      "outputs": [
        {
          "internalType": "contract IAssetManager",
          "name": "",
          "type": "address"
        }
      ],
      "stateMutability": "view",
      "type": "function"
    },
    {
      "inputs": [
        {
          "internalType": "uint256",
          "name": "",
          "type": "uint256"
        }
      ],
      "name": "biomodPriceAmounts",
      "outputs": [
        {
          "internalType": "uint256",
          "name": "",
          "type": "uint256"
        }
      ],
      "stateMutability": "view",
      "type": "function"
    },
    {
      "inputs": [
        {
          "internalType": "uint256",
          "name": "",
          "type": "uint256"
        }
      ],
      "name": "biomodTokenIds",
      "outputs": [
        {
          "internalType": "uint256",
          "name": "",
          "type": "uint256"
        }
      ],
      "stateMutability": "view",
      "type": "function"
    },
    {
      "inputs": [],
      "name": "claimBatchOrder",
      "outputs": [],
      "stateMutability": "nonpayable",
      "type": "function"
    },
    {
      "inputs": [
        {
          "internalType": "uint256",
          "name": "_orderId",
          "type": "uint256"
        }
      ],
      "name": "claimOrder",
      "outputs": [],
      "stateMutability": "nonpayable",
      "type": "function"
    },
    {
      "inputs": [
        {
          "internalType": "uint256",
          "name": "",
          "type": "uint256"
        }
      ],
      "name": "facilityProbabilityWeights",
      "outputs": [
        {
          "internalType": "uint256",
          "name": "",
          "type": "uint256"
        }
      ],
      "stateMutability": "view",
      "type": "function"
    },
    {
      "inputs": [],
      "name": "facilityTime",
      "outputs": [
        {
          "internalType": "uint256",
          "name": "",
          "type": "uint256"
        }
      ],
      "stateMutability": "view",
      "type": "function"
    },
    {
      "inputs": [
        {
          "internalType": "uint256",
          "name": "",
          "type": "uint256"
        }
      ],
      "name": "facilityTokenIds",
      "outputs": [
        {
          "internalType": "uint256",
          "name": "",
          "type": "uint256"
        }
      ],
      "stateMutability": "view",
      "type": "function"
    },
    {
      "inputs": [],
      "name": "feePercentage",
      "outputs": [
        {
          "internalType": "uint256",
          "name": "",
          "type": "uint256"
        }
      ],
      "stateMutability": "view",
      "type": "function"
    },
    {
      "inputs": [],
      "name": "feeTokenAmount",
      "outputs": [
        {
          "internalType": "uint256",
          "name": "",
          "type": "uint256"
        }
      ],
      "stateMutability": "view",
      "type": "function"
    },
    {
      "inputs": [],
      "name": "feeTokenId",
      "outputs": [
        {
          "internalType": "uint256",
          "name": "",
          "type": "uint256"
        }
      ],
      "stateMutability": "view",
      "type": "function"
    },
    {
      "inputs": [],
      "name": "feeWallet",
      "outputs": [
        {
          "internalType": "address",
          "name": "",
          "type": "address"
        }
      ],
      "stateMutability": "view",
      "type": "function"
    },
    {
      "inputs": [
        {
          "internalType": "uint256",
          "name": "",
          "type": "uint256"
        }
      ],
      "name": "fixedPriceTokenAmounts",
      "outputs": [
        {
          "internalType": "uint256",
          "name": "",
          "type": "uint256"
        }
      ],
      "stateMutability": "view",
      "type": "function"
    },
    {
      "inputs": [
        {
          "internalType": "uint256",
          "name": "",
          "type": "uint256"
        }
      ],
      "name": "fixedPriceTokenIds",
      "outputs": [
        {
          "internalType": "uint256",
          "name": "",
          "type": "uint256"
        }
      ],
      "stateMutability": "view",
      "type": "function"
    },
    {
      "inputs": [
        {
          "internalType": "uint256",
          "name": "requestId",
          "type": "uint256"
        },
        {
          "internalType": "uint256[]",
          "name": "randomWords",
          "type": "uint256[]"
        }
      ],
      "name": "fulfillRandomWords",
      "outputs": [],
      "stateMutability": "nonpayable",
      "type": "function"
    },
    {
      "inputs": [],
      "name": "getFacilityBiomodTokensPrice",
      "outputs": [
        {
          "internalType": "uint256[]",
          "name": "_tokenIds",
          "type": "uint256[]"
        },
        {
          "internalType": "uint256[]",
          "name": "_tokenAmounts",
          "type": "uint256[]"
        }
      ],
      "stateMutability": "view",
      "type": "function"
    },
    {
      "inputs": [],
      "name": "getFacilityFixedTokensPrice",
      "outputs": [
        {
          "internalType": "uint256[]",
          "name": "_tokenIds",
          "type": "uint256[]"
        },
        {
          "internalType": "uint256[]",
          "name": "_tokenAmounts",
          "type": "uint256[]"
        }
      ],
      "stateMutability": "view",
      "type": "function"
    },
    {
      "inputs": [],
      "name": "getMaxOrders",
      "outputs": [
        {
          "internalType": "uint256",
          "name": "_maxOrders",
          "type": "uint256"
        }
      ],
      "stateMutability": "view",
      "type": "function"
    },
    {
      "inputs": [
        {
          "internalType": "address",
          "name": "_player",
          "type": "address"
        }
      ],
      "name": "getOrders",
      "outputs": [
        {
          "components": [
            {
              "internalType": "uint256",
              "name": "orderId",
              "type": "uint256"
            },
            {
              "internalType": "uint256",
              "name": "orderAmount",
              "type": "uint256"
            },
            {
              "internalType": "uint256",
              "name": "createdAt",
              "type": "uint256"
            },
            {
              "internalType": "uint256",
              "name": "speedUpDeductedAmount",
              "type": "uint256"
            },
            {
              "internalType": "uint256",
              "name": "totalCompletionTime",
              "type": "uint256"
            }
          ],
          "internalType": "struct ITrader.Order[]",
          "name": "",
          "type": "tuple[]"
        }
      ],
      "stateMutability": "view",
      "type": "function"
    },
    {
      "inputs": [
        {
          "components": [
            {
              "internalType": "address",
              "name": "_assetManager",
              "type": "address"
            },
            {
              "internalType": "address",
              "name": "_feeWallet",
              "type": "address"
            },
            {
              "internalType": "uint256",
              "name": "_facilityTime",
              "type": "uint256"
            },
            {
              "internalType": "uint256",
              "name": "_speedupPriceTokenId",
              "type": "uint256"
            },
            {
              "internalType": "uint256",
              "name": "_speedupPrice",
              "type": "uint256"
            },
            {
              "internalType": "uint256",
              "name": "_speedupTime",
              "type": "uint256"
            },
            {
              "internalType": "uint256",
              "name": "_maxOrders",
              "type": "uint256"
            },
            {
              "internalType": "uint256[]",
              "name": "_fixedPriceTokenIds",
              "type": "uint256[]"
            },
            {
              "internalType": "uint256[]",
              "name": "_fixedPriceTokenAmounts",
              "type": "uint256[]"
            },
            {
              "internalType": "uint256[]",
              "name": "_biomodTokenIds",
              "type": "uint256[]"
            },
            {
              "internalType": "uint256[]",
              "name": "_biomodPriceAmounts",
              "type": "uint256[]"
            },
            {
              "internalType": "uint256[]",
              "name": "_facilityTokenIds",
              "type": "uint256[]"
            },
            {
              "internalType": "uint256[]",
              "name": "_facilityProbabilityWeights",
              "type": "uint256[]"
            },
            {
              "internalType": "address",
              "name": "_vrfCoordinator",
              "type": "address"
            }
          ],
          "internalType": "struct InitializeParams",
          "name": "_initParams",
          "type": "tuple"
        }
      ],
      "name": "initialize",
      "outputs": [],
      "stateMutability": "nonpayable",
      "type": "function"
    },
    {
      "inputs": [],
      "name": "maxOrders",
      "outputs": [
        {
          "internalType": "uint256",
          "name": "",
          "type": "uint256"
        }
      ],
      "stateMutability": "view",
      "type": "function"
    },
    {
      "inputs": [],
      "name": "moderator",
      "outputs": [
        {
          "internalType": "address",
          "name": "",
          "type": "address"
        }
      ],
      "stateMutability": "view",
      "type": "function"
    },
    {
      "inputs": [],
      "name": "nextOrderId",
      "outputs": [
        {
          "internalType": "uint256",
          "name": "",
          "type": "uint256"
        }
      ],
      "stateMutability": "view",
      "type": "function"
    },
    {
      "inputs": [],
      "name": "owner",
      "outputs": [
        {
          "internalType": "address",
          "name": "",
          "type": "address"
        }
      ],
      "stateMutability": "view",
      "type": "function"
    },
    {
      "inputs": [
        {
          "internalType": "uint256[]",
          "name": "_additionalBiomodAmounts",
          "type": "uint256[]"
        }
      ],
      "name": "placeFacilityOrder",
      "outputs": [],
      "stateMutability": "nonpayable",
      "type": "function"
    },
    {
      "inputs": [],
      "name": "renounceOwnership",
      "outputs": [],
      "stateMutability": "nonpayable",
      "type": "function"
    },
    {
      "inputs": [
        {
          "internalType": "address",
          "name": "_assetManager",
          "type": "address"
        }
      ],
      "name": "setAssetManager",
      "outputs": [],
      "stateMutability": "nonpayable",
      "type": "function"
    },
    {
      "inputs": [
        {
          "internalType": "uint256[]",
          "name": "_biomodTokenIds",
          "type": "uint256[]"
        },
        {
          "internalType": "uint256[]",
          "name": "_biomodPriceAmounts",
          "type": "uint256[]"
        }
      ],
      "name": "setBiomodTokenPrices",
      "outputs": [],
      "stateMutability": "nonpayable",
      "type": "function"
    },
    {
      "inputs": [
        {
          "internalType": "uint256",
          "name": "_facilityTime",
          "type": "uint256"
        }
      ],
      "name": "setFacilityTime",
      "outputs": [],
      "stateMutability": "nonpayable",
      "type": "function"
    },
    {
      "inputs": [
        {
          "internalType": "uint256[]",
          "name": "_facilityTokenIds",
          "type": "uint256[]"
        },
        {
          "internalType": "uint256[]",
          "name": "_facilityProbabilityWeights",
          "type": "uint256[]"
        }
      ],
      "name": "setFacilityTokenIdsAndWeights",
      "outputs": [],
      "stateMutability": "nonpayable",
      "type": "function"
    },
    {
      "inputs": [
        {
          "internalType": "uint256",
          "name": "_feePercentage",
          "type": "uint256"
        }
      ],
      "name": "setFeePercentage",
      "outputs": [],
      "stateMutability": "nonpayable",
      "type": "function"
    },
    {
      "inputs": [
        {
          "internalType": "address",
          "name": "_feeWallet",
          "type": "address"
        }
      ],
      "name": "setFeeWallet",
      "outputs": [],
      "stateMutability": "nonpayable",
      "type": "function"
    },
    {
      "inputs": [
        {
          "internalType": "uint256[]",
          "name": "_fixedPriceTokenIds",
          "type": "uint256[]"
        },
        {
          "internalType": "uint256[]",
          "name": "_fixedPriceTokenAmounts",
          "type": "uint256[]"
        }
      ],
      "name": "setFixedPriceTokenIds",
      "outputs": [],
      "stateMutability": "nonpayable",
      "type": "function"
    },
    {
      "inputs": [
        {
          "internalType": "uint256",
          "name": "_maxOrders",
          "type": "uint256"
        }
      ],
      "name": "setMaxOrders",
      "outputs": [],
      "stateMutability": "nonpayable",
      "type": "function"
    },
    {
      "inputs": [
        {
          "internalType": "address",
          "name": "_moderator",
          "type": "address"
        }
      ],
      "name": "setModerator",
      "outputs": [],
      "stateMutability": "nonpayable",
      "type": "function"
    },
    {
      "inputs": [
        {
          "internalType": "uint256",
          "name": "_speedupPriceTokenId",
          "type": "uint256"
        },
        {
          "internalType": "uint256",
          "name": "_speedupPrice",
          "type": "uint256"
        },
        {
          "internalType": "uint256",
          "name": "_speedupTime",
          "type": "uint256"
        }
      ],
      "name": "setSpeedupParameters",
      "outputs": [],
      "stateMutability": "nonpayable",
      "type": "function"
    },
    {
      "inputs": [
        {
          "internalType": "address",
          "name": "_vrfCoordinator",
          "type": "address"
        }
      ],
      "name": "setVrfCoordinator",
      "outputs": [],
      "stateMutability": "nonpayable",
      "type": "function"
    },
    {
      "inputs": [
        {
          "internalType": "uint256",
          "name": "_numSpeedUps",
          "type": "uint256"
        },
        {
          "internalType": "uint256",
          "name": "_orderId",
          "type": "uint256"
        }
      ],
      "name": "speedUpOrder",
      "outputs": [],
      "stateMutability": "nonpayable",
      "type": "function"
    },
    {
      "inputs": [
        {
          "internalType": "uint256",
          "name": "_numSpeedUps",
          "type": "uint256"
        },
        {
          "internalType": "uint256",
          "name": "_orderId",
          "type": "uint256"
        }
      ],
      "name": "IXTSpeedUpOrder",
      "outputs": [],
      "stateMutability": "nonpayable",
      "type": "function"
    },
    {
      "inputs": [],
      "name": "speedupPrice",
      "outputs": [
        {
          "internalType": "uint256",
          "name": "",
          "type": "uint256"
        }
      ],
      "stateMutability": "view",
      "type": "function"
    },
    {
      "inputs": [],
      "name": "speedupPriceTokenId",
      "outputs": [
        {
          "internalType": "uint256",
          "name": "",
          "type": "uint256"
        }
      ],
      "stateMutability": "view",
      "type": "function"
    },
    {
      "inputs": [],
      "name": "speedupTime",
      "outputs": [
        {
          "internalType": "uint256",
          "name": "",
          "type": "uint256"
        }
      ],
      "stateMutability": "view",
      "type": "function"
    },
    {
      "inputs": [
        {
          "internalType": "address",
          "name": "newOwner",
          "type": "address"
        }
      ],
      "name": "transferOwnership",
      "outputs": [],
      "stateMutability": "nonpayable",
      "type": "function"
    },
    {
      "inputs": [
        {
          "internalType": "address",
          "name": "_user",
          "type": "address"
        }
      ],
      "name": "userOpenOrdersAmount",
      "outputs": [
        {
          "internalType": "uint256",
          "name": "",
          "type": "uint256"
        }
      ],
      "stateMutability": "view",
      "type": "function"
    },
    {
      "inputs": [],
      "name": "vrfCoordinator",
      "outputs": [
        {
          "internalType": "address",
          "name": "",
          "type": "address"
        }
      ],
      "stateMutability": "view",
      "type": "function"
    },
    {
      "inputs": [
        {
          "internalType": "uint256",
          "name": "",
          "type": "uint256"
        }
      ],
      "name": "vrfRequests",
      "outputs": [
        {
          "internalType": "uint256",
          "name": "",
          "type": "uint256"
        }
      ],
      "stateMutability": "view",
      "type": "function"
    }
  ],
  "bytecode": "0x608060405234801561001057600080fd5b5061288b806100206000396000f3fe608060405234801561001057600080fd5b506004361061027f5760003560e01c8063738da51a1161015c578063ae06c1b7116100ce578063c66aa35711610087578063c66aa35714610535578063d9fa925314610548578063dc920ef714610551578063f25f4b5614610564578063f2fde38b14610577578063f53e6f651461058a57600080fd5b8063ae06c1b7146104e2578063b2744abf146104f5578063b9847549146104fe578063bf64efd414610511578063c37d913d14610519578063c461d4ee1461052257600080fd5b806390d49b9d1161012057806390d49b9d1461047a57806394217ad11461048d578063a001ecdd146104a0578063a0475b4d146104a9578063a2786447146104bc578063a3e56fa8146104cf57600080fd5b8063738da51a1461041a57806375bba1891461043057806377c5e989146104435780638c424f09146104565780638da5cb5b1461046957600080fd5b806338743904116101f55780633ee13577116101b95780633ee13577146103bd578063405cb0fb146103d057806340c86b14146103e357806343060237146103ec5780634d497206146103ff578063715018a61461041257600080fd5b8063387439041461035057806338ba46141461037b57806338e9c1511461038e5780633981ec27146103a15780633a3f8239146103aa57600080fd5b80631ecdd6c2116102475780631ecdd6c2146102fd5780631f16ca2e14610305578063218045031461030e5780632a58b330146103215780632cb194991461032a578063363d44e71461033d57600080fd5b8063080056e514610284578063093376fe146102aa5780630c3ac4da146102ca5780631a1d9252146102d35780631a87bb4d146102f3575b600080fd5b610297610292366004612108565b61059d565b6040519081526020015b60405180910390f35b6102bd6102b836600461213d565b6105be565b6040516102a19190612158565b610297606d5481565b6102976102e1366004612108565b607c6020526000908152604090205481565b6102fb610665565b005b607054610297565b610297606e5481565b6102fb61031c366004612108565b6107c8565b61029760655481565b6102fb6103383660046121c6565b610810565b6102fb61034b3660046121e8565b610b1f565b607d54610363906001600160a01b031681565b6040516001600160a01b0390911681526020016102a1565b6102fb6103893660046122ef565b610b70565b6102fb61039c366004612336565b610d2f565b61029760745481565b6102fb6103b8366004612108565b610dc0565b6102976103cb36600461213d565b610eef565b6102fb6103de366004612336565b610f96565b610297606c5481565b6102fb6103fa36600461213d565b611045565b61029761040d366004612108565b6110aa565b6102fb6110ba565b610422611120565b6040516102a19291906123cb565b6102fb61043e36600461213d565b6111d3565b6102fb6104513660046123f9565b611238565b6102fb61046436600461213d565b61153d565b6033546001600160a01b0316610363565b6102fb61048836600461213d565b6115a2565b606b54610363906001600160a01b031681565b61029760725481565b6102fb6104b7366004612336565b611607565b6102976104ca366004612108565b6116c3565b607b54610363906001600160a01b031681565b6102fb6104f0366004612108565b6116d3565b610297606f5481565b6102fb61050c366004612108565b61173d565b610422611785565b61029760735481565b610297610530366004612108565b611834565b610297610543366004612108565b611844565b61029760705481565b61029761055f366004612108565b611854565b607154610363906001600160a01b031681565b6102fb61058536600461213d565b611864565b6102fb61059836600461246e565b61192f565b607581815481106105ad57600080fd5b600091825260209091200154905081565b6001600160a01b0381166000908152606660209081526040808320805482518185028101850190935280835260609492939192909184015b8282101561065a57838290600052602060002090600502016040518060a001604052908160008201548152602001600182015481526020016002820154815260200160038201548152602001600482015481525050815260200190600101906105f6565b505050509050919050565b336000908152606660205260409020805461069a57604051632c3505e960e21b81523360048201526024015b60405180910390fd5b80545b80156107c45742826106b060018461261a565b815481106106c0576106c0612631565b906000526020600020906005020160040154836001846106e0919061261a565b815481106106f0576106f0612631565b90600052602060002090600502016002015461070c9190612647565b10156107b2576107488261072160018461261a565b8154811061073157610731612631565b906000526020600020906005020160000154611b95565b8161075460018361261a565b8154811061076457610764612631565b60009182526020822060059091020154604051909133917f01d4f50e4694e7eb0e638fae4e2195947587044f8b0f867e0250bda146b9c4f09190a36107b26107ad60018361261a565b611c42565b806107bc8161265f565b91505061069d565b5050565b6033546001600160a01b0316331415806107ed5750607d546001600160a01b03163314155b1561080b5760405163f2376b9760e01b815260040160405180910390fd5b606c55565b336000908152606660205260409020805461084057604051632c3505e960e21b8152336004820152602401610691565b8261085e57604051637b05d1ef60e01b815260040160405180910390fd5b60005b8154811015610b02578282828154811061087d5761087d612631565b9060005260206000209060050201600001541415610af0576108fa8282815481106108aa576108aa612631565b90600052602060002090600502016040518060a001604052908160008201548152602001600182015481526020016002820154815260200160038201548152602001600482015481525050611d6e565b1561091857604051630f54a78360e21b815260040160405180910390fd5b83606f546109269190612676565b82828154811061093857610938612631565b906000526020600020906005020160030160008282546109589190612647565b92505081905550600082828154811061097357610973612631565b906000526020600020906005020160030154606c546109929190612695565b1361099e5760006109cf565b8181815481106109b0576109b0612631565b906000526020600020906005020160030154606c546109cf919061261a565b8282815481106109e1576109e1612631565b906000526020600020906005020160040181905550818181548110610a0857610a08612631565b906000526020600020906005020160000154336001600160a01b03167ffd12f8572fa8527fe5054ed0c2c2d55316050733b567a153f68aaa1c377d373486604051610a5591815260200190565b60405180910390a3606b54606d54606e546001600160a01b0390921691630fa6f1cc913391610a849089612676565b6040516001600160e01b031960e086901b1681526001600160a01b03909316600484015260248301919091526044820152606401600060405180830381600087803b158015610ad257600080fd5b505af1158015610ae6573d6000803e3d6000fd5b5050505050505050565b80610afa816126d4565b915050610861565b506040516308de01c360e31b815260048101839052602401610691565b6033546001600160a01b031633141580610b445750607d546001600160a01b03163314155b15610b625760405163f2376b9760e01b815260040160405180910390fd5b606d92909255606e55606f55565b607b546001600160a01b03163314610bb057607b5460405163073e64fd60e21b81523360048201526001600160a01b039091166024820152604401610691565b60008281526068602081815260408084208054606984529185208054908690559390925281546001600160a01b03191690915583516001600160a01b039091169290610c299085908390610c0657610c06612631565b602002602001015160676000858152602001908152602001600020600001611d8c565b606b54607980549293506001600160a01b03909116916353674f0e91869185908110610c5757610c57612631565b6000918252602090912001546040516001600160e01b031960e085901b1681526001600160a01b039092166004830152602482015260016044820152606401600060405180830381600087803b158015610cb057600080fd5b505af1158015610cc4573d6000803e3d6000fd5b50505050826001600160a01b03167f477eaefe70e81d80f38aded5ff92ff477c7a4f39472848c20d1c37fc7ba6ed7b8360798481548110610d0757610d07612631565b6000918252602091829020015460408051938452918301520160405180910390a25050505050565b6033546001600160a01b031633141580610d545750607d546001600160a01b03163314155b15610d725760405163f2376b9760e01b815260040160405180910390fd5b8051825114610d9457604051631f38750560e01b815260040160405180910390fd5b8151610da79060779060208501906120a8565b508051610dbb9060789060208401906120a8565b505050565b3360009081526066602052604090208054610df057604051632c3505e960e21b8152336004820152602401610691565b60005b8154811015610b025782828281548110610e0f57610e0f612631565b9060005260206000209060050201600001541415610edd5742828281548110610e3a57610e3a612631565b906000526020600020906005020160040154838381548110610e5e57610e5e612631565b906000526020600020906005020160020154610e7a9190612647565b1015610ec457610e8983611b95565b610e9281611c42565b604051839033907f01d4f50e4694e7eb0e638fae4e2195947587044f8b0f867e0250bda146b9c4f090600090a3505050565b604051636553b41760e11b815260040160405180910390fd5b80610ee7816126d4565b915050610df3565b6001600160a01b03811660009081526066602052604081208190815b8154811015610f8d57818181548110610f2657610f26612631565b906000526020600020906005020160040154828281548110610f4a57610f4a612631565b906000526020600020906005020160020154610f669190612647565b421115610f7b5782610f77816126d4565b9350505b80610f85816126d4565b915050610f0b565b50909392505050565b6033546001600160a01b031633141580610fbb5750607d546001600160a01b03163314155b15610fd95760405163f2376b9760e01b815260040160405180910390fd5b8051825114610ffb576040516328f9a5d760e21b815260040160405180910390fd5b60775482511461101e5760405163631ae3bf60e11b815260040160405180910390fd5b81516110319060799060208501906120a8565b508051610dbb90607a9060208401906120a8565b6033546001600160a01b03163314158061106a5750607d546001600160a01b03163314155b156110885760405163f2376b9760e01b815260040160405180910390fd5b606b80546001600160a01b0319166001600160a01b0392909216919091179055565b607981815481106105ad57600080fd5b6033546001600160a01b031633146111145760405162461bcd60e51b815260206004820181905260248201527f4f776e61626c653a2063616c6c6572206973206e6f7420746865206f776e65726044820152606401610691565b61111e6000611e09565b565b606080607560768180548060200260200160405190810160405280929190818152602001828054801561117257602002820191906000526020600020905b81548152602001906001019080831161115e575b50505050509150808054806020026020016040519081016040528092919081815260200182805480156111c457602002820191906000526020600020905b8154815260200190600101908083116111b0575b50505050509050915091509091565b6033546001600160a01b0316331415806111f85750607d546001600160a01b03163314155b156112165760405163f2376b9760e01b815260040160405180910390fd5b607d80546001600160a01b0319166001600160a01b0392909216919091179055565b60775481146112685760775460405163433b948160e11b8152610691918391600401918252602082015260400190565b60705461127433610eef565b10611292576040516324554ec560e11b815260040160405180910390fd5b600061129d33611e5b565b9050600060788054806020026020016040519081016040528092919081815260200182805480156112ed57602002820191906000526020600020905b8154815260200190600101908083116112d9575b5050505050905060005b6077548110156113c65784848281811061131357611313612631565b9050602002013582828151811061132c5761132c612631565b602002602001018181516113409190612647565b905250600083815260676020526040902085858381811061136357611363612631565b9050602002013560016113769190612647565b607a838154811061138957611389612631565b906000526020600020015461139e9190612676565b81546001810183556000928352602090922090910155806113be816126d4565b9150506112f7565b50606b54604051639670371b60e01b81526001600160a01b0390911690639670371b906113fd903390607590607690600401612724565b600060405180830381600087803b15801561141757600080fd5b505af115801561142b573d6000803e3d6000fd5b5050606b54604051639670371b60e01b81526001600160a01b039091169250639670371b91506114649033906077908690600401612764565b600060405180830381600087803b15801561147e57600080fd5b505af1158015611492573d6000803e3d6000fd5b5050606b546071546073546074546040516329b3a78760e11b81526001600160a01b03938416600482015260248101929092526044820152911692506353674f0e9150606401600060405180830381600087803b1580156114f257600080fd5b505af1158015611506573d6000803e3d6000fd5b50506040518492503391507f4476dade1724a000a403cf9a9b41565ea9e48d709142d6b014e0131d587be0c890600090a350505050565b6033546001600160a01b0316331415806115625750607d546001600160a01b03163314155b156115805760405163f2376b9760e01b815260040160405180910390fd5b607b80546001600160a01b0319166001600160a01b0392909216919091179055565b6033546001600160a01b0316331415806115c75750607d546001600160a01b03163314155b156115e55760405163f2376b9760e01b815260040160405180910390fd5b607180546001600160a01b0319166001600160a01b0392909216919091179055565b6033546001600160a01b03163314158061162c5750607d546001600160a01b03163314155b1561164a5760405163f2376b9760e01b815260040160405180910390fd5b815161165d9060759060208501906120a8565b5080516116719060769060208401906120a8565b50607560008154811061168657611686612631565b6000918252602082200154607355607254607680546116bc93906116ac576116ac612631565b9060005260206000200154611ef4565b6074555050565b607881815481106105ad57600080fd5b6033546001600160a01b0316331415806116f85750607d546001600160a01b03163314155b156117165760405163f2376b9760e01b815260040160405180910390fd5b8060728190555061173760725460766000815481106116ac576116ac612631565b60745550565b6033546001600160a01b0316331415806117625750607d546001600160a01b03163314155b156117805760405163f2376b9760e01b815260040160405180910390fd5b607055565b6060806077607881805480602002602001604051908101604052809291908181526020018280548015611172576020028201919060005260206000209081548152602001906001019080831161115e5750505050509150808054806020026020016040519081016040528092919081815260200182805480156111c457602002820191906000526020600020908154815260200190600101908083116111b05750505050509050915091509091565b607681815481106105ad57600080fd5b607781815481106105ad57600080fd5b607a81815481106105ad57600080fd5b6033546001600160a01b031633146118be5760405162461bcd60e51b815260206004820181905260248201527f4f776e61626c653a2063616c6c6572206973206e6f7420746865206f776e65726044820152606401610691565b6001600160a01b0381166119235760405162461bcd60e51b815260206004820152602660248201527f4f776e61626c653a206e6577206f776e657220697320746865207a65726f206160448201526564647265737360d01b6064820152608401610691565b61192c81611e09565b50565b600054610100900460ff1680611948575060005460ff16155b6119645760405162461bcd60e51b81526004016106919061279a565b600054610100900460ff16158015611986576000805461ffff19166101011790555b61198e611f14565b8161014001515182610120015151146119ba57604051631f38750560e01b815260040160405180910390fd5b8161018001515182610160015151146119e6576040516328f9a5d760e21b815260040160405180910390fd5b816101600151518261012001515114611a125760405163631ae3bf60e11b815260040160405180910390fd5b8151606b80546001600160a01b03199081166001600160a01b03938416179091556020808501516071805490931693169290921790556040830151606c556060830151606d556080830151606e5560a0830151606f5560c083015160705560e08301518051611a859260759201906120a8565b506101008201518051611aa0916076916020909101906120a8565b506101208201518051611abb916077916020909101906120a8565b506101408201518051611ad6916078916020909101906120a8565b506101608201518051611af1916079916020909101906120a8565b506101808201518051611b0c91607a916020909101906120a8565b506101a0820151607b80546001600160a01b0319166001600160a01b0390921691909117905560758054600090611b4557611b45612631565b600091825260208220015460735560725460768054611b6b93906116ac576116ac612631565b607455607d80546001600160a01b0319163317905580156107c4576000805461ff00191690555050565b607b546040805163dbdff2c160e01b815290516000926001600160a01b03169163dbdff2c191600480830192602092919082900301818787803b158015611bdb57600080fd5b505af1158015611bef573d6000803e3d6000fd5b505050506040513d601f19601f82011682018060405250810190611c1391906127e8565b600090815260686020908152604080832080546001600160a01b03191633179055606990915290209190915550565b33600090815260666020526040902054611c5e9060019061261a565b811015611d1a573360009081526066602052604090208054611c829060019061261a565b81548110611c9257611c92612631565b906000526020600020906005020160666000336001600160a01b03166001600160a01b031681526020019081526020016000208281548110611cd657611cd6612631565b906000526020600020906005020160008201548160000155600182015481600101556002820154816002015560038201548160030155600482015481600401559050505b336000908152606660205260409020805480611d3857611d38612801565b60008281526020812060056000199093019283020181815560018101829055600281018290556003810182905560040155905550565b60004282608001518360400151611d859190612647565b1092915050565b600080611d9883611f8f565b611da2908561282d565b90506000805b8454811015611dff57848181548110611dc357611dc3612631565b906000526020600020015482611dd99190612647565b915081831015611ded579250611e03915050565b80611df7816126d4565b915050611da8565b5050505b92915050565b603380546001600160a01b038381166001600160a01b0319831681179093556040519116919082907f8be0079c531659141344cd1fd0a4f28419497f9722a3daafe3b4186f6b6457e090600090a35050565b60658054600091819083611e6e836126d4565b90915550506001600160a01b039092166000908152606660209081526040808320815160a08101835286815260018185018181524294830194855260608301878152606c54608085019081528554808501875595895296909720925160059094029092019283559051908201559051600282015591516003830155516004909101555090565b6000612710611f038484612676565b611f0d9190612841565b9392505050565b600054610100900460ff1680611f2d575060005460ff16155b611f495760405162461bcd60e51b81526004016106919061279a565b600054610100900460ff16158015611f6b576000805461ffff19166101011790555b611f73611fde565b611f7b612048565b801561192c576000805461ff001916905550565b6000805b8254811015611fd857828181548110611fae57611fae612631565b906000526020600020015482611fc49190612647565b915080611fd0816126d4565b915050611f93565b50919050565b600054610100900460ff1680611ff7575060005460ff16155b6120135760405162461bcd60e51b81526004016106919061279a565b600054610100900460ff16158015611f7b576000805461ffff1916610101179055801561192c576000805461ff001916905550565b600054610100900460ff1680612061575060005460ff16155b61207d5760405162461bcd60e51b81526004016106919061279a565b600054610100900460ff1615801561209f576000805461ffff19166101011790555b611f7b33611e09565b8280548282559060005260206000209081019282156120e3579160200282015b828111156120e35782518255916020019190600101906120c8565b506120ef9291506120f3565b5090565b5b808211156120ef57600081556001016120f4565b60006020828403121561211a57600080fd5b5035919050565b80356001600160a01b038116811461213857600080fd5b919050565b60006020828403121561214f57600080fd5b611f0d82612121565b602080825282518282018190526000919060409081850190868401855b828110156121b95781518051855286810151878601528581015186860152606080820151908601526080908101519085015260a09093019290850190600101612175565b5091979650505050505050565b600080604083850312156121d957600080fd5b50508035926020909101359150565b6000806000606084860312156121fd57600080fd5b505081359360208301359350604090920135919050565b634e487b7160e01b600052604160045260246000fd5b6040516101c0810167ffffffffffffffff8111828210171561224e5761224e612214565b60405290565b600082601f83011261226557600080fd5b8135602067ffffffffffffffff8083111561228257612282612214565b8260051b604051601f19603f830116810181811084821117156122a7576122a7612214565b6040529384528581018301938381019250878511156122c557600080fd5b83870191505b848210156122e4578135835291830191908301906122cb565b979650505050505050565b6000806040838503121561230257600080fd5b82359150602083013567ffffffffffffffff81111561232057600080fd5b61232c85828601612254565b9150509250929050565b6000806040838503121561234957600080fd5b823567ffffffffffffffff8082111561236157600080fd5b61236d86838701612254565b9350602085013591508082111561238357600080fd5b5061232c85828601612254565b600081518084526020808501945080840160005b838110156123c0578151875295820195908201906001016123a4565b509495945050505050565b6040815260006123de6040830185612390565b82810360208401526123f08185612390565b95945050505050565b6000806020838503121561240c57600080fd5b823567ffffffffffffffff8082111561242457600080fd5b818501915085601f83011261243857600080fd5b81358181111561244757600080fd5b8660208260051b850101111561245c57600080fd5b60209290920196919550909350505050565b60006020828403121561248057600080fd5b813567ffffffffffffffff8082111561249857600080fd5b908301906101c082860312156124ad57600080fd5b6124b561222a565b6124be83612121565b81526124cc60208401612121565b602082015260408301356040820152606083013560608201526080830135608082015260a083013560a082015260c083013560c082015260e08301358281111561251557600080fd5b61252187828601612254565b60e083015250610100808401358381111561253b57600080fd5b61254788828701612254565b828401525050610120808401358381111561256157600080fd5b61256d88828701612254565b828401525050610140808401358381111561258757600080fd5b61259388828701612254565b82840152505061016080840135838111156125ad57600080fd5b6125b988828701612254565b82840152505061018080840135838111156125d357600080fd5b6125df88828701612254565b8284015250506101a091506125f5828401612121565b91810191909152949350505050565b634e487b7160e01b600052601160045260246000fd5b60008282101561262c5761262c612604565b500390565b634e487b7160e01b600052603260045260246000fd5b6000821982111561265a5761265a612604565b500190565b60008161266e5761266e612604565b506000190190565b600081600019048311821515161561269057612690612604565b500290565b60008083128015600160ff1b8501841216156126b3576126b3612604565b6001600160ff1b03840183138116156126ce576126ce612604565b50500390565b60006000198214156126e8576126e8612604565b5060010190565b6000815480845260208085019450836000528060002060005b838110156123c057815487529582019560019182019101612708565b6001600160a01b0384168152606060208201819052600090612748908301856126ef565b828103604084015261275a81856126ef565b9695505050505050565b6001600160a01b0384168152606060208201819052600090612788908301856126ef565b828103604084015261275a8185612390565b6020808252602e908201527f496e697469616c697a61626c653a20636f6e747261637420697320616c72656160408201526d191e481a5b9a5d1a585b1a5e995960921b606082015260800190565b6000602082840312156127fa57600080fd5b5051919050565b634e487b7160e01b600052603160045260246000fd5b634e487b7160e01b600052601260045260246000fd5b60008261283c5761283c612817565b500690565b60008261285057612850612817565b50049056fea2646970667358221220a6d905055634d91b0d04aae80044b4d6f1a82e173b10f26699ff684b0ba1e06164736f6c63430008090033",
  "linkReferences": {},
  "deployedLinkReferences": {}
}