{
  "_format": "hh-sol-artifact-1",
  "contractName": "GravityGradeGenericBurn",
  "sourceName": "contracts/gravity_grade/GravityGradeGenericBurn.sol",
  "abi": [
    {
      "inputs": [],
      "name": "GB_ZeroAmount",
      "type": "error"
    },
    {
      "inputs": [],
      "name": "GB__ArraysNotSameLength",
      "type": "error"
    },
    {
      "inputs": [
        {
          "internalType": "uint256",
          "name": "_categoryId",
          "type": "uint256"
        }
      ],
      "name": "GB__InvalidCategoryId",
      "type": "error"
    },
    {
      "inputs": [
        {
          "internalType": "uint256",
          "name": "_amount",
          "type": "uint256"
        }
      ],
      "name": "GB__MaxDrawsExceeded",
      "type": "error"
    },
    {
      "inputs": [
        {
          "internalType": "address",
          "name": "_address",
          "type": "address"
        }
      ],
      "name": "GB__NotConditionalProvider",
      "type": "error"
    },
    {
      "inputs": [
        {
          "internalType": "address",
          "name": "_tokenAddress",
          "type": "address"
        }
      ],
      "name": "GB__NotERC721or1155",
      "type": "error"
    },
    {
      "inputs": [
        {
          "internalType": "address",
          "name": "_address",
          "type": "address"
        }
      ],
      "name": "GB__NotEligible",
      "type": "error"
    },
    {
      "inputs": [
        {
          "internalType": "address",
          "name": "_address",
          "type": "address"
        }
      ],
      "name": "GB__NotGov",
      "type": "error"
    },
    {
      "inputs": [],
      "name": "GB__NotOracle",
      "type": "error"
    },
    {
      "inputs": [
        {
          "internalType": "uint256",
          "name": "_tokenId",
          "type": "uint256"
        }
      ],
      "name": "GB__TokenNotWhitelisted",
      "type": "error"
    },
    {
      "inputs": [],
      "name": "GB__ZeroAddress",
      "type": "error"
    },
    {
      "inputs": [],
      "name": "GB__ZeroWeight",
      "type": "error"
    },
    {
      "anonymous": false,
      "inputs": [
        {
          "indexed": false,
          "internalType": "uint256",
          "name": "_tokenId",
          "type": "uint256"
        },
        {
          "indexed": false,
          "internalType": "uint256",
          "name": "_categoryId",
          "type": "uint256"
        }
      ],
      "name": "CategoryCreated",
      "type": "event"
    },
    {
      "anonymous": false,
      "inputs": [
        {
          "indexed": false,
          "internalType": "uint256",
          "name": "_tokenId",
          "type": "uint256"
        },
        {
          "indexed": false,
          "internalType": "uint256",
          "name": "_categoryId",
          "type": "uint256"
        }
      ],
      "name": "CategoryDeleted",
      "type": "event"
    },
    {
      "anonymous": false,
      "inputs": [
        {
          "indexed": false,
          "internalType": "uint256",
          "name": "_tokenId",
          "type": "uint256"
        },
        {
          "indexed": false,
          "internalType": "uint256",
          "name": "_categoryId",
          "type": "uint256"
        },
        {
          "indexed": false,
          "internalType": "address",
          "name": "_provider",
          "type": "address"
        }
      ],
      "name": "CategoryEligibilitySet",
      "type": "event"
    },
    {
      "anonymous": false,
      "inputs": [
        {
          "indexed": false,
          "internalType": "uint256",
          "name": "_tokenId",
          "type": "uint256"
        },
        {
          "indexed": false,
          "internalType": "uint256",
          "name": "_categoryId",
          "type": "uint256"
        },
        {
          "indexed": false,
          "internalType": "uint256[]",
          "name": "_amounts",
          "type": "uint256[]"
        },
        {
          "indexed": false,
          "internalType": "uint256[]",
          "name": "_weights",
          "type": "uint256[]"
        }
      ],
      "name": "ContentAmountsUpdated",
      "type": "event"
    },
    {
      "anonymous": false,
      "inputs": [
        {
          "indexed": false,
          "internalType": "uint256",
          "name": "_tokenId",
          "type": "uint256"
        },
        {
          "indexed": false,
          "internalType": "uint256",
          "name": "_contentCategory",
          "type": "uint256"
        },
        {
          "indexed": false,
          "internalType": "address[]",
          "name": "_tokens",
          "type": "address[]"
        },
        {
          "indexed": false,
          "internalType": "uint256[]",
          "name": "_tokenIds",
          "type": "uint256[]"
        },
        {
          "indexed": false,
          "internalType": "uint256[]",
          "name": "_amounts",
          "type": "uint256[]"
        },
        {
          "indexed": false,
          "internalType": "uint256[]",
          "name": "_weights",
          "type": "uint256[]"
        }
      ],
      "name": "ContentsUpdated",
      "type": "event"
    },
    {
      "anonymous": false,
      "inputs": [
        {
          "indexed": false,
          "internalType": "address",
          "name": "_address",
          "type": "address"
        }
      ],
      "name": "GravityGradeSet",
      "type": "event"
    },
    {
      "anonymous": false,
      "inputs": [
        {
          "indexed": true,
          "internalType": "address",
          "name": "previousOwner",
          "type": "address"
        },
        {
          "indexed": true,
          "internalType": "address",
          "name": "newOwner",
          "type": "address"
        }
      ],
      "name": "OwnershipTransferred",
      "type": "event"
    },
    {
      "anonymous": false,
      "inputs": [
        {
          "indexed": false,
          "internalType": "address",
          "name": "_opener",
          "type": "address"
        },
        {
          "indexed": false,
          "internalType": "uint256",
          "name": "_tokenId",
          "type": "uint256"
        },
        {
          "indexed": false,
          "internalType": "uint256",
          "name": "_numPacks",
          "type": "uint256"
        }
      ],
      "name": "PackOpened",
      "type": "event"
    },
    {
      "anonymous": false,
      "inputs": [
        {
          "indexed": false,
          "internalType": "address",
          "name": "_token",
          "type": "address"
        },
        {
          "indexed": false,
          "internalType": "uint256",
          "name": "_tokenId",
          "type": "uint256"
        },
        {
          "indexed": false,
          "internalType": "uint256",
          "name": "_amount",
          "type": "uint256"
        }
      ],
      "name": "RewardGranted",
      "type": "event"
    },
    {
      "anonymous": false,
      "inputs": [
        {
          "indexed": false,
          "internalType": "uint256",
          "name": "_tokenId",
          "type": "uint256"
        },
        {
          "indexed": false,
          "internalType": "bool",
          "name": "_isWhitelisted",
          "type": "bool"
        }
      ],
      "name": "TokenWhitelisted",
      "type": "event"
    },
    {
      "inputs": [
        {
          "internalType": "uint256",
          "name": "_tokenId",
          "type": "uint256"
        },
        {
          "internalType": "uint32",
          "name": "_amount",
          "type": "uint32"
        },
        {
          "internalType": "bool",
          "name": "_optInConditionals",
          "type": "bool"
        }
      ],
      "name": "burnPack",
      "outputs": [],
      "stateMutability": "nonpayable",
      "type": "function"
    },
    {
      "inputs": [
        {
          "internalType": "uint256",
          "name": "_tokenId",
          "type": "uint256"
        }
      ],
      "name": "createContentCategory",
      "outputs": [
        {
          "internalType": "uint256",
          "name": "_categoryId",
          "type": "uint256"
        }
      ],
      "stateMutability": "nonpayable",
      "type": "function"
    },
    {
      "inputs": [
        {
          "internalType": "uint256",
          "name": "_tokenId",
          "type": "uint256"
        },
        {
          "internalType": "uint256",
          "name": "_categoryId",
          "type": "uint256"
        }
      ],
      "name": "deleteContentCategory",
      "outputs": [],
      "stateMutability": "nonpayable",
      "type": "function"
    },
    {
      "inputs": [
        {
          "internalType": "uint256",
          "name": "requestId",
          "type": "uint256"
        },
        {
          "internalType": "uint256[]",
          "name": "randomWords",
          "type": "uint256[]"
        }
      ],
      "name": "fulfillRandomWords",
      "outputs": [],
      "stateMutability": "nonpayable",
      "type": "function"
    },
    {
      "inputs": [
        {
          "internalType": "uint256",
          "name": "_tokenId",
          "type": "uint256"
        }
      ],
      "name": "getContentCategories",
      "outputs": [
        {
          "components": [
            {
              "internalType": "uint256",
              "name": "id",
              "type": "uint256"
            },
            {
              "internalType": "uint256",
              "name": "contentAmountsTotalWeight",
              "type": "uint256"
            },
            {
              "internalType": "uint256",
              "name": "contentsTotalWeight",
              "type": "uint256"
            },
            {
              "internalType": "uint256[]",
              "name": "contentAmounts",
              "type": "uint256[]"
            },
            {
              "internalType": "uint256[]",
              "name": "contentAmountsWeights",
              "type": "uint256[]"
            },
            {
              "internalType": "uint256[]",
              "name": "tokenAmounts",
              "type": "uint256[]"
            },
            {
              "internalType": "uint256[]",
              "name": "tokenWeights",
              "type": "uint256[]"
            },
            {
              "internalType": "address[]",
              "name": "tokens",
              "type": "address[]"
            },
            {
              "internalType": "uint256[]",
              "name": "tokenIds",
              "type": "uint256[]"
            }
          ],
          "internalType": "struct IGenericBurn.ContentCategory[]",
          "name": "_categories",
          "type": "tuple[]"
        }
      ],
      "stateMutability": "view",
      "type": "function"
    },
    {
      "inputs": [],
      "name": "initialize",
      "outputs": [],
      "stateMutability": "nonpayable",
      "type": "function"
    },
    {
      "inputs": [],
      "name": "owner",
      "outputs": [
        {
          "internalType": "address",
          "name": "",
          "type": "address"
        }
      ],
      "stateMutability": "view",
      "type": "function"
    },
    {
      "inputs": [],
      "name": "renounceOwnership",
      "outputs": [],
      "stateMutability": "nonpayable",
      "type": "function"
    },
    {
      "inputs": [
        {
          "internalType": "uint256",
          "name": "_tokenId",
          "type": "uint256"
        },
        {
          "internalType": "uint256",
          "name": "_categoryId",
          "type": "uint256"
        },
        {
          "internalType": "uint256[]",
          "name": "_amounts",
          "type": "uint256[]"
        },
        {
          "internalType": "uint256[]",
          "name": "_weights",
          "type": "uint256[]"
        }
      ],
      "name": "setContentAmounts",
      "outputs": [],
      "stateMutability": "nonpayable",
      "type": "function"
    },
    {
      "inputs": [
        {
          "internalType": "uint256",
          "name": "_tokenId",
          "type": "uint256"
        },
        {
          "internalType": "uint256",
          "name": "_categoryId",
          "type": "uint256"
        },
        {
          "internalType": "address",
          "name": "_conditionalProvider",
          "type": "address"
        }
      ],
      "name": "setContentEligibility",
      "outputs": [],
      "stateMutability": "nonpayable",
      "type": "function"
    },
    {
      "inputs": [
        {
          "internalType": "uint256",
          "name": "_tokenId",
          "type": "uint256"
        },
        {
          "internalType": "uint256",
          "name": "_categoryId",
          "type": "uint256"
        },
        {
          "internalType": "address[]",
          "name": "_tokens",
          "type": "address[]"
        },
        {
          "internalType": "uint256[]",
          "name": "_tokenIds",
          "type": "uint256[]"
        },
        {
          "internalType": "uint256[]",
          "name": "_amounts",
          "type": "uint256[]"
        },
        {
          "internalType": "uint256[]",
          "name": "_weights",
          "type": "uint256[]"
        }
      ],
      "name": "setContents",
      "outputs": [],
      "stateMutability": "nonpayable",
      "type": "function"
    },
    {
      "inputs": [
        {
          "internalType": "address",
          "name": "_governance",
          "type": "address"
        }
      ],
      "name": "setGovernance",
      "outputs": [],
      "stateMutability": "nonpayable",
      "type": "function"
    },
    {
      "inputs": [
        {
          "internalType": "address",
          "name": "_gravityGrade",
          "type": "address"
        }
      ],
      "name": "setGravityGrade",
      "outputs": [],
      "stateMutability": "nonpayable",
      "type": "function"
    },
    {
      "inputs": [
        {
          "internalType": "uint256",
          "name": "_tokenId",
          "type": "uint256"
        },
        {
          "internalType": "uint32",
          "name": "_maxDraws",
          "type": "uint32"
        }
      ],
      "name": "setMaxDraws",
      "outputs": [],
      "stateMutability": "nonpayable",
      "type": "function"
    },
    {
      "inputs": [
        {
          "internalType": "address",
          "name": "_vrfOracle",
          "type": "address"
        }
      ],
      "name": "setVRFOracle",
      "outputs": [],
      "stateMutability": "nonpayable",
      "type": "function"
    },
    {
      "inputs": [
        {
          "internalType": "address",
          "name": "newOwner",
          "type": "address"
        }
      ],
      "name": "transferOwnership",
      "outputs": [],
      "stateMutability": "nonpayable",
      "type": "function"
    },
    {
      "inputs": [
        {
          "internalType": "uint256",
          "name": "_tokenId",
          "type": "uint256"
        },
        {
          "internalType": "bool",
          "name": "_isWhitelisted",
          "type": "bool"
        }
      ],
      "name": "whitelistToken",
      "outputs": [],
      "stateMutability": "nonpayable",
      "type": "function"
    }
  ],
  "bytecode": "0x608060405234801561001057600080fd5b50613324806100206000396000f3fe608060405234801561001057600080fd5b506004361061010b5760003560e01c8063958c787c116100a2578063ae9d79c711610071578063ae9d79c7146101fe578063d2bdaccb14610211578063d5723df714610224578063f229f21314610237578063f2fde38b1461025857600080fd5b8063958c787c146101b257806398791ad2146101c5578063a4d34d90146101d8578063ab033ea9146101eb57600080fd5b8063715018a6116100de578063715018a61461015e5780637b757ac5146101665780638129fc1c1461018f5780638da5cb5b1461019757600080fd5b806338ba461414610110578063397527b3146101255780633b940353146101385780635e9d32161461014b575b600080fd5b61012361011e366004612ab8565b61026b565b005b610123610133366004612b90565b610945565b610123610146366004612bd9565b6109e9565b610123610159366004612c19565b610e2e565b610123610e9c565b610179610174366004612c45565b610ed2565b6040516101869190612cd2565b60405180910390f35b61012361117d565b6033546040516001600160a01b039091168152602001610186565b6101236101c0366004612dfe565b6111f1565b6101236101d3366004612e7f565b611343565b6101236101e6366004612f02565b61161a565b6101236101f9366004612fdc565b611a49565b61012361020c366004612ff7565b611ab1565b61012361021f366004612fdc565b611e5e565b610123610232366004612fdc565b611ed1565b61024a610245366004612c45565b611f6b565b604051908152602001610186565b610123610266366004612fdc565b6121ea565b606c546001600160a01b0316331461029657604051630914e13560e41b815260040160405180910390fd5b6040805160a0810182526000848152606e6020908152838220546001600160a01b03168352858252606d8152838220548184015285825260708152838220548385015285825260718152838220546060840152858252606f8152838220805485518184028101840190965280865292946080850193909283018282801561033c57602002820191906000526020600020905b815481526020019060010190808311610328575b505050505081525090506000816060015167ffffffffffffffff81111561036557610365612aa2565b60405190808252806020026020018201604052801561038e578160200160208202803683370190505b50905060005b826060015181101561041e57836000815181106103b3576103b3613019565b6020026020010151816040516020016103d6929190918252602082015260400190565b6040516020818303038152906040528051906020012060001c82828151811061040157610401613019565b60209081029190910101528061041681613045565b915050610394565b5060006067600084602001518152602001908152602001600020805480602002602001604051908101604052809291908181526020016000905b828210156106c3578382906000526020600020906009020160405180610120016040529081600082015481526020016001820154815260200160028201548152602001600382018054806020026020016040519081016040528092919081815260200182805480156104e957602002820191906000526020600020905b8154815260200190600101908083116104d5575b505050505081526020016004820180548060200260200160405190810160405280929190818152602001828054801561054157602002820191906000526020600020905b81548152602001906001019080831161052d575b505050505081526020016005820180548060200260200160405190810160405280929190818152602001828054801561059957602002820191906000526020600020905b815481526020019060010190808311610585575b50505050508152602001600682018054806020026020016040519081016040528092919081815260200182805480156105f157602002820191906000526020600020905b8154815260200190600101908083116105dd575b505050505081526020016007820180548060200260200160405190810160405280929190818152602001828054801561065357602002820191906000526020600020905b81546001600160a01b03168152600190910190602001808311610635575b50505050508152602001600882018054806020026020016040519081016040528092919081815260200182805480156106ab57602002820191906000526020600020905b815481526020019060010190808311610697575b50505050508152505081526020019060010190610458565b50505050905060005b81518110156108f0576000805b85608001515181101561074357856080015181815181106106fc576106fc613019565b602002602001015184848151811061071657610716613019565b60200260200101516000015114156107315760019150610743565b8061073b81613045565b9150506106d9565b50801561075057506108de565b60005b85604001518110156108db57600084848151811061077357610773613019565b60200260200101516020015186838151811061079157610791613019565b60200260200101516107a39190613076565b905060006107ce8686815181106107bc576107bc613019565b60200260200101516080015183612282565b905060008686815181106107e4576107e4613019565b602002602001015160600151828151811061080157610801613019565b6020026020010151905060005b818110156108c457600088888151811061082a5761082a613019565b6020026020010151604001518a838151811061084857610848613019565b602002602001015161085a9190613076565b905060006108858a8a8151811061087357610873613019565b602002602001015160c0015183612282565b90506108af8c600001518b8b815181106108a1576108a1613019565b602002602001015183612333565b505080806108bc90613045565b91505061080e565b5050505080806108d390613045565b915050610753565b50505b806108e881613045565b9150506106cc565b506000858152606e6020908152604080832080546001600160a01b0319169055606d82528083208390556070825280832083905560718252808320839055606f909152812061093e91612901565b5050505050565b6033546001600160a01b0316331480159061096b57506074546001600160a01b03163314155b156109905760405163171140f960e11b81523360048201526024015b60405180910390fd5b600082815260726020908152604091829020805460ff19168415159081179091558251858152918201527fccea88f3d5e9a975a7ad37fd18a621738eb337d250d3ab9dc786e9919335dac2910160405180910390a15050565b60008381526072602052604090205460ff16610a1b5760405163350a511560e01b815260048101849052602401610987565b600083815260656020908152604080832080548251818502810185019093528083529192909190830182828015610a7157602002820191906000526020600020905b815481526020019060010190808311610a5d575b505050505090506000815167ffffffffffffffff811115610a9457610a94612aa2565b604051908082528060200260200182016040528015610abd578160200160208202803683370190505b5090506000610ad2868663ffffffff166124a9565b60005b8351811015610c4e576000878152606a6020526040812085518290879085908110610b0257610b02613019565b6020908102919091018101518252810191909152604001600020546001600160a01b031614610c3c576000878152606a6020526040812085518290879085908110610b4f57610b4f613019565b6020908102919091018101518252810191909152604001600020546001600160a01b03169050851580610bf657506040516366e305fd60e01b81523360048201526001600160a01b038216906366e305fd9060240160206040518083038186803b158015610bbc57600080fd5b505afa158015610bd0573d6000803e3d6000fd5b505050506040513d601f19601f82011682018060405250810190610bf4919061308a565b155b15610c3a57848281518110610c0d57610c0d613019565b6020026020010151848481518110610c2757610c27613019565b6020026020010181815250508260010192505b505b80610c4681613045565b915050610ad5565b506000868152606b602052604081205463ffffffff90811690871611610c88576000878152606b602052604090205463ffffffff16610c8a565b855b606c546040516389e433dd60e01b8152600160048201529192506000916001600160a01b03909116906389e433dd90602401602060405180830381600087803b158015610cd657600080fd5b505af1158015610cea573d6000803e3d6000fd5b505050506040513d601f19601f82011682018060405250810190610d0e91906130a7565b6000818152606e6020908152604080832080546001600160a01b03191633179055606d82528083208c90556070825280832063ffffffff808d169091556071909252822090851690559091505b8451811015610dd957848181518110610d7657610d76613019565b6020026020010151600014610dc7576000828152606f602052604090208551869083908110610da757610da7613019565b602090810291909101810151825460018101845560009384529190922001555b80610dd181613045565b915050610d5b565b5060408051338152602081018a905263ffffffff8916918101919091527fb2be96a7c4c0c849d488e59e1ce5806d27f28dfb8ffc250f4f41666071ce96c7906060015b60405180910390a15050505050505050565b6033546001600160a01b03163314801590610e5457506074546001600160a01b03163314155b15610e745760405163171140f960e11b8152336004820152602401610987565b6000918252606b6020526040909120805463ffffffff191663ffffffff909216919091179055565b6033546001600160a01b03163314610ec65760405162461bcd60e51b8152600401610987906130c0565b610ed06000612518565b565b606060676000838152602001908152602001600020805480602002602001604051908101604052809291908181526020016000905b8282101561117257838290600052602060002090600902016040518061012001604052908160008201548152602001600182015481526020016002820154815260200160038201805480602002602001604051908101604052809291908181526020018280548015610f9857602002820191906000526020600020905b815481526020019060010190808311610f84575b5050505050815260200160048201805480602002602001604051908101604052809291908181526020018280548015610ff057602002820191906000526020600020905b815481526020019060010190808311610fdc575b505050505081526020016005820180548060200260200160405190810160405280929190818152602001828054801561104857602002820191906000526020600020905b815481526020019060010190808311611034575b50505050508152602001600682018054806020026020016040519081016040528092919081815260200182805480156110a057602002820191906000526020600020905b81548152602001906001019080831161108c575b505050505081526020016007820180548060200260200160405190810160405280929190818152602001828054801561110257602002820191906000526020600020905b81546001600160a01b031681526001909101906020018083116110e4575b505050505081526020016008820180548060200260200160405190810160405280929190818152602001828054801561115a57602002820191906000526020600020905b815481526020019060010190808311611146575b50505050508152505081526020019060010190610f07565b505050509050919050565b600054610100900460ff1680611196575060005460ff16155b6111b25760405162461bcd60e51b8152600401610987906130f5565b600054610100900460ff161580156111d4576000805461ffff19166101011790555b6111dc61256a565b80156111ee576000805461ff00191690555b50565b6033546001600160a01b0316331480159061121757506074546001600160a01b03163314155b156112375760405163171140f960e11b8152336004820152602401610987565b611248816301ffc9a760e01b6125d1565b15806112625750611260816366e305fd60e01b6125d1565b155b1561128b57604051630305222d60e31b81526001600160a01b0382166004820152602401610987565b600083815260686020908152604080832085845290915290205460ff166112c85760405163dd60e8f560e01b815260048101839052602401610987565b6000838152606a6020908152604080832085845282529182902080546001600160a01b0319166001600160a01b0385169081179091558251868152918201859052918101919091527fbb306d02c9d0b40b4f72a2aa2aac49b30a745753cb565f45135aeff06139d190906060015b60405180910390a1505050565b6033546001600160a01b0316331480159061136957506074546001600160a01b03163314155b156113895760405163171140f960e11b8152336004820152602401610987565b600086815260686020908152604080832088845290915290205460ff166113c65760405163dd60e8f560e01b815260048101869052602401610987565b8281146113e657604051632b1b1aa960e11b815260040160405180910390fd5b6000805b828110156114cd5783838281811061140457611404613019565b905060200201356000141561142c576040516329ce1cfd60e11b815260040160405180910390fd5b6000888152606b602052604090205463ffffffff1686868381811061145357611453613019565b9050602002013511156114955785858281811061147257611472613019565b90506020020135604051631f6e85f160e21b815260040161098791815260200190565b8383828181106114a7576114a7613019565b90506020020135826114b99190613143565b9150806114c581613045565b9150506113ea565b5060008781526069602090815260408083208984528252808320548a845260679092529091208054879187918490811061150957611509613019565b9060005260206000209060090201600301919061152792919061291f565b506115648484808060200260200160405190810160405280939291908181526020018383602002808284376000920191909152506125f492505050565b600089815260676020526040902080548390811061158457611584613019565b906000526020600020906009020160040190805190602001906115a892919061296a565b5060008881526067602052604090208054839190839081106115cc576115cc613019565b9060005260206000209060090201600101819055507f814996011bb4cd2378f1e8c8efb2e4cc9dbed02a9d5b2bcb46e04ec3d7ec4b6c888888888888604051610e1c96959493929190613191565b6033546001600160a01b0316331480159061164057506074546001600160a01b03163314155b156116605760405163171140f960e11b8152336004820152602401610987565b60008a81526068602090815260408083208c845290915290205460ff1661169d5760405163dd60e8f560e01b8152600481018a9052602401610987565b82811415806116ac5750828714155b806116b75750828514155b156116d557604051632b1b1aa960e11b815260040160405180910390fd5b6000805b82811015611856578383828181106116f3576116f3613019565b905060200201356000141561171b576040516329ce1cfd60e11b815260040160405180910390fd5b85858281811061172d5761172d613019565b90506020020135600014156117555760405163a4003c9d60e01b815260040160405180910390fd5b61178c8a8a8381811061176a5761176a613019565b905060200201602081019061177f9190612fdc565b6380ac58cd60e01b6125d1565b1580156117cd57506117cb8a8a838181106117a9576117a9613019565b90506020020160208101906117be9190612fdc565b636cdb3d1360e11b6125d1565b155b1561181e578989828181106117e4576117e4613019565b90506020020160208101906117f99190612fdc565b6040516307c4980560e31b81526001600160a01b039091166004820152602401610987565b83838281811061183057611830613019565b90506020020135826118429190613143565b91508061184e81613045565b9150506116d9565b5060008b81526069602090815260408083208d84528252808320548e845260679092529091208054879187918490811061189257611892613019565b906000526020600020906009020160050191906118b092919061291f565b506118ed8484808060200260200160405190810160405280939291908181526020018383602002808284376000920191909152506125f492505050565b60008d815260676020526040902080548390811061190d5761190d613019565b9060005260206000209060090201600601908051906020019061193192919061296a565b5060008c815260676020526040902080548391908390811061195557611955613019565b9060005260206000209060090201600201819055508989606760008f8152602001908152602001600020838154811061199057611990613019565b906000526020600020906009020160070191906119ae9291906129a5565b5060008c8152606760205260409020805489918991849081106119d3576119d3613019565b906000526020600020906009020160080191906119f192919061291f565b507f114056994cfa06f306aafe84110c5484c0cae4a55c5e62c5a20f07b9bfd2099e8c8c8c8c8c8c8c8c8c8c604051611a339a999897969594939291906131d1565b60405180910390a1505050505050505050505050565b6033546001600160a01b03163314801590611a6f57506074546001600160a01b03163314155b15611a8f5760405163171140f960e11b8152336004820152602401610987565b607480546001600160a01b0319166001600160a01b0392909216919091179055565b6033546001600160a01b03163314801590611ad757506074546001600160a01b03163314155b15611af75760405163171140f960e11b8152336004820152602401610987565b600082815260686020908152604080832084845290915290205460ff16611b345760405163dd60e8f560e01b815260048101829052602401610987565b6000828152606960209081526040808320848452909152902054805b600084815260676020526040902054611b6b90600190613272565b811015611d37576000848152606760205260409020611b8b826001613143565b81548110611b9b57611b9b613019565b9060005260206000209060090201606760008681526020019081526020016000208281548110611bcd57611bcd613019565b90600052602060002090600902016000820154816000015560018201548160010155600282015481600201556003820181600301908054611c0f9291906129f8565b5060048281018054611c2492840191906129f8565b5060058281018054611c3992840191906129f8565b5060068281018054611c4e92840191906129f8565b5060078281018054611c6392840191906129f8565b5060088281018054611c7892840191906129f8565b5050506000848152606560205260409020611c94826001613143565b81548110611ca457611ca4613019565b9060005260206000200154606560008681526020019081526020016000208281548110611cd357611cd3613019565b6000918252602080832090910192909255858152606982526040808220606790935281208054849392919084908110611d0e57611d0e613019565b600091825260208083206009909202909101548352820192909252604001902055600101611b50565b5060008381526068602090815260408083208584528252808320805460ff1916905585835260659091529020805480611d7257611d72613289565b6001900381819060005260206000200160009055905560676000848152602001908152602001600020805480611daa57611daa613289565b600082815260208120600960001990930192830201818155600181018290556002810182905590611dde6003830182612901565b611dec600483016000612901565b611dfa600583016000612901565b611e08600683016000612901565b611e16600783016000612901565b611e24600883016000612901565b5050905560408051848152602081018490527ff67e86d3ffc2c26729aac7f4e3e07e009ad076ace7cd9e9fc184fd452ac0cc859101611336565b6033546001600160a01b03163314611e885760405162461bcd60e51b8152600401610987906130c0565b6001600160a01b038116611eaf57604051630ceef40f60e01b815260040160405180910390fd5b606c80546001600160a01b0319166001600160a01b0392909216919091179055565b6033546001600160a01b03163314801590611ef757506074546001600160a01b03163314155b15611f175760405163171140f960e11b8152336004820152602401610987565b607380546001600160a01b0319166001600160a01b0383169081179091556040519081527f0ddd1887dc6c64ea8073b1304124eaab1edf388b573b083c084c6afeaee18ffe9060200160405180910390a150565b6000611f7f6033546001600160a01b031690565b6001600160a01b0316336001600160a01b031614158015611fab57506074546001600160a01b03163314155b15611fcb5760405163171140f960e11b8152336004820152602401610987565b506000818152606660209081526040808320805460019081019182905560678452828520835161012081018552838152808601878152818601888152865189815280890188526060840190815287518a8152808a018952608085015287518a8152808a01895260a085015287518a8152808a01895260c085015287518a8152808a01895260e085015287518a8152808a019098526101008401979097528354808601855593895297879020825160099094020192835551928201929092559451600286015591518051919492936120aa9260038501929091019061296a565b50608082015180516120c691600484019160209091019061296a565b5060a082015180516120e291600584019160209091019061296a565b5060c082015180516120fe91600684019160209091019061296a565b5060e0820151805161211a916007840191602090910190612a38565b50610100820151805161213791600884019160209091019061296a565b5050506000828152606560209081526040808320805460018181018355918552838520018590558584526067909252909120546121749190613272565b600083815260696020908152604080832085845282528083209390935584825260688152828220848352815290829020805460ff1916600117905581518481529081018390527f9f4d7f7447f9bb565bf98fe5d5442cc8b4599804b10defa802044807b60c0633910160405180910390a1919050565b6033546001600160a01b031633146122145760405162461bcd60e51b8152600401610987906130c0565b6001600160a01b0381166122795760405162461bcd60e51b815260206004820152602660248201527f4f776e61626c653a206e6577206f776e657220697320746865207a65726f206160448201526564647265737360d01b6064820152608401610987565b6111ee81612518565b600080600080855190505b808310156122db5761229f8382612700565b91508582815181106122b3576122b3613019565b60200260200101518510156122c957508061228d565b6122d4826001613143565b925061228d565b60008311801561230d575084866122f3600186613272565b8151811061230357612303613019565b6020026020010151145b156123275761231d600184613272565b935050505061232d565b50909150505b92915050565b8160e00151818151811061234957612349613019565b60200260200101516001600160a01b03166353674f0e84846101000151848151811061237757612377613019565b60200260200101518560a00151858151811061239557612395613019565b60209081029190910101516040516001600160e01b031960e086901b1681526001600160a01b03909316600484015260248301919091526044820152606401600060405180830381600087803b1580156123ee57600080fd5b505af1158015612402573d6000803e3d6000fd5b505050507f88d0322178078e6d39a0e6e081d01db3b0683f645ab2b062942a7382ab571d2b8260e00151828151811061243d5761243d613019565b6020026020010151836101000151838151811061245c5761245c613019565b60200260200101518460a00151848151811061247a5761247a613019565b602090810291909101810151604080516001600160a01b03909516855291840192909252820152606001611336565b607354604051637a94c56560e11b815233600482015260248101849052604481018390526001600160a01b039091169063f5298aca90606401600060405180830381600087803b1580156124fc57600080fd5b505af1158015612510573d6000803e3d6000fd5b505050505050565b603380546001600160a01b038381166001600160a01b0319831681179093556040519116919082907f8be0079c531659141344cd1fd0a4f28419497f9722a3daafe3b4186f6b6457e090600090a35050565b600054610100900460ff1680612583575060005460ff16155b61259f5760405162461bcd60e51b8152600401610987906130f5565b600054610100900460ff161580156125c1576000805461ffff19166101011790555b6125c961271b565b6111dc612785565b60006125dc836127e5565b80156125ed57506125ed8383612818565b9392505050565b6060815167ffffffffffffffff81111561261057612610612aa2565b604051908082528060200260200182016040528015612639578160200160208202803683370190505b5090508160008151811061264f5761264f613019565b60200260200101518160008151811061266a5761266a613019565b602090810291909101015260015b82518110156126fa5782818151811061269357612693613019565b6020026020010151826001836126a99190613272565b815181106126b9576126b9613019565b60200260200101516126cb9190613143565b8282815181106126dd576126dd613019565b6020908102919091010152806126f281613045565b915050612678565b50919050565b600061270f600284841861329f565b6125ed90848416613143565b600054610100900460ff1680612734575060005460ff16155b6127505760405162461bcd60e51b8152600401610987906130f5565b600054610100900460ff161580156111dc576000805461ffff191661010117905580156111ee576000805461ff001916905550565b600054610100900460ff168061279e575060005460ff16155b6127ba5760405162461bcd60e51b8152600401610987906130f5565b600054610100900460ff161580156127dc576000805461ffff19166101011790555b6111dc33612518565b60006127f8826301ffc9a760e01b612818565b801561232d5750612811826001600160e01b0319612818565b1592915050565b604080516001600160e01b0319831660248083019190915282518083039091018152604490910182526020810180516001600160e01b03166301ffc9a760e01b179052905160009190829081906001600160a01b038716906175309061287f9086906132b3565b6000604051808303818686fa925050503d80600081146128bb576040519150601f19603f3d011682016040523d82523d6000602084013e6128c0565b606091505b50915091506020815110156128db576000935050505061232d565b8180156128f75750808060200190518101906128f7919061308a565b9695505050505050565b50805460008255906000526020600020908101906111ee9190612a8d565b82805482825590600052602060002090810192821561295a579160200282015b8281111561295a57823582559160200191906001019061293f565b50612966929150612a8d565b5090565b82805482825590600052602060002090810192821561295a579160200282015b8281111561295a57825182559160200191906001019061298a565b82805482825590600052602060002090810192821561295a579160200282015b8281111561295a5781546001600160a01b0319166001600160a01b038435161782556020909201916001909101906129c5565b82805482825590600052602060002090810192821561295a5760005260206000209182015b8281111561295a578254825591600101919060010190612a1d565b82805482825590600052602060002090810192821561295a579160200282015b8281111561295a57825182546001600160a01b0319166001600160a01b03909116178255602090920191600190910190612a58565b5b808211156129665760008155600101612a8e565b634e487b7160e01b600052604160045260246000fd5b60008060408385031215612acb57600080fd5b8235915060208084013567ffffffffffffffff80821115612aeb57600080fd5b818601915086601f830112612aff57600080fd5b813581811115612b1157612b11612aa2565b8060051b604051601f19603f83011681018181108582111715612b3657612b36612aa2565b604052918252848201925083810185019189831115612b5457600080fd5b938501935b82851015612b7257843584529385019392850192612b59565b8096505050505050509250929050565b80151581146111ee57600080fd5b60008060408385031215612ba357600080fd5b823591506020830135612bb581612b82565b809150509250929050565b803563ffffffff81168114612bd457600080fd5b919050565b600080600060608486031215612bee57600080fd5b83359250612bfe60208501612bc0565b91506040840135612c0e81612b82565b809150509250925092565b60008060408385031215612c2c57600080fd5b82359150612c3c60208401612bc0565b90509250929050565b600060208284031215612c5757600080fd5b5035919050565b600081518084526020808501945080840160005b83811015612c8e57815187529582019590820190600101612c72565b509495945050505050565b600081518084526020808501945080840160005b83811015612c8e5781516001600160a01b031687529582019590820190600101612cad565b60006020808301818452808551808352604092508286019150828160051b87010184880160005b83811015612dd957603f19898403018552815161012081518552888201518986015287820151888601526060808301518282880152612d3a83880182612c5e565b9250505060808083015186830382880152612d558382612c5e565b9250505060a08083015186830382880152612d708382612c5e565b9250505060c08083015186830382880152612d8b8382612c5e565b9250505060e08083015186830382880152612da68382612c99565b925050506101008083015192508582038187015250612dc58183612c5e565b968901969450505090860190600101612cf9565b509098975050505050505050565b80356001600160a01b0381168114612bd457600080fd5b600080600060608486031215612e1357600080fd5b8335925060208401359150612e2a60408501612de7565b90509250925092565b60008083601f840112612e4557600080fd5b50813567ffffffffffffffff811115612e5d57600080fd5b6020830191508360208260051b8501011115612e7857600080fd5b9250929050565b60008060008060008060808789031215612e9857600080fd5b8635955060208701359450604087013567ffffffffffffffff80821115612ebe57600080fd5b612eca8a838b01612e33565b90965094506060890135915080821115612ee357600080fd5b50612ef089828a01612e33565b979a9699509497509295939492505050565b60008060008060008060008060008060c08b8d031215612f2157600080fd5b8a35995060208b0135985060408b013567ffffffffffffffff80821115612f4757600080fd5b612f538e838f01612e33565b909a50985060608d0135915080821115612f6c57600080fd5b612f788e838f01612e33565b909850965060808d0135915080821115612f9157600080fd5b612f9d8e838f01612e33565b909650945060a08d0135915080821115612fb657600080fd5b50612fc38d828e01612e33565b915080935050809150509295989b9194979a5092959850565b600060208284031215612fee57600080fd5b6125ed82612de7565b6000806040838503121561300a57600080fd5b50508035926020909101359150565b634e487b7160e01b600052603260045260246000fd5b634e487b7160e01b600052601160045260246000fd5b60006000198214156130595761305961302f565b5060010190565b634e487b7160e01b600052601260045260246000fd5b60008261308557613085613060565b500690565b60006020828403121561309c57600080fd5b81516125ed81612b82565b6000602082840312156130b957600080fd5b5051919050565b6020808252818101527f4f776e61626c653a2063616c6c6572206973206e6f7420746865206f776e6572604082015260600190565b6020808252602e908201527f496e697469616c697a61626c653a20636f6e747261637420697320616c72656160408201526d191e481a5b9a5d1a585b1a5e995960921b606082015260800190565b600082198211156131565761315661302f565b500190565b81835260006001600160fb1b0383111561317457600080fd5b8260051b8083602087013760009401602001938452509192915050565b8681528560208201526080604082015260006131b160808301868861315b565b82810360608401526131c481858761315b565b9998505050505050505050565b8a815260208082018b905260c06040830181905282018990526000908a9060e08401835b8c811015613221576001600160a01b0361320e85612de7565b16825292820192908201906001016131f5565b508481036060860152613235818b8d61315b565b92505050828103608084015261324c81878961315b565b905082810360a084015261326181858761315b565b9d9c50505050505050505050505050565b6000828210156132845761328461302f565b500390565b634e487b7160e01b600052603160045260246000fd5b6000826132ae576132ae613060565b500490565b6000825160005b818110156132d457602081860181015185830152016132ba565b818111156132e3576000828501525b50919091019291505056fea26469706673582212209451e4183bcc071a8f2c7007627319aed4a6b3b318c8a5042367478bcefdce7564736f6c63430008080033",
  "linkReferences": {},
  "deployedLinkReferences": {}
}