{
  "_format": "hh-sol-artifact-1",
  "contractName": "GravityGrade",
  "sourceName": "contracts/gravity_grade/GravityGrade.sol",
  "abi": [
    {
      "inputs": [
        {
          "internalType": "address",
          "name": "_address",
          "type": "address"
        }
      ],
      "name": "GravityGrade__CurrencyNotWhitelisted",
      "type": "error"
    },
    {
      "inputs": [
        {
          "internalType": "uint256",
          "name": "_value",
          "type": "uint256"
        },
        {
          "internalType": "uint256",
          "name": "_required",
          "type": "uint256"
        }
      ],
      "name": "GravityGrade__InsufficientEthValue",
      "type": "error"
    },
    {
      "inputs": [],
      "name": "GravityGrade__InvalidSaleParameters",
      "type": "error"
    },
    {
      "inputs": [
        {
          "internalType": "uint256",
          "name": "_tokenId",
          "type": "uint256"
        }
      ],
      "name": "GravityGrade__NonExistentSale",
      "type": "error"
    },
    {
      "inputs": [],
      "name": "GravityGrade__NotGovernance",
      "type": "error"
    },
    {
      "inputs": [
        {
          "internalType": "address",
          "name": "_address",
          "type": "address"
        }
      ],
      "name": "GravityGrade__NotTrusted",
      "type": "error"
    },
    {
      "inputs": [
        {
          "internalType": "uint256",
          "name": "_current",
          "type": "uint256"
        },
        {
          "internalType": "uint256",
          "name": "_max",
          "type": "uint256"
        }
      ],
      "name": "GravityGrade__PurchaseExceedsPlayerMax",
      "type": "error"
    },
    {
      "inputs": [
        {
          "internalType": "uint256",
          "name": "_current",
          "type": "uint256"
        },
        {
          "internalType": "uint256",
          "name": "_max",
          "type": "uint256"
        }
      ],
      "name": "GravityGrade__PurchaseExceedsTotalMax",
      "type": "error"
    },
    {
      "inputs": [
        {
          "internalType": "uint256",
          "name": "_saleId",
          "type": "uint256"
        },
        {
          "internalType": "uint256",
          "name": "_price",
          "type": "uint256"
        },
        {
          "internalType": "uint256",
          "name": "_bulkDsc",
          "type": "uint256"
        },
        {
          "internalType": "uint256",
          "name": "_ownershipDsc",
          "type": "uint256"
        }
      ],
      "name": "GravityGrade__RebateTooLarge",
      "type": "error"
    },
    {
      "inputs": [],
      "name": "GravityGrade__RefundFailed",
      "type": "error"
    },
    {
      "inputs": [],
      "name": "GravityGrade__SaleInactive",
      "type": "error"
    },
    {
      "inputs": [
        {
          "internalType": "address",
          "name": "_token",
          "type": "address"
        },
        {
          "internalType": "uint256",
          "name": "_id",
          "type": "uint256"
        }
      ],
      "name": "GravityGrade__SenderDoesNotOwnToken",
      "type": "error"
    },
    {
      "inputs": [
        {
          "internalType": "address",
          "name": "_token",
          "type": "address"
        }
      ],
      "name": "GravityGrade__TokenNotEligibleForRebate",
      "type": "error"
    },
    {
      "inputs": [
        {
          "internalType": "uint256",
          "name": "_tokenId",
          "type": "uint256"
        }
      ],
      "name": "GravityGrade__TokenNotSet",
      "type": "error"
    },
    {
      "inputs": [],
      "name": "GravityGrade__TransferFailed",
      "type": "error"
    },
    {
      "inputs": [
        {
          "internalType": "uint256",
          "name": "_given",
          "type": "uint256"
        },
        {
          "internalType": "uint256",
          "name": "_max",
          "type": "uint256"
        }
      ],
      "name": "GravityGrade__ValueTooLarge",
      "type": "error"
    },
    {
      "inputs": [],
      "name": "GravityGrade__WithdrawalFailed",
      "type": "error"
    },
    {
      "inputs": [],
      "name": "GravityGrade__ZeroAddress",
      "type": "error"
    },
    {
      "inputs": [],
      "name": "GravityGrade__ZeroSaleCap",
      "type": "error"
    },
    {
      "inputs": [],
      "name": "GravityGrade__ZeroUserSaleCap",
      "type": "error"
    },
    {
      "anonymous": false,
      "inputs": [
        {
          "indexed": true,
          "internalType": "address",
          "name": "account",
          "type": "address"
        },
        {
          "indexed": true,
          "internalType": "address",
          "name": "operator",
          "type": "address"
        },
        {
          "indexed": false,
          "internalType": "bool",
          "name": "approved",
          "type": "bool"
        }
      ],
      "name": "ApprovalForAll",
      "type": "event"
    },
    {
      "anonymous": false,
      "inputs": [
        {
          "indexed": false,
          "internalType": "address[]",
          "name": "beneficiaries",
          "type": "address[]"
        },
        {
          "indexed": false,
          "internalType": "uint256[]",
          "name": "basisPoints",
          "type": "uint256[]"
        }
      ],
      "name": "BeneficiariesUpdated",
      "type": "event"
    },
    {
      "anonymous": false,
      "inputs": [
        {
          "indexed": true,
          "internalType": "address",
          "name": "previousOwner",
          "type": "address"
        },
        {
          "indexed": true,
          "internalType": "address",
          "name": "newOwner",
          "type": "address"
        }
      ],
      "name": "OwnershipTransferred",
      "type": "event"
    },
    {
      "anonymous": false,
      "inputs": [
        {
          "indexed": false,
          "internalType": "uint256",
          "name": "saleId",
          "type": "uint256"
        },
        {
          "indexed": false,
          "internalType": "address[]",
          "name": "currencyAddresses",
          "type": "address[]"
        }
      ],
      "name": "PaymentCurrenciesRevoked",
      "type": "event"
    },
    {
      "anonymous": false,
      "inputs": [
        {
          "indexed": false,
          "internalType": "uint256",
          "name": "saleId",
          "type": "uint256"
        },
        {
          "indexed": false,
          "internalType": "address[]",
          "name": "currencyAddresses",
          "type": "address[]"
        }
      ],
      "name": "PaymentCurrenciesSet",
      "type": "event"
    },
    {
      "anonymous": false,
      "inputs": [
        {
          "indexed": false,
          "internalType": "uint256",
          "name": "saleId",
          "type": "uint256"
        }
      ],
      "name": "SaleDeleted",
      "type": "event"
    },
    {
      "anonymous": false,
      "inputs": [
        {
          "indexed": false,
          "internalType": "uint256",
          "name": "saleId",
          "type": "uint256"
        },
        {
          "indexed": false,
          "internalType": "uint256",
          "name": "tokenId",
          "type": "uint256"
        },
        {
          "indexed": false,
          "internalType": "uint256",
          "name": "salePrice",
          "type": "uint256"
        },
        {
          "indexed": false,
          "internalType": "uint256",
          "name": "totalSupply",
          "type": "uint256"
        },
        {
          "indexed": false,
          "internalType": "uint256",
          "name": "userCap",
          "type": "uint256"
        },
        {
          "indexed": false,
          "internalType": "address",
          "name": "defaultCurrency",
          "type": "address"
        }
      ],
      "name": "SaleInfoUpdated",
      "type": "event"
    },
    {
      "anonymous": false,
      "inputs": [
        {
          "indexed": false,
          "internalType": "uint256",
          "name": "saleId",
          "type": "uint256"
        },
        {
          "indexed": false,
          "internalType": "bool",
          "name": "isPaused",
          "type": "bool"
        }
      ],
      "name": "SaleState",
      "type": "event"
    },
    {
      "anonymous": false,
      "inputs": [
        {
          "indexed": true,
          "internalType": "address",
          "name": "operator",
          "type": "address"
        },
        {
          "indexed": true,
          "internalType": "address",
          "name": "from",
          "type": "address"
        },
        {
          "indexed": true,
          "internalType": "address",
          "name": "to",
          "type": "address"
        },
        {
          "indexed": false,
          "internalType": "uint256[]",
          "name": "ids",
          "type": "uint256[]"
        },
        {
          "indexed": false,
          "internalType": "uint256[]",
          "name": "values",
          "type": "uint256[]"
        }
      ],
      "name": "TransferBatch",
      "type": "event"
    },
    {
      "anonymous": false,
      "inputs": [
        {
          "indexed": true,
          "internalType": "address",
          "name": "operator",
          "type": "address"
        },
        {
          "indexed": true,
          "internalType": "address",
          "name": "from",
          "type": "address"
        },
        {
          "indexed": true,
          "internalType": "address",
          "name": "to",
          "type": "address"
        },
        {
          "indexed": false,
          "internalType": "uint256",
          "name": "id",
          "type": "uint256"
        },
        {
          "indexed": false,
          "internalType": "uint256",
          "name": "value",
          "type": "uint256"
        }
      ],
      "name": "TransferSingle",
      "type": "event"
    },
    {
      "anonymous": false,
      "inputs": [
        {
          "indexed": false,
          "internalType": "string",
          "name": "value",
          "type": "string"
        },
        {
          "indexed": true,
          "internalType": "uint256",
          "name": "id",
          "type": "uint256"
        }
      ],
      "name": "URI",
      "type": "event"
    },
    {
      "inputs": [],
      "name": "ADDRESS_ZERO",
      "outputs": [
        {
          "internalType": "address",
          "name": "",
          "type": "address"
        }
      ],
      "stateMutability": "view",
      "type": "function"
    },
    {
      "inputs": [],
      "name": "MAXIMUM_BASIS_POINTS",
      "outputs": [
        {
          "internalType": "uint256",
          "name": "",
          "type": "uint256"
        }
      ],
      "stateMutability": "view",
      "type": "function"
    },
    {
      "inputs": [
        {
          "internalType": "uint256",
          "name": "_saleId",
          "type": "uint256"
        },
        {
          "internalType": "uint256",
          "name": "_breakpoint",
          "type": "uint256"
        },
        {
          "internalType": "uint256",
          "name": "_basisPoints",
          "type": "uint256"
        }
      ],
      "name": "addBulkDiscount",
      "outputs": [],
      "stateMutability": "nonpayable",
      "type": "function"
    },
    {
      "inputs": [
        {
          "internalType": "uint256",
          "name": "_saleId",
          "type": "uint256"
        },
        {
          "components": [
            {
              "internalType": "enum IGravityGrade.TokenType",
              "name": "tokenType",
              "type": "uint8"
            },
            {
              "internalType": "address",
              "name": "tokenAddress",
              "type": "address"
            },
            {
              "internalType": "uint256",
              "name": "tokenId",
              "type": "uint256"
            },
            {
              "internalType": "uint256",
              "name": "basisPoints",
              "type": "uint256"
            }
          ],
          "internalType": "struct IGravityGrade.OwnershipRebate",
          "name": "_info",
          "type": "tuple"
        }
      ],
      "name": "addOwnershipDiscount",
      "outputs": [],
      "stateMutability": "nonpayable",
      "type": "function"
    },
    {
      "inputs": [
        {
          "internalType": "address[]",
          "name": "_recipients",
          "type": "address[]"
        },
        {
          "internalType": "uint256[]",
          "name": "_tokenIds",
          "type": "uint256[]"
        },
        {
          "internalType": "uint256[]",
          "name": "_amounts",
          "type": "uint256[]"
        }
      ],
      "name": "airdrop",
      "outputs": [],
      "stateMutability": "nonpayable",
      "type": "function"
    },
    {
      "inputs": [
        {
          "internalType": "address",
          "name": "account",
          "type": "address"
        },
        {
          "internalType": "uint256",
          "name": "id",
          "type": "uint256"
        }
      ],
      "name": "balanceOf",
      "outputs": [
        {
          "internalType": "uint256",
          "name": "",
          "type": "uint256"
        }
      ],
      "stateMutability": "view",
      "type": "function"
    },
    {
      "inputs": [
        {
          "internalType": "address[]",
          "name": "accounts",
          "type": "address[]"
        },
        {
          "internalType": "uint256[]",
          "name": "ids",
          "type": "uint256[]"
        }
      ],
      "name": "balanceOfBatch",
      "outputs": [
        {
          "internalType": "uint256[]",
          "name": "",
          "type": "uint256[]"
        }
      ],
      "stateMutability": "view",
      "type": "function"
    },
    {
      "inputs": [
        {
          "internalType": "address",
          "name": "_from",
          "type": "address"
        },
        {
          "internalType": "uint256",
          "name": "_tokenId",
          "type": "uint256"
        },
        {
          "internalType": "uint256",
          "name": "_amount",
          "type": "uint256"
        }
      ],
      "name": "burn",
      "outputs": [],
      "stateMutability": "nonpayable",
      "type": "function"
    },
    {
      "inputs": [
        {
          "internalType": "uint256",
          "name": "_saleId",
          "type": "uint256"
        },
        {
          "internalType": "uint256",
          "name": "_numPurchases",
          "type": "uint256"
        },
        {
          "internalType": "uint256",
          "name": "_tokenId",
          "type": "uint256"
        },
        {
          "internalType": "address",
          "name": "_tokenAddress",
          "type": "address"
        },
        {
          "internalType": "address",
          "name": "_currency",
          "type": "address"
        }
      ],
      "name": "buyPacks",
      "outputs": [],
      "stateMutability": "payable",
      "type": "function"
    },
    {
      "inputs": [
        {
          "internalType": "uint256",
          "name": "_saleId",
          "type": "uint256"
        },
        {
          "internalType": "uint256",
          "name": "_numPurchases",
          "type": "uint256"
        },
        {
          "internalType": "address",
          "name": "_currency",
          "type": "address"
        },
        {
          "internalType": "address",
          "name": "_tokenAddress",
          "type": "address"
        }
      ],
      "name": "calculateDiscountedPackPrice",
      "outputs": [
        {
          "components": [
            {
              "internalType": "uint256",
              "name": "originalPrice",
              "type": "uint256"
            },
            {
              "internalType": "uint256",
              "name": "discountedPrice",
              "type": "uint256"
            },
            {
              "internalType": "uint256",
              "name": "purchaseQuantity",
              "type": "uint256"
            },
            {
              "internalType": "address",
              "name": "tokenAddress",
              "type": "address"
            }
          ],
          "internalType": "struct IGravityGrade.Discounts",
          "name": "",
          "type": "tuple"
        }
      ],
      "stateMutability": "nonpayable",
      "type": "function"
    },
    {
      "inputs": [
        {
          "internalType": "uint256",
          "name": "_tokenId",
          "type": "uint256"
        },
        {
          "internalType": "uint256",
          "name": "_salePrice",
          "type": "uint256"
        },
        {
          "internalType": "uint256",
          "name": "_totalSupplyAmountToSell",
          "type": "uint256"
        },
        {
          "internalType": "uint256",
          "name": "_userCap",
          "type": "uint256"
        },
        {
          "internalType": "address",
          "name": "_defaultCurrency",
          "type": "address"
        },
        {
          "internalType": "bool",
          "name": "_profitState",
          "type": "bool"
        }
      ],
      "name": "createNewSale",
      "outputs": [
        {
          "internalType": "uint256",
          "name": "saleId",
          "type": "uint256"
        }
      ],
      "stateMutability": "nonpayable",
      "type": "function"
    },
    {
      "inputs": [
        {
          "internalType": "uint256",
          "name": "_saleId",
          "type": "uint256"
        }
      ],
      "name": "deleteSale",
      "outputs": [],
      "stateMutability": "nonpayable",
      "type": "function"
    },
    {
      "inputs": [],
      "name": "getBeneficiaries",
      "outputs": [
        {
          "components": [
            {
              "internalType": "uint256[]",
              "name": "feeBps",
              "type": "uint256[]"
            },
            {
              "internalType": "address[]",
              "name": "beneficiary",
              "type": "address[]"
            }
          ],
          "internalType": "struct GravityGrade.Beneficiaries",
          "name": "",
          "type": "tuple"
        }
      ],
      "stateMutability": "view",
      "type": "function"
    },
    {
      "inputs": [],
      "name": "getModerator",
      "outputs": [
        {
          "internalType": "address",
          "name": "",
          "type": "address"
        }
      ],
      "stateMutability": "view",
      "type": "function"
    },
    {
      "inputs": [
        {
          "internalType": "uint256",
          "name": "_saleId",
          "type": "uint256"
        }
      ],
      "name": "getSale",
      "outputs": [
        {
          "components": [
            {
              "internalType": "uint256",
              "name": "saleId",
              "type": "uint256"
            },
            {
              "internalType": "uint256",
              "name": "tokenId",
              "type": "uint256"
            },
            {
              "internalType": "uint256",
              "name": "salePrice",
              "type": "uint256"
            },
            {
              "internalType": "uint256",
              "name": "totalSupply",
              "type": "uint256"
            },
            {
              "internalType": "uint256",
              "name": "userCap",
              "type": "uint256"
            },
            {
              "internalType": "address",
              "name": "defaultCurrency",
              "type": "address"
            },
            {
              "internalType": "bool",
              "name": "profitState",
              "type": "bool"
            }
          ],
          "internalType": "struct GravityGrade.Sale",
          "name": "",
          "type": "tuple"
        }
      ],
      "stateMutability": "view",
      "type": "function"
    },
    {
      "inputs": [],
      "name": "getSaleId",
      "outputs": [
        {
          "internalType": "uint256",
          "name": "",
          "type": "uint256"
        }
      ],
      "stateMutability": "view",
      "type": "function"
    },
    {
      "inputs": [
        {
          "internalType": "uint256",
          "name": "_saleId",
          "type": "uint256"
        }
      ],
      "name": "getSaleStatus",
      "outputs": [
        {
          "internalType": "bool",
          "name": "",
          "type": "bool"
        }
      ],
      "stateMutability": "view",
      "type": "function"
    },
    {
      "inputs": [
        {
          "internalType": "address",
          "name": "_trusted",
          "type": "address"
        }
      ],
      "name": "getTrusted",
      "outputs": [
        {
          "internalType": "bool",
          "name": "",
          "type": "bool"
        }
      ],
      "stateMutability": "view",
      "type": "function"
    },
    {
      "inputs": [
        {
          "internalType": "string",
          "name": "_name",
          "type": "string"
        },
        {
          "internalType": "string",
          "name": "_symbol",
          "type": "string"
        }
      ],
      "name": "initialize",
      "outputs": [],
      "stateMutability": "nonpayable",
      "type": "function"
    },
    {
      "inputs": [
        {
          "internalType": "address",
          "name": "account",
          "type": "address"
        },
        {
          "internalType": "address",
          "name": "operator",
          "type": "address"
        }
      ],
      "name": "isApprovedForAll",
      "outputs": [
        {
          "internalType": "bool",
          "name": "",
          "type": "bool"
        }
      ],
      "stateMutability": "view",
      "type": "function"
    },
    {
      "inputs": [
        {
          "internalType": "uint256",
          "name": "_saleId",
          "type": "uint256"
        },
        {
          "internalType": "uint256",
          "name": "_salePrice",
          "type": "uint256"
        },
        {
          "internalType": "uint256",
          "name": "_totalSupplyAmountToSell",
          "type": "uint256"
        },
        {
          "internalType": "uint256",
          "name": "_userCap",
          "type": "uint256"
        },
        {
          "internalType": "address",
          "name": "_defaultCurrency",
          "type": "address"
        },
        {
          "internalType": "bool",
          "name": "_profitState",
          "type": "bool"
        }
      ],
      "name": "modifySale",
      "outputs": [],
      "stateMutability": "nonpayable",
      "type": "function"
    },
    {
      "inputs": [],
      "name": "name",
      "outputs": [
        {
          "internalType": "string",
          "name": "",
          "type": "string"
        }
      ],
      "stateMutability": "view",
      "type": "function"
    },
    {
      "inputs": [
        {
          "internalType": "address",
          "name": "_buyer",
          "type": "address"
        },
        {
          "internalType": "address",
          "name": "_paymentToken",
          "type": "address"
        },
        {
          "internalType": "uint256",
          "name": "_numPurchases",
          "type": "uint256"
        },
        {
          "internalType": "uint256",
          "name": "_saleId",
          "type": "uint256"
        }
      ],
      "name": "onTransakOne",
      "outputs": [],
      "stateMutability": "nonpayable",
      "type": "function"
    },
    {
      "inputs": [],
      "name": "owner",
      "outputs": [
        {
          "internalType": "address",
          "name": "",
          "type": "address"
        }
      ],
      "stateMutability": "view",
      "type": "function"
    },
    {
      "inputs": [
        {
          "internalType": "uint256",
          "name": "_saleId",
          "type": "uint256"
        },
        {
          "internalType": "address[]",
          "name": "_currencyAddresses",
          "type": "address[]"
        }
      ],
      "name": "removePaymentCurrencies",
      "outputs": [],
      "stateMutability": "nonpayable",
      "type": "function"
    },
    {
      "inputs": [],
      "name": "renounceOwnership",
      "outputs": [],
      "stateMutability": "nonpayable",
      "type": "function"
    },
    {
      "inputs": [
        {
          "internalType": "address",
          "name": "from",
          "type": "address"
        },
        {
          "internalType": "address",
          "name": "to",
          "type": "address"
        },
        {
          "internalType": "uint256[]",
          "name": "ids",
          "type": "uint256[]"
        },
        {
          "internalType": "uint256[]",
          "name": "amounts",
          "type": "uint256[]"
        },
        {
          "internalType": "bytes",
          "name": "data",
          "type": "bytes"
        }
      ],
      "name": "safeBatchTransferFrom",
      "outputs": [],
      "stateMutability": "nonpayable",
      "type": "function"
    },
    {
      "inputs": [
        {
          "internalType": "address",
          "name": "from",
          "type": "address"
        },
        {
          "internalType": "address",
          "name": "to",
          "type": "address"
        },
        {
          "internalType": "uint256",
          "name": "id",
          "type": "uint256"
        },
        {
          "internalType": "uint256",
          "name": "amount",
          "type": "uint256"
        },
        {
          "internalType": "bytes",
          "name": "data",
          "type": "bytes"
        }
      ],
      "name": "safeTransferFrom",
      "outputs": [],
      "stateMutability": "nonpayable",
      "type": "function"
    },
    {
      "inputs": [
        {
          "internalType": "uint256",
          "name": "_saleId",
          "type": "uint256"
        },
        {
          "internalType": "address[]",
          "name": "_currencyAddresses",
          "type": "address[]"
        }
      ],
      "name": "setAllowedPaymentCurrencies",
      "outputs": [],
      "stateMutability": "nonpayable",
      "type": "function"
    },
    {
      "inputs": [
        {
          "internalType": "address",
          "name": "operator",
          "type": "address"
        },
        {
          "internalType": "bool",
          "name": "approved",
          "type": "bool"
        }
      ],
      "name": "setApprovalForAll",
      "outputs": [],
      "stateMutability": "nonpayable",
      "type": "function"
    },
    {
      "inputs": [
        {
          "internalType": "address[]",
          "name": "_walletAddresses",
          "type": "address[]"
        },
        {
          "internalType": "uint256[]",
          "name": "_feeBps",
          "type": "uint256[]"
        }
      ],
      "name": "setFeeWalletsAndPercentages",
      "outputs": [],
      "stateMutability": "nonpayable",
      "type": "function"
    },
    {
      "inputs": [
        {
          "internalType": "address",
          "name": "_moderatorAddress",
          "type": "address"
        }
      ],
      "name": "setModerator",
      "outputs": [],
      "stateMutability": "nonpayable",
      "type": "function"
    },
    {
      "inputs": [
        {
          "internalType": "string",
          "name": "_name",
          "type": "string"
        }
      ],
      "name": "setName",
      "outputs": [],
      "stateMutability": "nonpayable",
      "type": "function"
    },
    {
      "inputs": [
        {
          "internalType": "address",
          "name": "_oracleManager",
          "type": "address"
        }
      ],
      "name": "setOracleManager",
      "outputs": [],
      "stateMutability": "nonpayable",
      "type": "function"
    },
    {
      "inputs": [
        {
          "internalType": "uint256",
          "name": "_saleId",
          "type": "uint256"
        },
        {
          "internalType": "bool",
          "name": "_paused",
          "type": "bool"
        }
      ],
      "name": "setSaleState",
      "outputs": [],
      "stateMutability": "nonpayable",
      "type": "function"
    },
    {
      "inputs": [
        {
          "internalType": "address",
          "name": "_swapManager",
          "type": "address"
        }
      ],
      "name": "setSwapManager",
      "outputs": [],
      "stateMutability": "nonpayable",
      "type": "function"
    },
    {
      "inputs": [
        {
          "internalType": "string",
          "name": "_symbol",
          "type": "string"
        }
      ],
      "name": "setSymbol",
      "outputs": [],
      "stateMutability": "nonpayable",
      "type": "function"
    },
    {
      "inputs": [
        {
          "internalType": "uint256",
          "name": "_tokenId",
          "type": "uint256"
        },
        {
          "internalType": "string",
          "name": "_uri",
          "type": "string"
        }
      ],
      "name": "setTokenUri",
      "outputs": [],
      "stateMutability": "nonpayable",
      "type": "function"
    },
    {
      "inputs": [
        {
          "internalType": "address",
          "name": "_trusted",
          "type": "address"
        },
        {
          "internalType": "bool",
          "name": "_isTrusted",
          "type": "bool"
        }
      ],
      "name": "setTrusted",
      "outputs": [],
      "stateMutability": "nonpayable",
      "type": "function"
    },
    {
      "inputs": [
        {
          "internalType": "bytes4",
          "name": "interfaceId",
          "type": "bytes4"
        }
      ],
      "name": "supportsInterface",
      "outputs": [
        {
          "internalType": "bool",
          "name": "",
          "type": "bool"
        }
      ],
      "stateMutability": "view",
      "type": "function"
    },
    {
      "inputs": [],
      "name": "symbol",
      "outputs": [
        {
          "internalType": "string",
          "name": "",
          "type": "string"
        }
      ],
      "stateMutability": "view",
      "type": "function"
    },
    {
      "inputs": [
        {
          "internalType": "address",
          "name": "newOwner",
          "type": "address"
        }
      ],
      "name": "transferOwnership",
      "outputs": [],
      "stateMutability": "nonpayable",
      "type": "function"
    },
    {
      "inputs": [
        {
          "internalType": "uint256",
          "name": "_tokenId",
          "type": "uint256"
        }
      ],
      "name": "uri",
      "outputs": [
        {
          "internalType": "string",
          "name": "",
          "type": "string"
        }
      ],
      "stateMutability": "view",
      "type": "function"
    },
    {
      "inputs": [
        {
          "internalType": "address",
          "name": "_walletAddress",
          "type": "address"
        },
        {
          "internalType": "address",
          "name": "_currency",
          "type": "address"
        }
      ],
      "name": "withdraw",
      "outputs": [],
      "stateMutability": "payable",
      "type": "function"
    }
  ],
  "bytecode": "0x608060405234801561001057600080fd5b50615a1f80620000216000396000f3fe6080604052600436106102665760003560e01c80637d5808a111610144578063c47f0027116100b6578063f242432a1161007a578063f242432a14610818578063f2fde38b14610838578063f32a12ac14610858578063f5298aca14610878578063f940e38514610898578063ff950e87146108ab57600080fd5b8063c47f0027146106e3578063c9f0605514610703578063d254d2c614610723578063d8f6d59614610753578063e985e9c5146107cf57600080fd5b8063929e2e0811610108578063929e2e081461061f57806395d89b411461063f5780639a81b13914610654578063a22cb4651461066a578063b09cba921461068a578063b84c8246146106c357600080fd5b80637d5808a11461057f57806382d397ab1461059f57806385a222ae146105bf5780638da5cb5b146105df578063913b722c146105fd57600080fd5b806348adfbdb116101dd57806358745d0e116101a157806358745d0e146104e05780635cf393e6146104f557806366e7950914610515578063715018a61461052a57806375bba1891461053f5780637a719f0b1461055f57600080fd5b806348adfbdb146104215780634c36e2e9146104535780634cd88b76146104735780634e1273f41461049357806357f7789e146104c057600080fd5b80631884ae1a1161022f5780631884ae1a146103325780631bf2907b146103455780632e92d7f0146103655780632eb2c2d6146103c157806330284efc146103e15780634398e48a1461040157600080fd5b8062fdd58e1461026b57806301ffc9a71461029e57806306fdde03146102ce5780630b0d4a7e146102f05780630e89341c14610312575b600080fd5b34801561027757600080fd5b5061028b610286366004614a72565b6108cb565b6040519081526020015b60405180910390f35b3480156102aa57600080fd5b506102be6102b9366004614ab4565b610967565b6040519015158152602001610295565b3480156102da57600080fd5b506102e36109b7565b6040516102959190614b29565b3480156102fc57600080fd5b5061031061030b366004614b87565b610a45565b005b34801561031e57600080fd5b506102e361032d366004614bd2565b610b95565b610310610340366004614beb565b610c37565b34801561035157600080fd5b50610310610360366004614c41565b610c4c565b34801561037157600080fd5b50610385610380366004614cda565b610d88565b60405161029591908151815260208083015190820152604080830151908201526060918201516001600160a01b03169181019190915260800190565b3480156103cd57600080fd5b506103106103dc366004614e6d565b6110df565b3480156103ed57600080fd5b506103106103fc366004614f1a565b61116f565b34801561040d57600080fd5b5061028b61041c366004614f45565b6111d5565b34801561042d57600080fd5b5060cb546001600160a01b03165b6040516001600160a01b039091168152602001610295565b34801561045f57600080fd5b5061031061046e366004614f45565b6113fa565b34801561047f57600080fd5b5061031061048e366004614fa3565b6115bf565b34801561049f57600080fd5b506104b36104ae366004615006565b611687565b6040516102959190615103565b3480156104cc57600080fd5b506103106104db366004615116565b6117b0565b3480156104ec57600080fd5b5060cc5461028b565b34801561050157600080fd5b50610310610510366004614b87565b611813565b34801561052157600080fd5b5061043b600081565b34801561053657600080fd5b50610310611908565b34801561054b57600080fd5b5061031061055a366004614f1a565b61193e565b34801561056b57600080fd5b5061031061057a366004615152565b6119b1565b34801561058b57600080fd5b5061031061059a36600461517e565b611b3a565b3480156105ab57600080fd5b506103106105ba3660046151b6565b611e8a565b3480156105cb57600080fd5b506103106105da366004615221565b612014565b3480156105eb57600080fd5b506065546001600160a01b031661043b565b34801561060957600080fd5b506106126120e3565b6040516102959190615251565b34801561062b57600080fd5b5061031061063a366004614f1a565b6121ba565b34801561064b57600080fd5b506102e3612220565b34801561066057600080fd5b5061028b61271081565b34801561067657600080fd5b506103106106853660046152b7565b61222d565b34801561069657600080fd5b506102be6106a5366004614f1a565b6001600160a01b0316600090815260d3602052604090205460ff1690565b3480156106cf57600080fd5b506103106106de3660046152e5565b61223c565b3480156106ef57600080fd5b506103106106fe3660046152e5565b612293565b34801561070f57600080fd5b5061031061071e366004614bd2565b6122ea565b34801561072f57600080fd5b506102be61073e366004614bd2565b600090815260d2602052604090205460ff1690565b34801561075f57600080fd5b5061077361076e366004614bd2565b6123fb565b6040516102959190815181526020808301519082015260408083015190820152606080830151908201526080808301519082015260a0808301516001600160a01b03169082015260c09182015115159181019190915260e00190565b3480156107db57600080fd5b506102be6107ea366004615321565b6001600160a01b03918216600090815260986020908152604080832093909416825291909152205460ff1690565b34801561082457600080fd5b5061031061083336600461534f565b6124ba565b34801561084457600080fd5b50610310610853366004614f1a565b612541565b34801561086457600080fd5b506103106108733660046152b7565b6125dc565b34801561088457600080fd5b506103106108933660046153b7565b61264b565b6103106108a6366004615321565b6126c5565b3480156108b757600080fd5b506103106108c63660046153ec565b612928565b60006001600160a01b03831661093c5760405162461bcd60e51b815260206004820152602b60248201527f455243313135353a2062616c616e636520717565727920666f7220746865207a60448201526a65726f206164647265737360a81b60648201526084015b60405180910390fd5b5060008181526097602090815260408083206001600160a01b03861684529091529020545b92915050565b60006001600160e01b03198216636cdb3d1360e11b148061099857506001600160e01b031982166303a24d0760e21b145b8061096157506301ffc9a760e01b6001600160e01b0319831614610961565b60c980546109c490615432565b80601f01602080910402602001604051908101604052809291908181526020018280546109f090615432565b8015610a3d5780601f10610a1257610100808354040283529160200191610a3d565b820191906000526020600020905b815481529060010190602001808311610a2057829003601f168201915b505050505081565b6065546001600160a01b03163314801590610a6b575060cb546001600160a01b03163314155b15610a8957604051630da2c56160e21b815260040160405180910390fd5b60005b81811015610b5457600084815260d66020526040812090848484818110610ab557610ab561546d565b9050602002016020810190610aca9190614f1a565b6001600160a01b0316815260208101919091526040016000205460ff1615610b4457600084815260d66020526040812090848484818110610b0d57610b0d61546d565b9050602002016020810190610b229190614f1a565b6001600160a01b031681526020810191909152604001600020805460ff191690555b610b4d81615499565b9050610a8c565b507fda827d8d6a65133ff8f4bfca80c1394407809197f411f32a90060ee8e3a1e9b0838383604051610b88939291906154f2565b60405180910390a1505050565b600081815260d060205260409020805460609190610bb290615432565b80601f0160208091040260200160405190810160405280929190818152602001828054610bde90615432565b8015610c2b5780601f10610c0057610100808354040283529160200191610c2b565b820191906000526020600020905b815481529060010190602001808311610c0e57829003601f168201915b50505050509050919050565b610c45858585858533612933565b5050505050565b33600090815260d3602052604090205460ff16610c7e57604051633aa16a1360e01b8152336004820152602401610933565b60005b85811015610d7f5760d06000868684818110610c9f57610c9f61546d565b9050602002013581526020019081526020016000208054610cbf90615432565b15159050610cfc57848482818110610cd957610cd961546d565b905060200201356040516317a7841360e11b815260040161093391815260200190565b610d6d878783818110610d1157610d1161546d565b9050602002016020810190610d269190614f1a565b868684818110610d3857610d3861546d565b90506020020135858585818110610d5157610d5161546d565b9050602002013560405180602001604052806000815250612c03565b80610d7781615499565b915050610c81565b50505050505050565b610dbc604051806080016040528060008152602001600081526020016000815260200160006001600160a01b031681525090565b600085815260d160209081526040808320815160e0810183528154815260018201549381019390935260028101549183018290526003810154606084015260048101546080840152600501546001600160a01b03811660a0840152600160a01b900460ff16151560c0830152909190610e36908790615515565b9050610e43878288612d0f565b905060006001600160a01b03851615610fde57600088815260d86020908152604080832080548251818502810185019093528083529192909190849084015b82821015610f24576000848152602090206040805160808101909152600384029091018054829060ff166001811115610ebd57610ebd615534565b6001811115610ece57610ece615534565b81526020016000820160019054906101000a90046001600160a01b03166001600160a01b03166001600160a01b031681526020016001820154815260200160028201548152505081526020019060010190610e82565b5050505090506000805b8251811015610f9f57876001600160a01b0316838281518110610f5357610f5361546d565b6020026020010151602001516001600160a01b03161415610f8f57828181518110610f8057610f8061546d565b60200260200101516060015191505b610f9881615499565b9050610f2e565b508015610fb757610fb08185612e5f565b9250610fdb565b604051633419130560e11b81526001600160a01b0388166004820152602401610933565b50505b60008111610fec5781610fee565b805b91508260a001516001600160a01b0316866001600160a01b0316146110995760d95460a0840151604051632550332960e11b81526001600160a01b0390921691634aa0665291611044918a90879060040161554a565b602060405180830381600087803b15801561105e57600080fd5b505af1158015611072573d6000803e3d6000fd5b505050506040513d601f19601f82011682018060405250810190611096919061556e565b91505b60405180608001604052808885604001516110b49190615515565b8152602001838152602001888152602001866001600160a01b03168152509350505050949350505050565b6001600160a01b0385163314806110fb57506110fb85336107ea565b6111625760405162461bcd60e51b815260206004820152603260248201527f455243313135353a207472616e736665722063616c6c6572206973206e6f74206044820152711bdddb995c881b9bdc88185c1c1c9bdd995960721b6064820152608401610933565b610c458585858585612e8a565b6065546001600160a01b03163314801590611195575060cb546001600160a01b03163314155b156111b357604051630da2c56160e21b815260040160405180910390fd5b60da80546001600160a01b0319166001600160a01b0392909216919091179055565b60006111e96065546001600160a01b031690565b6001600160a01b0316336001600160a01b031614158015611215575060cb546001600160a01b03163314155b1561123357604051630da2c56160e21b815260040160405180910390fd5b8461125157604051632d30d96960e11b815260040160405180910390fd5b8361126f5760405163094d805f60e31b815260040160405180910390fd5b600087815260d060205260409020805461128890615432565b151590506112ac576040516317a7841360e11b815260048101889052602401610933565b60cc8054600091826112bd83615499565b909155506040805160e08101825282815260208082018c81528284018c8152606084018c8152608085018c81526001600160a01b03808d1660a088018181528d151560c08a0190815260008c815260d18a528b81209a518b5597516001808c0191909155965160028b0155945160038a01559251600489015591516005909701805493511515600160a01b026001600160a81b031990941697909116969096179190911790945560d6835284822093825292909152829020805460ff19169091179055519091507f0d763060fa3e4c53f7d6d778f14657431b620a8120e56ea46f1e0829ac69c192906113e79083908b908b908b908b908b9095865260208601949094526040850192909252606084015260808301526001600160a01b031660a082015260c00190565b60405180910390a1979650505050505050565b6065546001600160a01b03163314801590611420575060cb546001600160a01b03163314155b1561143e57604051630da2c56160e21b815260040160405180910390fd5b600086815260d16020526040902060010154611470576040516315855ddb60e21b815260048101879052602401610933565b8361148e57604051632d30d96960e11b815260040160405180910390fd5b826114ac5760405163094d805f60e31b815260040160405180910390fd5b600086815260d16020908152604080832060010154835260d0909152902080546114d590615432565b1515905061150d57600086815260d16020526040908190206001015490516317a7841360e11b81526004810191909152602401610933565b600086815260d160209081526040918290206002810188905560038101879055600481018690556005810180546001600160a01b0387166001600160a81b03199091168117600160a01b871515021790915560019091015483518a815292830152918101879052606081018690526080810185905260a08101919091527f0d763060fa3e4c53f7d6d778f14657431b620a8120e56ea46f1e0829ac69c1929060c00160405180910390a1505050505050565b600054610100900460ff16806115d8575060005460ff16155b6115f45760405162461bcd60e51b815260040161093390615587565b600054610100900460ff16158015611616576000805461ffff19166101011790555b61162e60405180602001604052806000815250613062565b6116366130e7565b82516116499060c99060208601906148e7565b50815161165d9060ca9060208501906148e7565b5060cb80546001600160a01b031916331790558015611682576000805461ff00191690555b505050565b606081518351146116ec5760405162461bcd60e51b815260206004820152602960248201527f455243313135353a206163636f756e747320616e6420696473206c656e677468604482015268040dad2e6dac2e8c6d60bb1b6064820152608401610933565b600083516001600160401b0381111561170757611707614d24565b604051908082528060200260200182016040528015611730578160200160208202803683370190505b50905060005b84518110156117a85761177b8582815181106117545761175461546d565b602002602001015185838151811061176e5761176e61546d565b60200260200101516108cb565b82828151811061178d5761178d61546d565b60209081029190910101526117a181615499565b9050611736565b509392505050565b6065546001600160a01b031633148015906117d6575060cb546001600160a01b03163314155b156117f457604051630da2c56160e21b815260040160405180910390fd5b600082815260d0602090815260409091208251611682928401906148e7565b6065546001600160a01b03163314801590611839575060cb546001600160a01b03163314155b1561185757604051630da2c56160e21b815260040160405180910390fd5b60005b818110156118d457600084815260d6602052604081206001918585858181106118855761188561546d565b905060200201602081019061189a9190614f1a565b6001600160a01b031681526020810191909152604001600020805460ff1916911515919091179055806118cc81615499565b91505061185a565b507f288efa051697c69f33b7549bd39689e1f6980324658d2ee053f8741554362091838383604051610b88939291906154f2565b6065546001600160a01b031633146119325760405162461bcd60e51b8152600401610933906155d5565b61193c6000613162565b565b6065546001600160a01b031633146119685760405162461bcd60e51b8152600401610933906155d5565b6001600160a01b03811661198f576040516314cd11fb60e21b815260040160405180910390fd5b60cb80546001600160a01b0319166001600160a01b0392909216919091179055565b6065546001600160a01b031633148015906119d7575060cb546001600160a01b03163314155b156119f557604051630da2c56160e21b815260040160405180910390fd5b600083815260d16020526040902060010154611a27576040516315855ddb60e21b815260048101849052602401610933565b600083815260d16020526040902060040154821115611a7857600083815260d160205260409081902060049081015491516304780add60e11b81529081018490526024810191909152604401610933565b600083815260d56020908152604080832060d490925282209091805b8354811015611af75785838281548110611ab057611ab061546d565b90600052602060002001541415611ae55784848281548110611ad457611ad461546d565b600091825260209091200155600191505b80611aef81615499565b915050611a94565b5080611b2957825460018181018555600085815260208082209093018790558454918201855584815291909120018590555b611b32866131b4565b505050505050565b6065546001600160a01b03163314801590611b60575060cb546001600160a01b03163314155b15611b7e57604051630da2c56160e21b815260040160405180910390fd5b6000611b906040830160208401614f1a565b6001600160a01b03161415611bb8576040516314cd11fb60e21b815260040160405180910390fd5b61271081606001351115611bdf57604051632086073760e21b815260040160405180910390fd5b611bec6020820182615617565b6001811115611bfd57611bfd615534565b611c3e57611c21611c146040830160208401614f1a565b6380ac58cd60e01b6134ff565b611c3e57604051632086073760e21b815260040160405180910390fd5b611c4b6020820182615617565b6001811115611c5c57611c5c615534565b60011415611ca157611c84611c776040830160208401614f1a565b636cdb3d1360e11b6134ff565b611ca157604051632086073760e21b815260040160405180910390fd5b600082815260d86020908152604080832080548251818502810185019093528083529192909190849084015b82821015611d6f576000848152602090206040805160808101909152600384029091018054829060ff166001811115611d0857611d08615534565b6001811115611d1957611d19615534565b81526020016000820160019054906101000a90046001600160a01b03166001600160a01b03166001600160a01b031681526020016001820154815260200160028201548152505081526020019060010190611ccd565b5050505090506000805b8251811015611e4557611d926040850160208601614f1a565b6001600160a01b0316838281518110611dad57611dad61546d565b6020026020010151602001516001600160a01b0316148015611def57508360400135838281518110611de157611de161546d565b602002602001015160400151145b15611e3557600085815260d8602052604090208054600193506060860135919083908110611e1f57611e1f61546d565b9060005260206000209060030201600201819055505b611e3e81615499565b9050611d79565b5080611e7b57600084815260d860209081526040822080546001810182559083529120849160030201611e788282615634565b50505b611e84846131b4565b50505050565b6065546001600160a01b03163314611eb45760405162461bcd60e51b8152600401610933906155d5565b6000805b82811015611ef657838382818110611ed257611ed261546d565b9050602002013582611ee491906156b7565b9150611eef81615499565b9050611eb8565b50612710811115611f25576040516304780add60e11b8152600481018290526127106024820152604401610933565b6040518060400160405280848480806020026020016040519081016040528093929190818152602001838360200280828437600092019190915250505090825250604080516020888102828101820190935288825292830192909189918991829185019084908082843760009201919091525050509152508051805160cd91611fb39183916020019061496b565b506020828101518051611fcc92600185019201906149a5565b509050507f948ff4d608e081524307276706f69c47f0f3e2cebdf31e355cf2162507a3dcfc8585858560405161200594939291906156cf565b60405180910390a15050505050565b6065546001600160a01b0316331480159061203a575060cb546001600160a01b03163314155b1561205857604051630da2c56160e21b815260040160405180910390fd5b600082815260d1602052604090206001015461208a576040516315855ddb60e21b815260048101839052602401610933565b600082815260d26020908152604091829020805460ff19168415159081179091558251858152918201527f3ebf61cfcf0422d04654b8a644f0537626982e051451db95e52a68991415e2fb910160405180910390a15050565b60408051808201909152606080825260208201526040805160cd80546060602082028401810185529383018181529293919284929091849184018282801561214a57602002820191906000526020600020905b815481526020019060010190808311612136575b50505050508152602001600182018054806020026020016040519081016040528092919081815260200182805480156121ac57602002820191906000526020600020905b81546001600160a01b0316815260019091019060200180831161218e575b505050505081525050905090565b6065546001600160a01b031633148015906121e0575060cb546001600160a01b03163314155b156121fe57604051630da2c56160e21b815260040160405180910390fd5b60d980546001600160a01b0319166001600160a01b0392909216919091179055565b60ca80546109c490615432565b61223833838361351b565b5050565b6065546001600160a01b03163314801590612262575060cb546001600160a01b03163314155b1561228057604051630da2c56160e21b815260040160405180910390fd5b80516122389060ca9060208401906148e7565b6065546001600160a01b031633148015906122b9575060cb546001600160a01b03163314155b156122d757604051630da2c56160e21b815260040160405180910390fd5b80516122389060c99060208401906148e7565b6065546001600160a01b03163314801590612310575060cb546001600160a01b03163314155b1561232e57604051630da2c56160e21b815260040160405180910390fd5b600081815260d16020526040902060010154612360576040516315855ddb60e21b815260048101829052602401610933565b600081815260d1602090815260408083208381556001810184905560028101849055600381018490556004810184905560050180546001600160a81b031916905560d8909152902054156123c557600081815260d8602052604081206123c5916149fa565b6040518181527f57cd904ddfdc327ee83dd07cdce0e04dfba9fbfde6481ab038c18726af58a3db9060200160405180910390a150565b6124466040518060e00160405280600081526020016000815260200160008152602001600081526020016000815260200160006001600160a01b031681526020016000151581525090565b50600090815260d16020908152604091829020825160e0810184528154815260018201549281019290925260028101549282019290925260038201546060820152600482015460808201526005909101546001600160a01b03811660a0830152600160a01b900460ff16151560c082015290565b6001600160a01b0385163314806124d657506124d685336107ea565b6125345760405162461bcd60e51b815260206004820152602960248201527f455243313135353a2063616c6c6572206973206e6f74206f776e6572206e6f7260448201526808185c1c1c9bdd995960ba1b6064820152608401610933565b610c4585858585856135fc565b6065546001600160a01b0316331461256b5760405162461bcd60e51b8152600401610933906155d5565b6001600160a01b0381166125d05760405162461bcd60e51b815260206004820152602660248201527f4f776e61626c653a206e6577206f776e657220697320746865207a65726f206160448201526564647265737360d01b6064820152608401610933565b6125d981613162565b50565b6065546001600160a01b03163314801590612602575060cb546001600160a01b03163314155b1561262057604051630da2c56160e21b815260040160405180910390fd5b6001600160a01b0391909116600090815260d360205260409020805460ff1916911515919091179055565b33600090815260d3602052604090205460ff1661267d57604051633aa16a1360e01b8152336004820152602401610933565b600082815260d060205260409020805461269690615432565b151590506126ba576040516317a7841360e11b815260048101839052602401610933565b611682838383613714565b6065546001600160a01b031633148015906126eb575060cb546001600160a01b03163314155b1561270957604051630da2c56160e21b815260040160405180910390fd5b6001600160a01b03811661278b576000826001600160a01b03164760405160006040518083038185875af1925050503d8060008114612764576040519150601f19603f3d011682016040523d82523d6000602084013e612769565b606091505b505090508061168257604051639602414160e01b815260040160405180910390fd5b6040516370a0823160e01b81523060048201526000906001600160a01b038316906370a082319060240160206040518083038186803b1580156127cd57600080fd5b505afa1580156127e1573d6000803e3d6000fd5b505050506040513d601f19601f82011682018060405250810190612805919061556e565b60405163095ea7b360e01b8152306004820152602481018290529091506001600160a01b0383169063095ea7b390604401602060405180830381600087803b15801561285057600080fd5b505af1158015612864573d6000803e3d6000fd5b505050506040513d601f19601f820116820180604052508101906128889190615721565b506040516323b872dd60e01b81526001600160a01b038316906323b872dd906128b99030908790869060040161554a565b602060405180830381600087803b1580156128d357600080fd5b505af11580156128e7573d6000803e3d6000fd5b505050506040513d601f19601f8201168201806040525081019061290b9190615721565b61168257604051639602414160e01b815260040160405180910390fd5b611e84818360008087895b600086815260d16020526040902060010154612965576040516315855ddb60e21b815260048101879052602401610933565b600086815260d2602052604090205460ff1615156001141561299a5760405163070f57a760e31b815260040160405180910390fd5b600086815260d6602090815260408083206001600160a01b038616845290915290205460ff166129e857604051638a602b0d60e01b81526001600160a01b0383166004820152602401610933565b600086815260d16020908152604091829020825160e081018452815481526001820154928101929092526002810154928201929092526003820154606082018190526004830154608083018190526005909301546001600160a01b03811660a0840152600160a01b900460ff16151560c08301529091612a6b9190898986613892565b6000868260400151612a7d9190615515565b9050612a8a888289612d0f565b90506001600160a01b03851615612b8a57600088815260d8602090815260408083208054825181850281018501909352808352612b7493859084015b82821015612b68576000848152602090206040805160808101909152600384029091018054829060ff166001811115612b0157612b01615534565b6001811115612b1257612b12615534565b81526020016000820160019054906101000a90046001600160a01b03166001600160a01b03166001600160a01b031681526020016001820154815260200160028201548152505081526020019060010190612ac6565b5050505083888a6139ab565b905060008111612b845781612b86565b805b9150505b6001600160a01b038416612bad57612ba8838360a001518684613cae565b612bbc565b612bbc82898389898989613dec565b612bdb8383602001518960405180602001604052806000815250612c03565b612bf9826040015188612bee9190615515565b858460a00151614066565b5050505050505050565b6001600160a01b038416612c635760405162461bcd60e51b815260206004820152602160248201527f455243313135353a206d696e7420746f20746865207a65726f206164647265736044820152607360f81b6064820152608401610933565b33612c7d81600087612c7488614412565b610c4588614412565b60008481526097602090815260408083206001600160a01b038916845290915281208054859290612caf9084906156b7565b909155505060408051858152602081018590526001600160a01b0380881692600092918516917fc3d58168c5ae7397731d063d5bbf3d657854427343f4c083240f7aacaa2d0f62910160405180910390a4610c458160008787878761445d565b600083815260d4602090815260408083208054825181850281018501909352808352612710938593929190830182828015612d6957602002820191906000526020600020905b815481526020019060010190808311612d55575b50505050509050600060d56000888152602001908152602001600020805480602002602001604051908101604052809291908181526020018280548015612dcf57602002820191906000526020600020905b815481526020019060010190808311612dbb575b5050505050905060005b8251811015612e3c5785838281518110612df557612df561546d565b602002602001015111612e2a57818181518110612e1457612e1461546d565b602002602001015184612e27919061573e565b93505b80612e3481615499565b915050612dd9565b50612710612e4a8785615515565b612e549190615755565b979650505050505050565b600061271082612e6f858361573e565b612e799190615515565b612e839190615755565b9392505050565b8151835114612eec5760405162461bcd60e51b815260206004820152602860248201527f455243313135353a2069647320616e6420616d6f756e7473206c656e677468206044820152670dad2e6dac2e8c6d60c31b6064820152608401610933565b6001600160a01b038416612f125760405162461bcd60e51b815260040161093390615777565b3360005b8451811015612ffc576000858281518110612f3357612f3361546d565b602002602001015190506000858381518110612f5157612f5161546d565b60209081029190910181015160008481526097835260408082206001600160a01b038e168352909352919091205490915081811015612fa25760405162461bcd60e51b8152600401610933906157bc565b60008381526097602090815260408083206001600160a01b038e8116855292528083208585039055908b16825281208054849290612fe19084906156b7565b9250508190555050505080612ff590615499565b9050612f16565b50846001600160a01b0316866001600160a01b0316826001600160a01b03167f4a39dc06d4c0dbc64b70af90fd698a233a518aa5d07e595d983b8c0526c8f7fb878760405161304c929190615806565b60405180910390a4611b328187878787876145c8565b600054610100900460ff168061307b575060005460ff16155b6130975760405162461bcd60e51b815260040161093390615587565b600054610100900460ff161580156130b9576000805461ffff19166101011790555b6130c1614692565b6130c9614692565b6130d2826146fc565b8015612238576000805461ff00191690555050565b600054610100900460ff1680613100575060005460ff16155b61311c5760405162461bcd60e51b815260040161093390615587565b600054610100900460ff1615801561313e576000805461ffff19166101011790555b613146614692565b61314e61475c565b80156125d9576000805461ff001916905550565b606580546001600160a01b038381166001600160a01b0319831681179093556040519116919082907f8be0079c531659141344cd1fd0a4f28419497f9722a3daafe3b4186f6b6457e090600090a35050565b600081815260d5602090815260408083208054825181850281018501909352808352919290919083018282801561320a57602002820191906000526020600020905b8154815260200190600101908083116131f6575b505050505090506000805b8251811015613257578281815181106132305761323061546d565b60200260200101518261324391906156b7565b91508061324f81615499565b915050613215565b50600083815260d86020908152604080832080548251818502810185019093528083529192909190849084015b82821015613326576000848152602090206040805160808101909152600384029091018054829060ff1660018111156132bf576132bf615534565b60018111156132d0576132d0615534565b81526020016000820160019054906101000a90046001600160a01b03166001600160a01b03166001600160a01b031681526020016001820154815260200160028201548152505081526020019060010190613284565b50505050905060006133636040805160808101909152806000815260200160006001600160a01b0316815260200160008152602001600081525090565b60005b83518110156133b1578381815181106133815761338161546d565b60200260200101519150828260600151111561339f57816060015192505b806133a981615499565b915050613366565b5061271084106133df576040516304780add60e11b8152600481018590526127106024820152604401610933565b612710821061340c576040516304780add60e11b8152600481018390526127106024820152604401610933565b600086815260d160209081526040808320815160e081018352815481526001820154938101939093526002810154918301919091526003810154606083015260048101546080830152600501546001600160a01b03811660a0830152600160a01b900460ff16151560c082015290612710613487858261573e565b612710613494898261573e565b85604001516134a39190615515565b6134ad9190615755565b6134b79190615515565b6134c19190615755565b905080612bf957604080830151905163997e3a5360e01b8152600481018a905260248101919091526044810187905260648101859052608401610933565b600061350a836147bc565b8015612e835750612e8383836147ef565b816001600160a01b0316836001600160a01b0316141561358f5760405162461bcd60e51b815260206004820152602960248201527f455243313135353a2073657474696e6720617070726f76616c20737461747573604482015268103337b91039b2b63360b91b6064820152608401610933565b6001600160a01b03838116600081815260986020908152604080832094871680845294825291829020805460ff191686151590811790915591519182527f17307eab39ab6107e8899845ad3d59bd9653f200f220920489ca2b5937696c31910160405180910390a3505050565b6001600160a01b0384166136225760405162461bcd60e51b815260040161093390615777565b33613632818787612c7488614412565b60008481526097602090815260408083206001600160a01b038a168452909152902054838110156136755760405162461bcd60e51b8152600401610933906157bc565b60008581526097602090815260408083206001600160a01b038b81168552925280832087850390559088168252812080548692906136b49084906156b7565b909155505060408051868152602081018690526001600160a01b03808916928a821692918616917fc3d58168c5ae7397731d063d5bbf3d657854427343f4c083240f7aacaa2d0f62910160405180910390a4610d7f82888888888861445d565b6001600160a01b0383166137765760405162461bcd60e51b815260206004820152602360248201527f455243313135353a206275726e2066726f6d20746865207a65726f206164647260448201526265737360e81b6064820152608401610933565b336137a68185600061378787614412565b61379087614412565b5050604080516020810190915260009052505050565b60008381526097602090815260408083206001600160a01b0388168452909152902054828110156138255760405162461bcd60e51b8152602060048201526024808201527f455243313135353a206275726e20616d6f756e7420657863656564732062616c604482015263616e636560e01b6064820152608401610933565b60008481526097602090815260408083206001600160a01b03898116808652918452828520888703905582518981529384018890529092908616917fc3d58168c5ae7397731d063d5bbf3d657854427343f4c083240f7aacaa2d0f62910160405180910390a45050505050565b600083815260d7602090815260408083206001600160a01b03851684529091528120546138c09084906156b7565b600085815260cf6020526040812054919250906138de9085906156b7565b90508582111561393057600085815260d7602090815260408083206001600160a01b038716845290915290819020549051635462c0b560e11b8152600481019190915260248101879052604401610933565b600085815260d7602090815260408083206001600160a01b038716845290915290208290558681111561399157600085815260cf60205260409081902054905163c55ec42d60e01b8152600481019190915260248101889052604401610933565b600085815260cf6020526040902081905550505050505050565b60008060008060005b8851811015613aef57866001600160a01b03168982815181106139d9576139d961546d565b6020026020010151602001516001600160a01b0316148015613a8857506000898281518110613a0a57613a0a61546d565b6020026020010151600001516001811115613a2757613a27615534565b1480613a8857506001898281518110613a4257613a4261546d565b6020026020010151600001516001811115613a5f57613a5f615534565b148015613a88575085898281518110613a7a57613a7a61546d565b602002602001015160400151145b15613adf57888181518110613a9f57613a9f61546d565b6020026020010151606001519350888181518110613abf57613abf61546d565b6020026020010151600001516001811115613adc57613adc615534565b92505b613ae881615499565b90506139b4565b508215613c8a57600082613bb0576040516370a0823160e01b81523360048201526000906001600160a01b038916906370a082319060240160206040518083038186803b158015613b3f57600080fd5b505afa158015613b53573d6000803e3d6000fd5b505050506040513d601f19601f82011682018060405250810190613b77919061556e565b1115613b8557506001613bb0565b60405163098c052560e11b81526001600160a01b038816600482015260006024820152604401610933565b8260011415613c7157604051627eeac760e11b8152336004820152602481018790526000906001600160a01b0389169062fdd58e9060440160206040518083038186803b158015613c0057600080fd5b505afa158015613c14573d6000803e3d6000fd5b505050506040513d601f19601f82011682018060405250810190613c38919061556e565b1115613c4657506001613c71565b60405163098c052560e11b81526001600160a01b038816600482015260248101879052604401610933565b8015613c8457613c818489612e5f565b91505b50612e54565b604051633419130560e11b81526001600160a01b0387166004820152602401610933565b60d954604051632550332960e11b81526000916001600160a01b031690634aa0665290613ce39087908790879060040161554a565b602060405180830381600087803b158015613cfd57600080fd5b505af1158015613d11573d6000803e3d6000fd5b505050506040513d601f19601f82011682018060405250810190613d35919061556e565b905034811115613d61576040516345aff79760e01b815234600482015260248101829052604401610933565b6000613d6d823461573e565b1115610c455760006001600160a01b038616613d89833461573e565b604051600081818185875af1925050503d8060008114613dc5576040519150601f19603f3d011682016040523d82523d6000602084013e613dca565b606091505b5050905080611b325760405163e6c4ecad60e01b815260040160405180910390fd5b60a087015185906001600160a01b03848116911614613e915760d95460a0890151604051632550332960e11b81526001600160a01b0390921691634aa0665291613e3c918790869060040161554a565b602060405180830381600087803b158015613e5657600080fd5b505af1158015613e6a573d6000803e3d6000fd5b505050506040513d601f19601f82011682018060405250810190613e8e919061556e565b90505b6040516323b872dd60e01b81526001600160a01b038416906323b872dd90613ec19085903090869060040161554a565b602060405180830381600087803b158015613edb57600080fd5b505af1158015613eef573d6000803e3d6000fd5b505050506040513d601f19601f82011682018060405250810190613f139190615721565b613f30576040516330c1bd9560e21b815260040160405180910390fd5b8760c00151158015613f5857508760a001516001600160a01b0316836001600160a01b031614155b15612bf95760da5460405163095ea7b360e01b81526001600160a01b039182166004820152602481018390529084169063095ea7b390604401602060405180830381600087803b158015613fab57600080fd5b505af1158015613fbf573d6000803e3d6000fd5b505050506040513d601f19601f82011682018060405250810190613fe39190615721565b5060da5460a0890151604051631ba0488760e21b81526001600160a01b038681166004830152918216602482015260448101849052306064820152911690636e81221c90608401600060405180830381600087803b15801561404457600080fd5b505af1158015614058573d6000803e3d6000fd5b505050505050505050505050565b6040805160cd8054606060208202840181018552938301818152600094849284918401828280156140b657602002820191906000526020600020905b8154815260200190600101908083116140a2575b505050505081526020016001820180548060200260200160405190810160405280929190818152602001828054801561411857602002820191906000526020600020905b81546001600160a01b031681526001909101906020018083116140fa575b505050919092525050815151919250600090505b81811015611b3257600061271087856000015184815181106141505761415061546d565b60200260200101516141629190615515565b61416c9190615755565b9050846001600160a01b0316866001600160a01b0316146142c45760da5460405163095ea7b360e01b81526001600160a01b039182166004820152602481018390529087169063095ea7b390604401602060405180830381600087803b1580156141d557600080fd5b505af11580156141e9573d6000803e3d6000fd5b505050506040513d601f19601f8201168201806040525081019061420d9190615721565b5060da54602085015180516001600160a01b0390921691636e81221c91899189918691889081106142405761424061546d565b60200260200101516040518563ffffffff1660e01b815260040161428d94939291906001600160a01b03948516815292841660208401526040830191909152909116606082015260800190565b600060405180830381600087803b1580156142a757600080fd5b505af11580156142bb573d6000803e3d6000fd5b50505050614401565b60405163095ea7b360e01b8152306004820152602481018290526001600160a01b0387169063095ea7b390604401602060405180830381600087803b15801561430c57600080fd5b505af1158015614320573d6000803e3d6000fd5b505050506040513d601f19601f820116820180604052508101906143449190615721565b50856001600160a01b03166323b872dd308660200151858151811061436b5761436b61546d565b6020026020010151846040518463ffffffff1660e01b81526004016143929392919061554a565b602060405180830381600087803b1580156143ac57600080fd5b505af11580156143c0573d6000803e3d6000fd5b505050506040513d601f19601f820116820180604052508101906143e49190615721565b614401576040516330c1bd9560e21b815260040160405180910390fd5b5061440b81615499565b905061412c565b6040805160018082528183019092526060916000919060208083019080368337019050509050828160008151811061444c5761444c61546d565b602090810291909101015292915050565b6001600160a01b0384163b15611b325760405163f23a6e6160e01b81526001600160a01b0385169063f23a6e61906144a1908990899088908890889060040161582b565b602060405180830381600087803b1580156144bb57600080fd5b505af19250505080156144eb575060408051601f3d908101601f191682019092526144e891810190615865565b60015b614598576144f7615882565b806308c379a01415614531575061450c61589e565b806145175750614533565b8060405162461bcd60e51b81526004016109339190614b29565b505b60405162461bcd60e51b815260206004820152603460248201527f455243313135353a207472616e7366657220746f206e6f6e20455243313135356044820152732932b1b2b4bb32b91034b6b83632b6b2b73a32b960611b6064820152608401610933565b6001600160e01b0319811663f23a6e6160e01b14610d7f5760405162461bcd60e51b815260040161093390615927565b6001600160a01b0384163b15611b325760405163bc197c8160e01b81526001600160a01b0385169063bc197c819061460c908990899088908890889060040161596f565b602060405180830381600087803b15801561462657600080fd5b505af1925050508015614656575060408051601f3d908101601f1916820190925261465391810190615865565b60015b614662576144f7615882565b6001600160e01b0319811663bc197c8160e01b14610d7f5760405162461bcd60e51b815260040161093390615927565b600054610100900460ff16806146ab575060005460ff16155b6146c75760405162461bcd60e51b815260040161093390615587565b600054610100900460ff1615801561314e576000805461ffff191661010117905580156125d9576000805461ff001916905550565b600054610100900460ff1680614715575060005460ff16155b6147315760405162461bcd60e51b815260040161093390615587565b600054610100900460ff16158015614753576000805461ffff19166101011790555b6130d2826148d8565b600054610100900460ff1680614775575060005460ff16155b6147915760405162461bcd60e51b815260040161093390615587565b600054610100900460ff161580156147b3576000805461ffff19166101011790555b61314e33613162565b60006147cf826301ffc9a760e01b6147ef565b801561096157506147e8826001600160e01b03196147ef565b1592915050565b604080516001600160e01b0319831660248083019190915282518083039091018152604490910182526020810180516001600160e01b03166301ffc9a760e01b179052905160009190829081906001600160a01b03871690617530906148569086906159cd565b6000604051808303818686fa925050503d8060008114614892576040519150601f19603f3d011682016040523d82523d6000602084013e614897565b606091505b50915091506020815110156148b25760009350505050610961565b8180156148ce5750808060200190518101906148ce9190615721565b9695505050505050565b80516122389060999060208401905b8280546148f390615432565b90600052602060002090601f016020900481019282614915576000855561495b565b82601f1061492e57805160ff191683800117855561495b565b8280016001018555821561495b579182015b8281111561495b578251825591602001919060010190614940565b50614967929150614a1b565b5090565b82805482825590600052602060002090810192821561495b579160200282018281111561495b578251825591602001919060010190614940565b82805482825590600052602060002090810192821561495b579160200282015b8281111561495b57825182546001600160a01b0319166001600160a01b039091161782556020909201916001909101906149c5565b50805460008255600302906000526020600020908101906125d99190614a30565b5b808211156149675760008155600101614a1c565b5b808211156149675780546001600160a81b03191681556000600182018190556002820155600301614a31565b6001600160a01b03811681146125d957600080fd5b60008060408385031215614a8557600080fd5b8235614a9081614a5d565b946020939093013593505050565b6001600160e01b0319811681146125d957600080fd5b600060208284031215614ac657600080fd5b8135612e8381614a9e565b60005b83811015614aec578181015183820152602001614ad4565b83811115611e845750506000910152565b60008151808452614b15816020860160208601614ad1565b601f01601f19169290920160200192915050565b602081526000612e836020830184614afd565b60008083601f840112614b4e57600080fd5b5081356001600160401b03811115614b6557600080fd5b6020830191508360208260051b8501011115614b8057600080fd5b9250929050565b600080600060408486031215614b9c57600080fd5b8335925060208401356001600160401b03811115614bb957600080fd5b614bc586828701614b3c565b9497909650939450505050565b600060208284031215614be457600080fd5b5035919050565b600080600080600060a08688031215614c0357600080fd5b8535945060208601359350604086013592506060860135614c2381614a5d565b91506080860135614c3381614a5d565b809150509295509295909350565b60008060008060008060608789031215614c5a57600080fd5b86356001600160401b0380821115614c7157600080fd5b614c7d8a838b01614b3c565b90985096506020890135915080821115614c9657600080fd5b614ca28a838b01614b3c565b90965094506040890135915080821115614cbb57600080fd5b50614cc889828a01614b3c565b979a9699509497509295939492505050565b60008060008060808587031215614cf057600080fd5b84359350602085013592506040850135614d0981614a5d565b91506060850135614d1981614a5d565b939692955090935050565b634e487b7160e01b600052604160045260246000fd5b601f8201601f191681016001600160401b0381118282101715614d5f57614d5f614d24565b6040525050565b60006001600160401b03821115614d7f57614d7f614d24565b5060051b60200190565b600082601f830112614d9a57600080fd5b81356020614da782614d66565b604051614db48282614d3a565b83815260059390931b8501820192828101915086841115614dd457600080fd5b8286015b84811015614def5780358352918301918301614dd8565b509695505050505050565b600082601f830112614e0b57600080fd5b81356001600160401b03811115614e2457614e24614d24565b604051614e3b601f8301601f191660200182614d3a565b818152846020838601011115614e5057600080fd5b816020850160208301376000918101602001919091529392505050565b600080600080600060a08688031215614e8557600080fd5b8535614e9081614a5d565b94506020860135614ea081614a5d565b935060408601356001600160401b0380821115614ebc57600080fd5b614ec889838a01614d89565b94506060880135915080821115614ede57600080fd5b614eea89838a01614d89565b93506080880135915080821115614f0057600080fd5b50614f0d88828901614dfa565b9150509295509295909350565b600060208284031215614f2c57600080fd5b8135612e8381614a5d565b80151581146125d957600080fd5b60008060008060008060c08789031215614f5e57600080fd5b863595506020870135945060408701359350606087013592506080870135614f8581614a5d565b915060a0870135614f9581614f37565b809150509295509295509295565b60008060408385031215614fb657600080fd5b82356001600160401b0380821115614fcd57600080fd5b614fd986838701614dfa565b93506020850135915080821115614fef57600080fd5b50614ffc85828601614dfa565b9150509250929050565b6000806040838503121561501957600080fd5b82356001600160401b038082111561503057600080fd5b818501915085601f83011261504457600080fd5b8135602061505182614d66565b60405161505e8282614d3a565b83815260059390931b850182019282810191508984111561507e57600080fd5b948201945b838610156150a557853561509681614a5d565b82529482019490820190615083565b965050860135925050808211156150bb57600080fd5b50614ffc85828601614d89565b600081518084526020808501945080840160005b838110156150f8578151875295820195908201906001016150dc565b509495945050505050565b602081526000612e8360208301846150c8565b6000806040838503121561512957600080fd5b8235915060208301356001600160401b0381111561514657600080fd5b614ffc85828601614dfa565b60008060006060848603121561516757600080fd5b505081359360208301359350604090920135919050565b60008082840360a081121561519257600080fd5b833592506080601f19820112156151a857600080fd5b506020830190509250929050565b600080600080604085870312156151cc57600080fd5b84356001600160401b03808211156151e357600080fd5b6151ef88838901614b3c565b9096509450602087013591508082111561520857600080fd5b5061521587828801614b3c565b95989497509550505050565b6000806040838503121561523457600080fd5b82359150602083013561524681614f37565b809150509250929050565b60006020808352835160408285015261526d60608501826150c8565b85830151858203601f19016040870152805180835290840192506000918401905b80831015614def5783516001600160a01b0316825292840192600192909201919084019061528e565b600080604083850312156152ca57600080fd5b82356152d581614a5d565b9150602083013561524681614f37565b6000602082840312156152f757600080fd5b81356001600160401b0381111561530d57600080fd5b61531984828501614dfa565b949350505050565b6000806040838503121561533457600080fd5b823561533f81614a5d565b9150602083013561524681614a5d565b600080600080600060a0868803121561536757600080fd5b853561537281614a5d565b9450602086013561538281614a5d565b9350604086013592506060860135915060808601356001600160401b038111156153ab57600080fd5b614f0d88828901614dfa565b6000806000606084860312156153cc57600080fd5b83356153d781614a5d565b95602085013595506040909401359392505050565b6000806000806080858703121561540257600080fd5b843561540d81614a5d565b9350602085013561541d81614a5d565b93969395505050506040820135916060013590565b600181811c9082168061544657607f821691505b6020821081141561546757634e487b7160e01b600052602260045260246000fd5b50919050565b634e487b7160e01b600052603260045260246000fd5b634e487b7160e01b600052601160045260246000fd5b60006000198214156154ad576154ad615483565b5060010190565b8183526000602080850194508260005b858110156150f85781356154d781614a5d565b6001600160a01b0316875295820195908201906001016154c4565b83815260406020820152600061550c6040830184866154b4565b95945050505050565b600081600019048311821515161561552f5761552f615483565b500290565b634e487b7160e01b600052602160045260246000fd5b6001600160a01b039384168152919092166020820152604081019190915260600190565b60006020828403121561558057600080fd5b5051919050565b6020808252602e908201527f496e697469616c697a61626c653a20636f6e747261637420697320616c72656160408201526d191e481a5b9a5d1a585b1a5e995960921b606082015260800190565b6020808252818101527f4f776e61626c653a2063616c6c6572206973206e6f7420746865206f776e6572604082015260600190565b600281106125d957600080fd5b60006020828403121561562957600080fd5b8135612e838161560a565b813561563f8161560a565b6002811061565d57634e487b7160e01b600052602160045260246000fd5b815460ff821691508160ff198216178355602084013561567c81614a5d565b6001600160a81b03199190911690911760089190911b610100600160a81b031617815560408201356001820155606090910135600290910155565b600082198211156156ca576156ca615483565b500190565b6040815260006156e36040830186886154b4565b82810360208401528381526001600160fb1b0384111561570257600080fd5b8360051b80866020840137600091016020019081529695505050505050565b60006020828403121561573357600080fd5b8151612e8381614f37565b60008282101561575057615750615483565b500390565b60008261577257634e487b7160e01b600052601260045260246000fd5b500490565b60208082526025908201527f455243313135353a207472616e7366657220746f20746865207a65726f206164604082015264647265737360d81b606082015260800190565b6020808252602a908201527f455243313135353a20696e73756666696369656e742062616c616e636520666f60408201526939103a3930b739b332b960b11b606082015260800190565b60408152600061581960408301856150c8565b828103602084015261550c81856150c8565b6001600160a01b03868116825285166020820152604081018490526060810183905260a060808201819052600090612e5490830184614afd565b60006020828403121561587757600080fd5b8151612e8381614a9e565b600060033d111561589b5760046000803e5060005160e01c5b90565b600060443d10156158ac5790565b6040516003193d81016004833e81513d6001600160401b0381602484011181841117156158db57505050505090565b82850191508151818111156158f35750505050505090565b843d870101602082850101111561590d5750505050505090565b61591c60208286010187614d3a565b509095945050505050565b60208082526028908201527f455243313135353a204552433131353552656365697665722072656a656374656040820152676420746f6b656e7360c01b606082015260800190565b6001600160a01b0386811682528516602082015260a06040820181905260009061599b908301866150c8565b82810360608401526159ad81866150c8565b905082810360808401526159c18185614afd565b98975050505050505050565b600082516159df818460208701614ad1565b919091019291505056fea26469706673582212204e25fe135f6c81f30d36a6fa3512b685d887dcbace538ba59d3f5b835a5243be64736f6c63430008080033",
  "linkReferences": {},
  "deployedLinkReferences": {}
}