{
  "_format": "hh-sol-artifact-1",
  "contractName": "LootChestOpener",
  "sourceName": "contracts/mission_control/LootChestOpener.sol",
  "abi": [
    {
      "anonymous": false,
      "inputs": [
        {
          "indexed": false,
          "internalType": "address",
          "name": "_opener",
          "type": "address"
        },
        {
          "indexed": false,
          "internalType": "uint256[]",
          "name": "_contentIds",
          "type": "uint256[]"
        },
        {
          "indexed": false,
          "internalType": "uint256[]",
          "name": "_contentAmounts",
          "type": "uint256[]"
        }
      ],
      "name": "ChestOpened",
      "type": "event"
    },
    {
      "anonymous": false,
      "inputs": [
        {
          "indexed": true,
          "internalType": "address",
          "name": "previousOwner",
          "type": "address"
        },
        {
          "indexed": true,
          "internalType": "address",
          "name": "newOwner",
          "type": "address"
        }
      ],
      "name": "OwnershipTransferred",
      "type": "event"
    },
    {
      "inputs": [],
      "name": "chestTokenId",
      "outputs": [
        {
          "internalType": "uint256",
          "name": "",
          "type": "uint256"
        }
      ],
      "stateMutability": "view",
      "type": "function"
    },
    {
      "inputs": [
        {
          "internalType": "address",
          "name": "_pixAssets",
          "type": "address"
        },
        {
          "internalType": "uint256[]",
          "name": "_rewardAssetIds",
          "type": "uint256[]"
        },
        {
          "internalType": "uint256[]",
          "name": "_rewardAssetAmounts",
          "type": "uint256[]"
        },
        {
          "internalType": "uint256[]",
          "name": "_assetWeights",
          "type": "uint256[]"
        },
        {
          "internalType": "uint256[]",
          "name": "_contentAmounts",
          "type": "uint256[]"
        },
        {
          "internalType": "uint256[]",
          "name": "_contentWeights",
          "type": "uint256[]"
        }
      ],
      "name": "initialize",
      "outputs": [],
      "stateMutability": "nonpayable",
      "type": "function"
    },
    {
      "inputs": [
        {
          "internalType": "uint256",
          "name": "_numChests",
          "type": "uint256"
        }
      ],
      "name": "openChests",
      "outputs": [],
      "stateMutability": "nonpayable",
      "type": "function"
    },
    {
      "inputs": [],
      "name": "owner",
      "outputs": [
        {
          "internalType": "address",
          "name": "",
          "type": "address"
        }
      ],
      "stateMutability": "view",
      "type": "function"
    },
    {
      "inputs": [],
      "name": "pixAssets",
      "outputs": [
        {
          "internalType": "contract IAssetManager",
          "name": "",
          "type": "address"
        }
      ],
      "stateMutability": "view",
      "type": "function"
    },
    {
      "inputs": [],
      "name": "renounceOwnership",
      "outputs": [],
      "stateMutability": "nonpayable",
      "type": "function"
    },
    {
      "inputs": [
        {
          "internalType": "address",
          "name": "newOwner",
          "type": "address"
        }
      ],
      "name": "transferOwnership",
      "outputs": [],
      "stateMutability": "nonpayable",
      "type": "function"
    },
    {
      "inputs": [
        {
          "internalType": "uint256[]",
          "name": "_rewardAssetIds",
          "type": "uint256[]"
        },
        {
          "internalType": "uint256[]",
          "name": "_rewardAssetAmounts",
          "type": "uint256[]"
        },
        {
          "internalType": "uint256[]",
          "name": "_assetWeights",
          "type": "uint256[]"
        },
        {
          "internalType": "uint256[]",
          "name": "_contentAmounts",
          "type": "uint256[]"
        },
        {
          "internalType": "uint256[]",
          "name": "_contentWeights",
          "type": "uint256[]"
        }
      ],
      "name": "updateProbabilities",
      "outputs": [],
      "stateMutability": "nonpayable",
      "type": "function"
    }
  ],
  "bytecode": "0x608060405234801561001057600080fd5b50610e6b806100206000396000f3fe608060405234801561001057600080fd5b50600436106100885760003560e01c8063715018a61161005b578063715018a6146100e45780638da5cb5b146100ec578063e513cfa614610111578063f2fde38b1461012457600080fd5b806346f960a21461008d57806356fddaba146100a95780636c8a6dce146100be5780636e256a32146100d1575b600080fd5b61009660685481565b6040519081526020015b60405180910390f35b6100bc6100b7366004610a51565b610137565b005b6100bc6100cc366004610b42565b6101d1565b6100bc6100df366004610b77565b610265565b6100bc61035a565b6033546001600160a01b03165b6040516001600160a01b0390911681526020016100a0565b6067546100f9906001600160a01b031681565b6100bc610132366004610c7e565b610390565b6033546001600160a01b0316331461016a5760405162461bcd60e51b815260040161016190610ca0565b60405180910390fd5b61017660698b8b6109a5565b50610183606a89896109a5565b50610190606b87876109a5565b5061019b868661042b565b606c556101aa606d85856109a5565b506101b7606e83836109a5565b506101c2828261042b565b606f5550505050505050505050565b6067546040516303e9bc7360e21b8152336004820152600f6024820152604481018390526001600160a01b0390911690630fa6f1cc90606401600060405180830381600087803b15801561022457600080fd5b505af1158015610238573d6000803e3d6000fd5b5050505060005b818110156102615761024f610476565b8061025981610ceb565b91505061023f565b5050565b600054610100900460ff168061027e575060005460ff16155b61029a5760405162461bcd60e51b815260040161016190610d06565b600054610100900460ff161580156102bc576000805461ffff19166101011790555b6102c4610616565b606780546001600160a01b0319166001600160a01b038e161790556102eb60698c8c6109a5565b506102f8606a8a8a6109a5565b50610305606b88886109a5565b50610310878761042b565b606c5561031f606d86866109a5565b5061032c606e84846109a5565b50610337838361042b565b606f55801561034c576000805461ff00191690555b505050505050505050505050565b6033546001600160a01b031633146103845760405162461bcd60e51b815260040161016190610ca0565b61038e6000610691565b565b6033546001600160a01b031633146103ba5760405162461bcd60e51b815260040161016190610ca0565b6001600160a01b03811661041f5760405162461bcd60e51b815260206004820152602660248201527f4f776e61626c653a206e6577206f776e657220697320746865207a65726f206160448201526564647265737360d01b6064820152608401610161565b61042881610691565b50565b6000805b8281101561046f5783838281811061044957610449610d54565b905060200201358261045b9190610d6a565b91508061046781610ceb565b91505061042f565b5092915050565b60006104806106e3565b905060008167ffffffffffffffff81111561049d5761049d610d82565b6040519080825280602002602001820160405280156104c6578160200160208202803683370190505b50905060008267ffffffffffffffff8111156104e4576104e4610d82565b60405190808252806020026020018201604052801561050d578160200160208202803683370190505b50905060005b8381101561056f576105236107cc565b84838151811061053557610535610d54565b6020026020010184848151811061054e5761054e610d54565b6020908102919091010191909152528061056781610ceb565b915050610513565b50606754604051639e74b0e760e01b81526001600160a01b0390911690639e74b0e7906105a490339086908690600401610dd3565b600060405180830381600087803b1580156105be57600080fd5b505af11580156105d2573d6000803e3d6000fd5b505050507f5c0b3b66adb582dae85923eddae68f8d7dcfd8910267029bc9c1b7e6eca6ec3b33838360405161060993929190610dd3565b60405180910390a1505050565b600054610100900460ff168061062f575060005460ff16155b61064b5760405162461bcd60e51b815260040161016190610d06565b600054610100900460ff1615801561066d576000805461ffff19166101011790555b61067561088f565b61067d6108f9565b8015610428576000805461ff001916905550565b603380546001600160a01b038381166001600160a01b0319831681179093556040519116919082907f8be0079c531659141344cd1fd0a4f28419497f9722a3daafe3b4186f6b6457e090600090a35050565b60008061070933606560008154809291906106fd90610ceb565b91905055606f54610959565b90506000805b606e5481101561078357606e818154811061072c5761072c610d54565b9060005260206000200154826107429190610d6a565b915081831161077157606d818154811061075e5761075e610d54565b9060005260206000200154935050505090565b8061077b81610ceb565b91505061070f565b5060405162461bcd60e51b815260206004820152601860248201527f546869732073686f756c64206e657665722068617070656e00000000000000006044820152606401610161565b60008060006107f433606660008154809291906107e890610ceb565b91905055606c54610959565b90506000805b606b5481101561078357606b818154811061081757610817610d54565b90600052602060002001548261082d9190610d6a565b915081831161087d576069818154811061084957610849610d54565b9060005260206000200154606a828154811061086757610867610d54565b9060005260206000200154945094505050509091565b8061088781610ceb565b9150506107fa565b600054610100900460ff16806108a8575060005460ff16155b6108c45760405162461bcd60e51b815260040161016190610d06565b600054610100900460ff1615801561067d576000805461ffff19166101011790558015610428576000805461ff001916905550565b600054610100900460ff1680610912575060005460ff16155b61092e5760405162461bcd60e51b815260040161016190610d06565b600054610100900460ff16158015610950576000805461ffff19166101011790555b61067d33610691565b604080516001600160a01b038516602082015290810183905260009082906060016040516020818303038152906040528051906020012060001c61099d9190610e13565b949350505050565b8280548282559060005260206000209081019282156109e0579160200282015b828111156109e05782358255916020019190600101906109c5565b506109ec9291506109f0565b5090565b5b808211156109ec57600081556001016109f1565b60008083601f840112610a1757600080fd5b50813567ffffffffffffffff811115610a2f57600080fd5b6020830191508360208260051b8501011115610a4a57600080fd5b9250929050565b60008060008060008060008060008060a08b8d031215610a7057600080fd5b8a3567ffffffffffffffff80821115610a8857600080fd5b610a948e838f01610a05565b909c509a5060208d0135915080821115610aad57600080fd5b610ab98e838f01610a05565b909a50985060408d0135915080821115610ad257600080fd5b610ade8e838f01610a05565b909850965060608d0135915080821115610af757600080fd5b610b038e838f01610a05565b909650945060808d0135915080821115610b1c57600080fd5b50610b298d828e01610a05565b915080935050809150509295989b9194979a5092959850565b600060208284031215610b5457600080fd5b5035919050565b80356001600160a01b0381168114610b7257600080fd5b919050565b600080600080600080600080600080600060c08c8e031215610b9857600080fd5b610ba18c610b5b565b9a5067ffffffffffffffff8060208e01351115610bbd57600080fd5b610bcd8e60208f01358f01610a05565b909b50995060408d0135811015610be357600080fd5b610bf38e60408f01358f01610a05565b909950975060608d0135811015610c0957600080fd5b610c198e60608f01358f01610a05565b909750955060808d0135811015610c2f57600080fd5b610c3f8e60808f01358f01610a05565b909550935060a08d0135811015610c5557600080fd5b50610c668d60a08e01358e01610a05565b81935080925050509295989b509295989b9093969950565b600060208284031215610c9057600080fd5b610c9982610b5b565b9392505050565b6020808252818101527f4f776e61626c653a2063616c6c6572206973206e6f7420746865206f776e6572604082015260600190565b634e487b7160e01b600052601160045260246000fd5b6000600019821415610cff57610cff610cd5565b5060010190565b6020808252602e908201527f496e697469616c697a61626c653a20636f6e747261637420697320616c72656160408201526d191e481a5b9a5d1a585b1a5e995960921b606082015260800190565b634e487b7160e01b600052603260045260246000fd5b60008219821115610d7d57610d7d610cd5565b500190565b634e487b7160e01b600052604160045260246000fd5b600081518084526020808501945080840160005b83811015610dc857815187529582019590820190600101610dac565b509495945050505050565b6001600160a01b0384168152606060208201819052600090610df790830185610d98565b8281036040840152610e098185610d98565b9695505050505050565b600082610e3057634e487b7160e01b600052601260045260246000fd5b50069056fea2646970667358221220eec8a8b2c54468a6bf52f5c63117e74f8ea10e8e19465f6929b9a742f52a1a1364736f6c63430008090033",
  "linkReferences": {},
  "deployedLinkReferences": {}
}