{
  "_format": "hh-sol-artifact-1",
  "contractName": "PIXMerkleMinter",
  "sourceName": "contracts/core/PIXMerkleMinter.sol",
  "abi": [
    {
      "anonymous": false,
      "inputs": [
        {
          "indexed": true,
          "internalType": "address",
          "name": "previousOwner",
          "type": "address"
        },
        {
          "indexed": true,
          "internalType": "address",
          "name": "newOwner",
          "type": "address"
        }
      ],
      "name": "OwnershipTransferred",
      "type": "event"
    },
    {
      "inputs": [
        {
          "internalType": "address",
          "name": "",
          "type": "address"
        },
        {
          "internalType": "address",
          "name": "",
          "type": "address"
        }
      ],
      "name": "alternativeAddresses",
      "outputs": [
        {
          "internalType": "bool",
          "name": "",
          "type": "bool"
        }
      ],
      "stateMutability": "view",
      "type": "function"
    },
    {
      "inputs": [
        {
          "internalType": "address",
          "name": "",
          "type": "address"
        }
      ],
      "name": "alternativeToOwnerAddress",
      "outputs": [
        {
          "internalType": "address",
          "name": "",
          "type": "address"
        }
      ],
      "stateMutability": "view",
      "type": "function"
    },
    {
      "inputs": [
        {
          "internalType": "address",
          "name": "",
          "type": "address"
        }
      ],
      "name": "delegateMinters",
      "outputs": [
        {
          "internalType": "bool",
          "name": "",
          "type": "bool"
        }
      ],
      "stateMutability": "view",
      "type": "function"
    },
    {
      "inputs": [
        {
          "internalType": "address",
          "name": "to",
          "type": "address"
        },
        {
          "components": [
            {
              "internalType": "uint256",
              "name": "pixId",
              "type": "uint256"
            },
            {
              "internalType": "enum IPIX.PIXCategory",
              "name": "category",
              "type": "uint8"
            },
            {
              "internalType": "enum IPIX.PIXSize",
              "name": "size",
              "type": "uint8"
            }
          ],
          "internalType": "struct IPIX.PIXInfo",
          "name": "info",
          "type": "tuple"
        },
        {
          "internalType": "bytes32",
          "name": "merkleRoot",
          "type": "bytes32"
        },
        {
          "internalType": "bytes32[]",
          "name": "merkleProofs",
          "type": "bytes32[]"
        }
      ],
      "name": "disableProof",
      "outputs": [],
      "stateMutability": "nonpayable",
      "type": "function"
    },
    {
      "inputs": [
        {
          "internalType": "address",
          "name": "_pix",
          "type": "address"
        }
      ],
      "name": "initialize",
      "outputs": [],
      "stateMutability": "nonpayable",
      "type": "function"
    },
    {
      "inputs": [
        {
          "internalType": "bytes32",
          "name": "",
          "type": "bytes32"
        }
      ],
      "name": "leafUsed",
      "outputs": [
        {
          "internalType": "bool",
          "name": "",
          "type": "bool"
        }
      ],
      "stateMutability": "view",
      "type": "function"
    },
    {
      "inputs": [
        {
          "internalType": "bytes32",
          "name": "",
          "type": "bytes32"
        }
      ],
      "name": "merkleRoots",
      "outputs": [
        {
          "internalType": "bool",
          "name": "",
          "type": "bool"
        }
      ],
      "stateMutability": "view",
      "type": "function"
    },
    {
      "inputs": [
        {
          "internalType": "address",
          "name": "to",
          "type": "address"
        },
        {
          "components": [
            {
              "internalType": "uint256",
              "name": "pixId",
              "type": "uint256"
            },
            {
              "internalType": "enum IPIX.PIXCategory",
              "name": "category",
              "type": "uint8"
            },
            {
              "internalType": "enum IPIX.PIXSize",
              "name": "size",
              "type": "uint8"
            }
          ],
          "internalType": "struct IPIX.PIXInfo",
          "name": "info",
          "type": "tuple"
        },
        {
          "internalType": "bytes32",
          "name": "merkleRoot",
          "type": "bytes32"
        },
        {
          "internalType": "bytes32[]",
          "name": "merkleProofs",
          "type": "bytes32[]"
        }
      ],
      "name": "mintByProof",
      "outputs": [],
      "stateMutability": "nonpayable",
      "type": "function"
    },
    {
      "inputs": [
        {
          "internalType": "address",
          "name": "to",
          "type": "address"
        },
        {
          "components": [
            {
              "internalType": "uint256",
              "name": "pixId",
              "type": "uint256"
            },
            {
              "internalType": "enum IPIX.PIXCategory",
              "name": "category",
              "type": "uint8"
            },
            {
              "internalType": "enum IPIX.PIXSize",
              "name": "size",
              "type": "uint8"
            }
          ],
          "internalType": "struct IPIX.PIXInfo[]",
          "name": "info",
          "type": "tuple[]"
        },
        {
          "internalType": "bytes32[]",
          "name": "merkleRoot",
          "type": "bytes32[]"
        },
        {
          "internalType": "bytes32[][]",
          "name": "merkleProofs",
          "type": "bytes32[][]"
        }
      ],
      "name": "mintByProofInBatch",
      "outputs": [],
      "stateMutability": "nonpayable",
      "type": "function"
    },
    {
      "inputs": [
        {
          "internalType": "address",
          "name": "destination",
          "type": "address"
        },
        {
          "internalType": "address",
          "name": "oldOwner",
          "type": "address"
        },
        {
          "components": [
            {
              "internalType": "uint256",
              "name": "pixId",
              "type": "uint256"
            },
            {
              "internalType": "enum IPIX.PIXCategory",
              "name": "category",
              "type": "uint8"
            },
            {
              "internalType": "enum IPIX.PIXSize",
              "name": "size",
              "type": "uint8"
            }
          ],
          "internalType": "struct IPIX.PIXInfo",
          "name": "info",
          "type": "tuple"
        },
        {
          "internalType": "bytes32",
          "name": "merkleRoot",
          "type": "bytes32"
        },
        {
          "internalType": "bytes32[]",
          "name": "merkleProofs",
          "type": "bytes32[]"
        }
      ],
      "name": "mintToNewOwner",
      "outputs": [
        {
          "internalType": "uint256",
          "name": "",
          "type": "uint256"
        }
      ],
      "stateMutability": "nonpayable",
      "type": "function"
    },
    {
      "inputs": [
        {
          "internalType": "address",
          "name": "destination",
          "type": "address"
        },
        {
          "internalType": "address",
          "name": "oldOwner",
          "type": "address"
        },
        {
          "components": [
            {
              "internalType": "uint256",
              "name": "pixId",
              "type": "uint256"
            },
            {
              "internalType": "enum IPIX.PIXCategory",
              "name": "category",
              "type": "uint8"
            },
            {
              "internalType": "enum IPIX.PIXSize",
              "name": "size",
              "type": "uint8"
            }
          ],
          "internalType": "struct IPIX.PIXInfo[]",
          "name": "info",
          "type": "tuple[]"
        },
        {
          "internalType": "bytes32[]",
          "name": "merkleRoot",
          "type": "bytes32[]"
        },
        {
          "internalType": "bytes32[][]",
          "name": "merkleProofs",
          "type": "bytes32[][]"
        }
      ],
      "name": "mintToNewOwnerInBatch",
      "outputs": [
        {
          "internalType": "uint256[]",
          "name": "",
          "type": "uint256[]"
        }
      ],
      "stateMutability": "nonpayable",
      "type": "function"
    },
    {
      "inputs": [],
      "name": "moderator",
      "outputs": [
        {
          "internalType": "address",
          "name": "",
          "type": "address"
        }
      ],
      "stateMutability": "view",
      "type": "function"
    },
    {
      "inputs": [],
      "name": "owner",
      "outputs": [
        {
          "internalType": "address",
          "name": "",
          "type": "address"
        }
      ],
      "stateMutability": "view",
      "type": "function"
    },
    {
      "inputs": [],
      "name": "pix",
      "outputs": [
        {
          "internalType": "contract IPIX",
          "name": "",
          "type": "address"
        }
      ],
      "stateMutability": "view",
      "type": "function"
    },
    {
      "inputs": [],
      "name": "renounceOwnership",
      "outputs": [],
      "stateMutability": "nonpayable",
      "type": "function"
    },
    {
      "inputs": [
        {
          "internalType": "address",
          "name": "original",
          "type": "address"
        },
        {
          "internalType": "address",
          "name": "alternative",
          "type": "address"
        },
        {
          "internalType": "bool",
          "name": "toSet",
          "type": "bool"
        }
      ],
      "name": "setAlternativeAddress",
      "outputs": [],
      "stateMutability": "nonpayable",
      "type": "function"
    },
    {
      "inputs": [
        {
          "internalType": "address",
          "name": "_minter",
          "type": "address"
        },
        {
          "internalType": "bool",
          "name": "enabled",
          "type": "bool"
        }
      ],
      "name": "setDelegateMinter",
      "outputs": [],
      "stateMutability": "nonpayable",
      "type": "function"
    },
    {
      "inputs": [
        {
          "internalType": "bytes32",
          "name": "_merkleRoot",
          "type": "bytes32"
        },
        {
          "internalType": "bool",
          "name": "add",
          "type": "bool"
        }
      ],
      "name": "setMerkleRoot",
      "outputs": [],
      "stateMutability": "nonpayable",
      "type": "function"
    },
    {
      "inputs": [
        {
          "internalType": "address",
          "name": "mod",
          "type": "address"
        }
      ],
      "name": "setModerator",
      "outputs": [],
      "stateMutability": "nonpayable",
      "type": "function"
    },
    {
      "inputs": [
        {
          "internalType": "address",
          "name": "newOwner",
          "type": "address"
        }
      ],
      "name": "transferOwnership",
      "outputs": [],
      "stateMutability": "nonpayable",
      "type": "function"
    }
  ],
  "bytecode": "0x608060405234801561001057600080fd5b506118bf806100206000396000f3fe608060405234801561001057600080fd5b506004361061012c5760003560e01c806396006a4e116100ad578063c5e6421711610071578063c5e64217146102b1578063e7ff1261146102df578063f2fde38b146102f2578063fe5a537714610305578063fffc0f5c1461032857600080fd5b806396006a4e1461024557806396e11ebe14610258578063a5920ee41461026b578063a8f1c6d81461028b578063c4d66de81461029e57600080fd5b806338743904116100f457806338743904146101f35780636868136e14610206578063715018a61461021957806375bba189146102215780638da5cb5b1461023457600080fd5b80630a653b86146101315780630f53a4911461016957806312e30ad41461017e57806320156b0a1461019f5780632746a11f146101b2575b600080fd5b61015461013f36600461110e565b60686020526000908152604090205460ff1681565b60405190151581526020015b60405180910390f35b61017c610177366004611140565b61034b565b005b61019161018c36600461124f565b6103a9565b604051908152602001610160565b61017c6101ad3660046112cf565b6105a3565b6101db6101c036600461110e565b606b602052600090815260409020546001600160a01b031681565b6040516001600160a01b039091168152602001610160565b6069546101db906001600160a01b031681565b61017c6102143660046112cf565b610731565b61017c610806565b61017c61022f36600461110e565b61083c565b6033546001600160a01b03166101db565b61017c6102533660046113e3565b610888565b61017c610266366004611476565b61095e565b61027e6102793660046114b9565b610a33565b604051610160919061156f565b61017c6102993660046115b3565b610b81565b61017c6102ac36600461110e565b610bcb565b6101546102bf3660046115d6565b606a60209081526000928352604080842090915290825290205460ff1681565b6067546101db906001600160a01b031681565b61017c61030036600461110e565b610ca4565b610154610313366004611600565b60656020526000908152604090205460ff1681565b610154610336366004611600565b60666020526000908152604090205460ff1681565b6033546001600160a01b0316331461037e5760405162461bcd60e51b815260040161037590611619565b60405180910390fd5b6001600160a01b03919091166000908152606860205260409020805460ff1916911515919091179055565b3360009081526068602052604081205460ff166104085760405162461bcd60e51b815260206004820152601860248201527f5069783a206e6f742064656c6567617465206d696e74657200000000000000006044820152606401610375565b60008481526065602052604090205460ff166104365760405162461bcd60e51b81526004016103759061164e565b60006104458787878787610d3f565b9050806104645760405162461bcd60e51b815260040161037590611679565b60008181526066602052604090205460ff16156104935760405162461bcd60e51b8152600401610375906116a5565b60008181526066602052604090819020805460ff19166001179055606754905163786c850d60e01b81526001600160a01b039091169063786c850d906104df908b908a906004016116f0565b600060405180830381600087803b1580156104f957600080fd5b505af115801561050d573d6000803e3d6000fd5b50505050606760009054906101000a90046001600160a01b03166001600160a01b031663f84ddf0b6040518163ffffffff1660e01b815260040160206040518083038186803b15801561055f57600080fd5b505afa158015610573573d6000803e3d6000fd5b505050506040513d601f19601f82011682018060405250810190610597919061173b565b98975050505050505050565b60008381526065602052604090205460ff166105d15760405162461bcd60e51b81526004016103759061164e565b6001600160a01b0385163314806106025750336000908152606b60205260409020546001600160a01b038681169116145b61064e5760405162461bcd60e51b815260206004820181905260248201527f5069783a20616c7465726e61746976652061646472657373206e6f74207365746044820152606401610375565b600061065d3386868686610d3f565b90508061067c5760405162461bcd60e51b815260040161037590611679565b60008181526066602052604090205460ff16156106ab5760405162461bcd60e51b8152600401610375906116a5565b60008181526066602052604090819020805460ff19166001179055606754905163786c850d60e01b81526001600160a01b039091169063786c850d906106f790339089906004016116f0565b600060405180830381600087803b15801561071157600080fd5b505af1158015610725573d6000803e3d6000fd5b50505050505050505050565b6033546001600160a01b0316331461075b5760405162461bcd60e51b815260040161037590611619565b60008381526065602052604090205460ff166107895760405162461bcd60e51b81526004016103759061164e565b60006107988686868686610d3f565b9050806107b75760405162461bcd60e51b815260040161037590611679565b60008181526066602052604090205460ff16156107e65760405162461bcd60e51b8152600401610375906116a5565b6000908152606660205260409020805460ff191660011790555050505050565b6033546001600160a01b031633146108305760405162461bcd60e51b815260040161037590611619565b61083a6000610e99565b565b6033546001600160a01b031633146108665760405162461bcd60e51b815260040161037590611619565b606980546001600160a01b0319166001600160a01b0392909216919091179055565b8451831480156108985750845181145b6108da5760405162461bcd60e51b81526020600482015260136024820152720a0d2f07440d2dcecc2d8d2c840d8cadccee8d606b1b6044820152606401610375565b845160005b8181101561095457610942888883815181106108fd576108fd611754565b602002602001015188888581811061091757610917611754565b9050602002013587878681811061093057610930611754565b90506020028101906101ad919061176a565b61094d6001826117ca565b90506108df565b5050505050505050565b6069546001600160a01b031633148061098157506033546001600160a01b031633145b6109cd5760405162461bcd60e51b815260206004820152601860248201527f5069783a204e4f545f4f574e45525f4d4f44455241544f5200000000000000006044820152606401610375565b60018115151415610a0a57506001600160a01b039081166000908152606b6020526040902080546001600160a01b03191692909116919091179055565b506001600160a01b03166000908152606b6020526040902080546001600160a01b031916905550565b606060008651118015610a465750855184145b8015610a525750855182145b610a945760405162461bcd60e51b81526020600482015260136024820152720a0d2f07440d2dcecc2d8d2c840d8cadccee8d606b1b6044820152606401610375565b855160008167ffffffffffffffff811115610ab157610ab1611173565b604051908082528060200260200182016040528015610ada578160200160208202803683370190505b50905060005b82811015610b7357610b448b8b8b8481518110610aff57610aff611754565b60200260200101518b8b86818110610b1957610b19611754565b905060200201358a8a87818110610b3257610b32611754565b905060200281019061018c919061176a565b828281518110610b5657610b56611754565b6020908102919091010152610b6c6001826117ca565b9050610ae0565b509998505050505050505050565b6033546001600160a01b03163314610bab5760405162461bcd60e51b815260040161037590611619565b600091825260656020526040909120805460ff1916911515919091179055565b600054610100900460ff1680610be4575060005460ff16155b610c005760405162461bcd60e51b8152600401610375906117e2565b600054610100900460ff16158015610c22576000805461ffff19166101011790555b6001600160a01b038216610c6b5760405162461bcd60e51b815260206004820152601060248201526f0a0d2f07440929cac82989288bea092b60831b6044820152606401610375565b610c73610eeb565b606780546001600160a01b0319166001600160a01b0384161790558015610ca0576000805461ff00191690555b5050565b6033546001600160a01b03163314610cce5760405162461bcd60e51b815260040161037590611619565b6001600160a01b038116610d335760405162461bcd60e51b815260206004820152602660248201527f4f776e61626c653a206e6577206f776e657220697320746865207a65726f206160448201526564647265737360d01b6064820152608401610375565b610d3c81610e99565b50565b60008086866000015187602001518860400151604051602001610d659493929190611830565b604051602081830303815290604052805190602001209050610dbd848480806020026020016040519081016040528093929190818152602001838360200280828437600092019190915250899250859150610f669050565b15610dc9579050610e90565b6001600160a01b038781166000908152606b60205260409020541615610e8a576001600160a01b038088166000908152606b60209081526040918290205489518a8301518b8501519451610e269693909316949193909201611830565b604051602081830303815290604052805190602001209050610e7e848480806020026020016040519081016040528093929190818152602001838360200280828437600092019190915250899250859150610f669050565b15610e8a579050610e90565b50600090505b95945050505050565b603380546001600160a01b038381166001600160a01b0319831681179093556040519116919082907f8be0079c531659141344cd1fd0a4f28419497f9722a3daafe3b4186f6b6457e090600090a35050565b600054610100900460ff1680610f04575060005460ff16155b610f205760405162461bcd60e51b8152600401610375906117e2565b600054610100900460ff16158015610f42576000805461ffff19166101011790555b610f4a610f7c565b610f52610fe6565b8015610d3c576000805461ff001916905550565b600082610f738584611046565b14949350505050565b600054610100900460ff1680610f95575060005460ff16155b610fb15760405162461bcd60e51b8152600401610375906117e2565b600054610100900460ff16158015610f52576000805461ffff19166101011790558015610d3c576000805461ff001916905550565b600054610100900460ff1680610fff575060005460ff16155b61101b5760405162461bcd60e51b8152600401610375906117e2565b600054610100900460ff1615801561103d576000805461ffff19166101011790555b610f5233610e99565b600081815b84518110156110ea57600085828151811061106857611068611754565b602002602001015190508083116110aa5760408051602081018590529081018290526060016040516020818303038152906040528051906020012092506110d7565b60408051602081018390529081018490526060016040516020818303038152906040528051906020012092505b50806110e28161186e565b91505061104b565b509392505050565b80356001600160a01b038116811461110957600080fd5b919050565b60006020828403121561112057600080fd5b611129826110f2565b9392505050565b8035801515811461110957600080fd5b6000806040838503121561115357600080fd5b61115c836110f2565b915061116a60208401611130565b90509250929050565b634e487b7160e01b600052604160045260246000fd5b60058110610d3c57600080fd5b6000606082840312156111a857600080fd5b6040516060810181811067ffffffffffffffff821117156111cb576111cb611173565b6040528235815290508060208301356111e381611189565b602082015260408301356111f681611189565b6040919091015292915050565b60008083601f84011261121557600080fd5b50813567ffffffffffffffff81111561122d57600080fd5b6020830191508360208260051b850101111561124857600080fd5b9250929050565b60008060008060008060e0878903121561126857600080fd5b611271876110f2565b955061127f602088016110f2565b945061128e8860408901611196565b935060a0870135925060c087013567ffffffffffffffff8111156112b157600080fd5b6112bd89828a01611203565b979a9699509497509295939492505050565b600080600080600060c086880312156112e757600080fd5b6112f0866110f2565b94506112ff8760208801611196565b93506080860135925060a086013567ffffffffffffffff81111561132257600080fd5b61132e88828901611203565b969995985093965092949392505050565b600082601f83011261135057600080fd5b8135602067ffffffffffffffff8083111561136d5761136d611173565b604051601f19603f8560051b01168101818110838211171561139157611391611173565b604052838152606093840286018301938382019250878511156113b357600080fd5b8387015b858110156113d6576113c98982611196565b84529284019281016113b7565b5090979650505050505050565b600080600080600080608087890312156113fc57600080fd5b611405876110f2565b9550602087013567ffffffffffffffff8082111561142257600080fd5b61142e8a838b0161133f565b9650604089013591508082111561144457600080fd5b6114508a838b01611203565b9096509450606089013591508082111561146957600080fd5b506112bd89828a01611203565b60008060006060848603121561148b57600080fd5b611494846110f2565b92506114a2602085016110f2565b91506114b060408501611130565b90509250925092565b600080600080600080600060a0888a0312156114d457600080fd5b6114dd886110f2565b96506114eb602089016110f2565b9550604088013567ffffffffffffffff8082111561150857600080fd5b6115148b838c0161133f565b965060608a013591508082111561152a57600080fd5b6115368b838c01611203565b909650945060808a013591508082111561154f57600080fd5b5061155c8a828b01611203565b989b979a50959850939692959293505050565b6020808252825182820181905260009190848201906040850190845b818110156115a75783518352928401929184019160010161158b565b50909695505050505050565b600080604083850312156115c657600080fd5b8235915061116a60208401611130565b600080604083850312156115e957600080fd5b6115f2836110f2565b915061116a602084016110f2565b60006020828403121561161257600080fd5b5035919050565b6020808252818101527f4f776e61626c653a2063616c6c6572206973206e6f7420746865206f776e6572604082015260600190565b602080825260119082015270141a5e0e881a5b9d985b1a59081c9bdbdd607a1b604082015260600190565b6020808252601290820152712834bc1d1034b73b30b634b210383937b7b360711b604082015260600190565b602080825260139082015272141a5e0e88185b1c9958591e481b5a5b9d1959606a1b604082015260600190565b60058110610d3c57634e487b7160e01b600052602160045260246000fd5b6001600160a01b038316815281516020808301919091528201516080820190611718816116d2565b80604084015250604083015161172d816116d2565b806060840152509392505050565b60006020828403121561174d57600080fd5b5051919050565b634e487b7160e01b600052603260045260246000fd5b6000808335601e1984360301811261178157600080fd5b83018035915067ffffffffffffffff82111561179c57600080fd5b6020019150600581901b360382131561124857600080fd5b634e487b7160e01b600052601160045260246000fd5b600082198211156117dd576117dd6117b4565b500190565b6020808252602e908201527f496e697469616c697a61626c653a20636f6e747261637420697320616c72656160408201526d191e481a5b9a5d1a585b1a5e995960921b606082015260800190565b6001600160a01b03851681526020810184905260808101611850846116d2565b83604083015261185f836116d2565b82606083015295945050505050565b6000600019821415611882576118826117b4565b506001019056fea264697066735822122025be4e248f9d75c559cfc9fe6b72fc8b17790503fff8d9abcaf1e9ff84e588e064736f6c63430008090033",
  "linkReferences": {},
  "deployedLinkReferences": {}
}