{
  "_format": "hh-sol-artifact-1",
  "contractName": "PIXT",
  "sourceName": "contracts/core/PIXT.sol",
  "abi": [
    {
      "inputs": [],
      "stateMutability": "nonpayable",
      "type": "constructor"
    },
    {
      "anonymous": false,
      "inputs": [
        {
          "indexed": true,
          "internalType": "address",
          "name": "owner",
          "type": "address"
        },
        {
          "indexed": true,
          "internalType": "address",
          "name": "spender",
          "type": "address"
        },
        {
          "indexed": false,
          "internalType": "uint256",
          "name": "value",
          "type": "uint256"
        }
      ],
      "name": "Approval",
      "type": "event"
    },
    {
      "anonymous": false,
      "inputs": [
        {
          "indexed": true,
          "internalType": "address",
          "name": "from",
          "type": "address"
        },
        {
          "indexed": true,
          "internalType": "address",
          "name": "to",
          "type": "address"
        },
        {
          "indexed": false,
          "internalType": "uint256",
          "name": "value",
          "type": "uint256"
        }
      ],
      "name": "Transfer",
      "type": "event"
    },
    {
      "inputs": [
        {
          "internalType": "address",
          "name": "owner",
          "type": "address"
        },
        {
          "internalType": "address",
          "name": "spender",
          "type": "address"
        }
      ],
      "name": "allowance",
      "outputs": [
        {
          "internalType": "uint256",
          "name": "",
          "type": "uint256"
        }
      ],
      "stateMutability": "view",
      "type": "function"
    },
    {
      "inputs": [
        {
          "internalType": "address",
          "name": "spender",
          "type": "address"
        },
        {
          "internalType": "uint256",
          "name": "amount",
          "type": "uint256"
        }
      ],
      "name": "approve",
      "outputs": [
        {
          "internalType": "bool",
          "name": "",
          "type": "bool"
        }
      ],
      "stateMutability": "nonpayable",
      "type": "function"
    },
    {
      "inputs": [
        {
          "internalType": "address",
          "name": "account",
          "type": "address"
        }
      ],
      "name": "balanceOf",
      "outputs": [
        {
          "internalType": "uint256",
          "name": "",
          "type": "uint256"
        }
      ],
      "stateMutability": "view",
      "type": "function"
    },
    {
      "inputs": [
        {
          "internalType": "uint256",
          "name": "amount",
          "type": "uint256"
        }
      ],
      "name": "burn",
      "outputs": [],
      "stateMutability": "nonpayable",
      "type": "function"
    },
    {
      "inputs": [
        {
          "internalType": "address",
          "name": "account",
          "type": "address"
        },
        {
          "internalType": "uint256",
          "name": "amount",
          "type": "uint256"
        }
      ],
      "name": "burnFrom",
      "outputs": [],
      "stateMutability": "nonpayable",
      "type": "function"
    },
    {
      "inputs": [],
      "name": "decimals",
      "outputs": [
        {
          "internalType": "uint8",
          "name": "",
          "type": "uint8"
        }
      ],
      "stateMutability": "view",
      "type": "function"
    },
    {
      "inputs": [
        {
          "internalType": "address",
          "name": "spender",
          "type": "address"
        },
        {
          "internalType": "uint256",
          "name": "subtractedValue",
          "type": "uint256"
        }
      ],
      "name": "decreaseAllowance",
      "outputs": [
        {
          "internalType": "bool",
          "name": "",
          "type": "bool"
        }
      ],
      "stateMutability": "nonpayable",
      "type": "function"
    },
    {
      "inputs": [
        {
          "internalType": "address",
          "name": "spender",
          "type": "address"
        },
        {
          "internalType": "uint256",
          "name": "addedValue",
          "type": "uint256"
        }
      ],
      "name": "increaseAllowance",
      "outputs": [
        {
          "internalType": "bool",
          "name": "",
          "type": "bool"
        }
      ],
      "stateMutability": "nonpayable",
      "type": "function"
    },
    {
      "inputs": [],
      "name": "name",
      "outputs": [
        {
          "internalType": "string",
          "name": "",
          "type": "string"
        }
      ],
      "stateMutability": "view",
      "type": "function"
    },
    {
      "inputs": [
        {
          "internalType": "address",
          "name": "",
          "type": "address"
        }
      ],
      "name": "nonces",
      "outputs": [
        {
          "internalType": "uint256",
          "name": "",
          "type": "uint256"
        }
      ],
      "stateMutability": "view",
      "type": "function"
    },
    {
      "inputs": [
        {
          "internalType": "address",
          "name": "owner",
          "type": "address"
        },
        {
          "internalType": "address",
          "name": "spender",
          "type": "address"
        },
        {
          "internalType": "uint256",
          "name": "amount",
          "type": "uint256"
        },
        {
          "internalType": "address",
          "name": "nftToken",
          "type": "address"
        },
        {
          "internalType": "uint256",
          "name": "tokenId",
          "type": "uint256"
        },
        {
          "internalType": "uint8",
          "name": "v",
          "type": "uint8"
        },
        {
          "internalType": "bytes32",
          "name": "r",
          "type": "bytes32"
        },
        {
          "internalType": "bytes32",
          "name": "s",
          "type": "bytes32"
        }
      ],
      "name": "permitForBid",
      "outputs": [],
      "stateMutability": "nonpayable",
      "type": "function"
    },
    {
      "inputs": [],
      "name": "symbol",
      "outputs": [
        {
          "internalType": "string",
          "name": "",
          "type": "string"
        }
      ],
      "stateMutability": "view",
      "type": "function"
    },
    {
      "inputs": [],
      "name": "totalSupply",
      "outputs": [
        {
          "internalType": "uint256",
          "name": "",
          "type": "uint256"
        }
      ],
      "stateMutability": "view",
      "type": "function"
    },
    {
      "inputs": [
        {
          "internalType": "address",
          "name": "recipient",
          "type": "address"
        },
        {
          "internalType": "uint256",
          "name": "amount",
          "type": "uint256"
        }
      ],
      "name": "transfer",
      "outputs": [
        {
          "internalType": "bool",
          "name": "",
          "type": "bool"
        }
      ],
      "stateMutability": "nonpayable",
      "type": "function"
    },
    {
      "inputs": [
        {
          "internalType": "address",
          "name": "sender",
          "type": "address"
        },
        {
          "internalType": "address",
          "name": "recipient",
          "type": "address"
        },
        {
          "internalType": "uint256",
          "name": "amount",
          "type": "uint256"
        }
      ],
      "name": "transferFrom",
      "outputs": [
        {
          "internalType": "bool",
          "name": "",
          "type": "bool"
        }
      ],
      "stateMutability": "nonpayable",
      "type": "function"
    }
  ],
  "bytecode": "0x6101406040523480156200001257600080fd5b50604051806040016040528060088152602001670a0d8c2dccae892b60c31b815250604051806040016040528060018152602001603160f81b815250604051806040016040528060088152602001670a0d8c2dccae892b60c31b8152506040518060400160405280600381526020016212561560ea1b8152508160039080519060200190620000a392919062000250565b508051620000b990600490602084019062000250565b5050825160209384012082519284019290922060e08390526101008190524660a0818152604080517f8b73c3c69bb8fe3d512ecc4cf759cc79239f7b179b0ffacaa9a75d522b39400f818901819052818301979097526060810194909452608080850193909352308483018190528151808603909301835260c094850190915281519190960120905292909252610120525062000162336a7ec5b12ffc5370ab50000062000168565b6200035a565b6001600160a01b038216620001c35760405162461bcd60e51b815260206004820152601f60248201527f45524332303a206d696e7420746f20746865207a65726f206164647265737300604482015260640160405180910390fd5b8060026000828254620001d79190620002f6565b90915550506001600160a01b0382166000908152602081905260408120805483929062000206908490620002f6565b90915550506040518181526001600160a01b038316906000907fddf252ad1be2c89b69c2b068fc378daa952ba7f163c4a11628f55a4df523b3ef9060200160405180910390a35050565b8280546200025e906200031d565b90600052602060002090601f016020900481019282620002825760008555620002cd565b82601f106200029d57805160ff1916838001178555620002cd565b82800160010185558215620002cd579182015b82811115620002cd578251825591602001919060010190620002b0565b50620002db929150620002df565b5090565b5b80821115620002db5760008155600101620002e0565b600082198211156200031857634e487b7160e01b600052601160045260246000fd5b500190565b600181811c908216806200033257607f821691505b602082108114156200035457634e487b7160e01b600052602260045260246000fd5b50919050565b60805160a05160c05160e05161010051610120516111c0620003aa6000396000610bcc01526000610c1b01526000610bf601526000610b4f01526000610b7901526000610ba301526111c06000f3fe608060405234801561001057600080fd5b50600436106100f55760003560e01c806370a0823111610097578063a457c2d711610066578063a457c2d7146101fb578063a9059cbb1461020e578063cdbd546314610221578063dd62ed3e1461023457600080fd5b806370a082311461019757806379cc6790146101c05780637ecebe00146101d357806395d89b41146101f357600080fd5b806323b872dd116100d357806323b872dd1461014d578063313ce56714610160578063395093511461016f57806342966c681461018257600080fd5b806306fdde03146100fa578063095ea7b31461011857806318160ddd1461013b575b600080fd5b61010261026d565b60405161010f9190610f11565b60405180910390f35b61012b610126366004610f82565b6102ff565b604051901515815260200161010f565b6002545b60405190815260200161010f565b61012b61015b366004610fac565b610315565b6040516012815260200161010f565b61012b61017d366004610f82565b6103c4565b610195610190366004610fe8565b610400565b005b61013f6101a5366004611001565b6001600160a01b031660009081526020819052604090205490565b6101956101ce366004610f82565b61040d565b61013f6101e1366004611001565b60056020526000908152604090205481565b610102610493565b61012b610209366004610f82565b6104a2565b61012b61021c366004610f82565b61053b565b61019561022f366004611023565b610548565b61013f6102423660046110a6565b6001600160a01b03918216600090815260016020908152604080832093909416825291909152205490565b60606003805461027c906110d9565b80601f01602080910402602001604051908101604052809291908181526020018280546102a8906110d9565b80156102f55780601f106102ca576101008083540402835291602001916102f5565b820191906000526020600020905b8154815290600101906020018083116102d857829003601f168201915b5050505050905090565b600061030c338484610685565b50600192915050565b60006103228484846107a9565b6001600160a01b0384166000908152600160209081526040808320338452909152902054828110156103ac5760405162461bcd60e51b815260206004820152602860248201527f45524332303a207472616e7366657220616d6f756e74206578636565647320616044820152676c6c6f77616e636560c01b60648201526084015b60405180910390fd5b6103b98533858403610685565b506001949350505050565b3360008181526001602090815260408083206001600160a01b0387168452909152812054909161030c9185906103fb90869061112a565b610685565b61040a3382610978565b50565b60006104198333610242565b9050818110156104775760405162461bcd60e51b8152602060048201526024808201527f45524332303a206275726e20616d6f756e74206578636565647320616c6c6f77604482015263616e636560e01b60648201526084016103a3565b6104848333848403610685565b61048e8383610978565b505050565b60606004805461027c906110d9565b3360009081526001602090815260408083206001600160a01b0386168452909152812054828110156105245760405162461bcd60e51b815260206004820152602560248201527f45524332303a2064656372656173656420616c6c6f77616e63652062656c6f77604482015264207a65726f60d81b60648201526084016103a3565b6105313385858403610685565b5060019392505050565b600061030c3384846107a9565b6001600160a01b03881660009081526005602052604081208054908261056d83611142565b90915550604080517fff874e51819bee5f64ed624b1e6d883cea512187b29af1dfef5db6c92c83c0616020808301919091526001600160a01b038d8116838501528c81166060840152608083018c90528a1660a083015260c0820189905260e080830185905283518084039091018152610100909201909252805191012090915060006105f982610ac6565b9050600061060982888888610b1a565b90508b6001600160a01b0316816001600160a01b03161461066c5760405162461bcd60e51b815260206004820152601760248201527f504958543a20494e56414c49445f5349474e415455524500000000000000000060448201526064016103a3565b6106778c8c8c610685565b505050505050505050505050565b6001600160a01b0383166106e75760405162461bcd60e51b8152602060048201526024808201527f45524332303a20617070726f76652066726f6d20746865207a65726f206164646044820152637265737360e01b60648201526084016103a3565b6001600160a01b0382166107485760405162461bcd60e51b815260206004820152602260248201527f45524332303a20617070726f766520746f20746865207a65726f206164647265604482015261737360f01b60648201526084016103a3565b6001600160a01b0383811660008181526001602090815260408083209487168084529482529182902085905590518481527f8c5be1e5ebec7d5bd14f71427d1e84f3dd0314c0f7b2291e5b200ac8c7c3b925910160405180910390a3505050565b6001600160a01b03831661080d5760405162461bcd60e51b815260206004820152602560248201527f45524332303a207472616e736665722066726f6d20746865207a65726f206164604482015264647265737360d81b60648201526084016103a3565b6001600160a01b03821661086f5760405162461bcd60e51b815260206004820152602360248201527f45524332303a207472616e7366657220746f20746865207a65726f206164647260448201526265737360e81b60648201526084016103a3565b6001600160a01b038316600090815260208190526040902054818110156108e75760405162461bcd60e51b815260206004820152602660248201527f45524332303a207472616e7366657220616d6f756e7420657863656564732062604482015265616c616e636560d01b60648201526084016103a3565b6001600160a01b0380851660009081526020819052604080822085850390559185168152908120805484929061091e90849061112a565b92505081905550826001600160a01b0316846001600160a01b03167fddf252ad1be2c89b69c2b068fc378daa952ba7f163c4a11628f55a4df523b3ef8460405161096a91815260200190565b60405180910390a350505050565b6001600160a01b0382166109d85760405162461bcd60e51b815260206004820152602160248201527f45524332303a206275726e2066726f6d20746865207a65726f206164647265736044820152607360f81b60648201526084016103a3565b6001600160a01b03821660009081526020819052604090205481811015610a4c5760405162461bcd60e51b815260206004820152602260248201527f45524332303a206275726e20616d6f756e7420657863656564732062616c616e604482015261636560f01b60648201526084016103a3565b6001600160a01b0383166000908152602081905260408120838303905560028054849290610a7b90849061115d565b90915550506040518281526000906001600160a01b038516907fddf252ad1be2c89b69c2b068fc378daa952ba7f163c4a11628f55a4df523b3ef9060200160405180910390a3505050565b6000610b14610ad3610b42565b8360405161190160f01b6020820152602281018390526042810182905260009060620160405160208183030381529060405280519060200120905092915050565b92915050565b6000806000610b2b87878787610c69565b91509150610b3881610d56565b5095945050505050565b6000306001600160a01b037f000000000000000000000000000000000000000000000000000000000000000016148015610b9b57507f000000000000000000000000000000000000000000000000000000000000000046145b15610bc557507f000000000000000000000000000000000000000000000000000000000000000090565b50604080517f00000000000000000000000000000000000000000000000000000000000000006020808301919091527f0000000000000000000000000000000000000000000000000000000000000000828401527f000000000000000000000000000000000000000000000000000000000000000060608301524660808301523060a0808401919091528351808403909101815260c0909201909252805191012090565b6000807f7fffffffffffffffffffffffffffffff5d576e7357a4501ddfe92f46681b20a0831115610ca05750600090506003610d4d565b8460ff16601b14158015610cb857508460ff16601c14155b15610cc95750600090506004610d4d565b6040805160008082526020820180845289905260ff881692820192909252606081018690526080810185905260019060a0016020604051602081039080840390855afa158015610d1d573d6000803e3d6000fd5b5050604051601f1901519150506001600160a01b038116610d4657600060019250925050610d4d565b9150600090505b94509492505050565b6000816004811115610d6a57610d6a611174565b1415610d735750565b6001816004811115610d8757610d87611174565b1415610dd55760405162461bcd60e51b815260206004820152601860248201527f45434453413a20696e76616c6964207369676e6174757265000000000000000060448201526064016103a3565b6002816004811115610de957610de9611174565b1415610e375760405162461bcd60e51b815260206004820152601f60248201527f45434453413a20696e76616c6964207369676e6174757265206c656e6774680060448201526064016103a3565b6003816004811115610e4b57610e4b611174565b1415610ea45760405162461bcd60e51b815260206004820152602260248201527f45434453413a20696e76616c6964207369676e6174757265202773272076616c604482015261756560f01b60648201526084016103a3565b6004816004811115610eb857610eb8611174565b141561040a5760405162461bcd60e51b815260206004820152602260248201527f45434453413a20696e76616c6964207369676e6174757265202776272076616c604482015261756560f01b60648201526084016103a3565b600060208083528351808285015260005b81811015610f3e57858101830151858201604001528201610f22565b81811115610f50576000604083870101525b50601f01601f1916929092016040019392505050565b80356001600160a01b0381168114610f7d57600080fd5b919050565b60008060408385031215610f9557600080fd5b610f9e83610f66565b946020939093013593505050565b600080600060608486031215610fc157600080fd5b610fca84610f66565b9250610fd860208501610f66565b9150604084013590509250925092565b600060208284031215610ffa57600080fd5b5035919050565b60006020828403121561101357600080fd5b61101c82610f66565b9392505050565b600080600080600080600080610100898b03121561104057600080fd5b61104989610f66565b975061105760208a01610f66565b96506040890135955061106c60608a01610f66565b94506080890135935060a089013560ff8116811461108957600080fd5b979a969950949793969295929450505060c08201359160e0013590565b600080604083850312156110b957600080fd5b6110c283610f66565b91506110d060208401610f66565b90509250929050565b600181811c908216806110ed57607f821691505b6020821081141561110e57634e487b7160e01b600052602260045260246000fd5b50919050565b634e487b7160e01b600052601160045260246000fd5b6000821982111561113d5761113d611114565b500190565b600060001982141561115657611156611114565b5060010190565b60008282101561116f5761116f611114565b500390565b634e487b7160e01b600052602160045260246000fdfea2646970667358221220822a29cf6d949e3bdfd28bea975efa8d5ac093adb34584036eace81c5a99256064736f6c63430008090033",
  "linkReferences": {},
  "deployedLinkReferences": {}
}