{
  "_format": "hh-sol-artifact-1",
  "contractName": "WasteTrader",
  "sourceName": "contracts/mission_control/WasteTrader.sol",
  "abi": [
    {
      "inputs": [
        {
          "internalType": "uint256",
          "name": "orderId",
          "type": "uint256"
        }
      ],
      "name": "WasteTrader__InvalidOrderId",
      "type": "error"
    },
    {
      "inputs": [
        {
          "internalType": "uint256",
          "name": "_tokenOrderAmount",
          "type": "uint256"
        }
      ],
      "name": "WasteTrader__MaximumOrderAmountExceeded",
      "type": "error"
    },
    {
      "inputs": [
        {
          "internalType": "uint256",
          "name": "_required",
          "type": "uint256"
        }
      ],
      "name": "WasteTrader__MinimumOrderNotMet",
      "type": "error"
    },
    {
      "inputs": [
        {
          "internalType": "address",
          "name": "_player",
          "type": "address"
        }
      ],
      "name": "WasteTrader__NoOrdersPlaced",
      "type": "error"
    },
    {
      "inputs": [],
      "name": "WasteTrader__NotGovernance",
      "type": "error"
    },
    {
      "inputs": [
        {
          "internalType": "address",
          "name": "_player",
          "type": "address"
        },
        {
          "internalType": "uint256",
          "name": "_d",
          "type": "uint256"
        }
      ],
      "name": "WasteTrader__OrderNotYetCompleted",
      "type": "error"
    },
    {
      "inputs": [
        {
          "internalType": "uint256",
          "name": "_mintableAmount",
          "type": "uint256"
        }
      ],
      "name": "WasteTrader__SpeedUpUnitsExceedClaimAmount",
      "type": "error"
    },
    {
      "inputs": [],
      "name": "WasteTrader__ZeroAddress",
      "type": "error"
    },
    {
      "inputs": [
        {
          "internalType": "uint256",
          "name": "orderId",
          "type": "uint256"
        }
      ],
      "name": "WasteTrader__speedUpNotAvailable",
      "type": "error"
    },
    {
      "anonymous": false,
      "inputs": [
        {
          "indexed": true,
          "internalType": "address",
          "name": "player",
          "type": "address"
        },
        {
          "indexed": true,
          "internalType": "uint256",
          "name": "tokenId",
          "type": "uint256"
        },
        {
          "indexed": false,
          "internalType": "uint256",
          "name": "amount",
          "type": "uint256"
        }
      ],
      "name": "MintedMissionControl",
      "type": "event"
    },
    {
      "anonymous": false,
      "inputs": [
        {
          "indexed": true,
          "internalType": "address",
          "name": "previousOwner",
          "type": "address"
        },
        {
          "indexed": true,
          "internalType": "address",
          "name": "newOwner",
          "type": "address"
        }
      ],
      "name": "OwnershipTransferred",
      "type": "event"
    },
    {
      "anonymous": false,
      "inputs": [
        {
          "indexed": true,
          "internalType": "address",
          "name": "player",
          "type": "address"
        },
        {
          "indexed": false,
          "internalType": "uint256",
          "name": "orderId",
          "type": "uint256"
        }
      ],
      "name": "WasteOrderCompleted",
      "type": "event"
    },
    {
      "anonymous": false,
      "inputs": [
        {
          "indexed": true,
          "internalType": "address",
          "name": "player",
          "type": "address"
        },
        {
          "indexed": false,
          "internalType": "uint256",
          "name": "amount",
          "type": "uint256"
        }
      ],
      "name": "WasteOrderPlaced",
      "type": "event"
    },
    {
      "anonymous": false,
      "inputs": [
        {
          "indexed": true,
          "internalType": "address",
          "name": "player",
          "type": "address"
        },
        {
          "indexed": false,
          "internalType": "uint256",
          "name": "amount",
          "type": "uint256"
        },
        {
          "indexed": false,
          "internalType": "uint256",
          "name": "orderId",
          "type": "uint256"
        }
      ],
      "name": "WasteOrderSpedUp",
      "type": "event"
    },
    {
      "inputs": [],
      "name": "MAXIMUM_BASIS_POINTS",
      "outputs": [
        {
          "internalType": "uint256",
          "name": "",
          "type": "uint256"
        }
      ],
      "stateMutability": "view",
      "type": "function"
    },
    {
      "inputs": [],
      "name": "MINT_MESSAGE",
      "outputs": [
        {
          "internalType": "string",
          "name": "",
          "type": "string"
        }
      ],
      "stateMutability": "view",
      "type": "function"
    },
    {
      "inputs": [
        {
          "internalType": "bytes32",
          "name": "hash",
          "type": "bytes32"
        },
        {
          "internalType": "bytes",
          "name": "signature",
          "type": "bytes"
        },
        {
          "internalType": "address",
          "name": "to",
          "type": "address"
        },
        {
          "internalType": "uint256",
          "name": "amount",
          "type": "uint256"
        },
        {
          "internalType": "uint256",
          "name": "nonce",
          "type": "uint256"
        }
      ],
      "name": "checkMintValidity",
      "outputs": [
        {
          "internalType": "bool",
          "name": "",
          "type": "bool"
        }
      ],
      "stateMutability": "view",
      "type": "function"
    },
    {
      "inputs": [],
      "name": "claimBatchOrder",
      "outputs": [],
      "stateMutability": "nonpayable",
      "type": "function"
    },
    {
      "inputs": [
        {
          "internalType": "uint256",
          "name": "_orderId",
          "type": "uint256"
        }
      ],
      "name": "claimOrder",
      "outputs": [],
      "stateMutability": "nonpayable",
      "type": "function"
    },
    {
      "inputs": [],
      "name": "getExchangeRate",
      "outputs": [
        {
          "internalType": "uint256",
          "name": "_numerator",
          "type": "uint256"
        },
        {
          "internalType": "uint256",
          "name": "_denominator",
          "type": "uint256"
        }
      ],
      "stateMutability": "view",
      "type": "function"
    },
    {
      "inputs": [],
      "name": "getFeeWallet",
      "outputs": [
        {
          "internalType": "address",
          "name": "",
          "type": "address"
        }
      ],
      "stateMutability": "view",
      "type": "function"
    },
    {
      "inputs": [],
      "name": "getGwsMax",
      "outputs": [
        {
          "internalType": "uint8",
          "name": "",
          "type": "uint8"
        }
      ],
      "stateMutability": "view",
      "type": "function"
    },
    {
      "inputs": [],
      "name": "getGwsMinimumOrder",
      "outputs": [
        {
          "internalType": "uint256",
          "name": "",
          "type": "uint256"
        }
      ],
      "stateMutability": "view",
      "type": "function"
    },
    {
      "inputs": [],
      "name": "getGwsSpeedupCost",
      "outputs": [
        {
          "internalType": "uint8",
          "name": "",
          "type": "uint8"
        }
      ],
      "stateMutability": "view",
      "type": "function"
    },
    {
      "inputs": [],
      "name": "getGwsTax",
      "outputs": [
        {
          "internalType": "uint256",
          "name": "",
          "type": "uint256"
        }
      ],
      "stateMutability": "view",
      "type": "function"
    },
    {
      "inputs": [],
      "name": "getGwsTime",
      "outputs": [
        {
          "internalType": "uint256",
          "name": "",
          "type": "uint256"
        }
      ],
      "stateMutability": "view",
      "type": "function"
    },
    {
      "inputs": [],
      "name": "getIAssetManager",
      "outputs": [
        {
          "internalType": "contract IAssetManager",
          "name": "",
          "type": "address"
        }
      ],
      "stateMutability": "view",
      "type": "function"
    },
    {
      "inputs": [],
      "name": "getModerator",
      "outputs": [
        {
          "internalType": "address",
          "name": "",
          "type": "address"
        }
      ],
      "stateMutability": "view",
      "type": "function"
    },
    {
      "inputs": [
        {
          "internalType": "address",
          "name": "_player",
          "type": "address"
        }
      ],
      "name": "getOrders",
      "outputs": [
        {
          "components": [
            {
              "internalType": "uint256",
              "name": "orderId",
              "type": "uint256"
            },
            {
              "internalType": "uint256",
              "name": "orderAmount",
              "type": "uint256"
            },
            {
              "internalType": "uint256",
              "name": "createdAt",
              "type": "uint256"
            },
            {
              "internalType": "uint256",
              "name": "speedUpDeductedAmount",
              "type": "uint256"
            },
            {
              "internalType": "uint256",
              "name": "totalCompletionTime",
              "type": "uint256"
            }
          ],
          "internalType": "struct ITrader.Order[]",
          "name": "",
          "type": "tuple[]"
        }
      ],
      "stateMutability": "view",
      "type": "function"
    },
    {
      "inputs": [],
      "name": "getSigner",
      "outputs": [
        {
          "internalType": "address",
          "name": "",
          "type": "address"
        }
      ],
      "stateMutability": "view",
      "type": "function"
    },
    {
      "inputs": [],
      "name": "getSpeedupTime",
      "outputs": [
        {
          "internalType": "uint256",
          "name": "",
          "type": "uint256"
        }
      ],
      "stateMutability": "view",
      "type": "function"
    },
    {
      "inputs": [
        {
          "internalType": "address",
          "name": "assetManagerImpl",
          "type": "address"
        },
        {
          "internalType": "address",
          "name": "gwsWalletAddress",
          "type": "address"
        },
        {
          "internalType": "uint256",
          "name": "numerator",
          "type": "uint256"
        },
        {
          "internalType": "uint256",
          "name": "denominator",
          "type": "uint256"
        },
        {
          "internalType": "uint256",
          "name": "gwsTime",
          "type": "uint256"
        },
        {
          "internalType": "uint256",
          "name": "speedupTime",
          "type": "uint256"
        },
        {
          "internalType": "uint256",
          "name": "gwsMinimumOrder",
          "type": "uint256"
        },
        {
          "internalType": "uint256",
          "name": "gwsTax",
          "type": "uint256"
        },
        {
          "internalType": "uint8",
          "name": "gwsMax",
          "type": "uint8"
        },
        {
          "internalType": "uint8",
          "name": "gwsSpeedupCost",
          "type": "uint8"
        }
      ],
      "name": "initialize",
      "outputs": [],
      "stateMutability": "nonpayable",
      "type": "function"
    },
    {
      "inputs": [],
      "name": "nextOrderId",
      "outputs": [
        {
          "internalType": "uint256",
          "name": "",
          "type": "uint256"
        }
      ],
      "stateMutability": "view",
      "type": "function"
    },
    {
      "inputs": [],
      "name": "owner",
      "outputs": [
        {
          "internalType": "address",
          "name": "",
          "type": "address"
        }
      ],
      "stateMutability": "view",
      "type": "function"
    },
    {
      "inputs": [
        {
          "internalType": "uint256",
          "name": "_wasteAmount",
          "type": "uint256"
        }
      ],
      "name": "placeWasteOrder",
      "outputs": [],
      "stateMutability": "nonpayable",
      "type": "function"
    },
    {
      "inputs": [],
      "name": "renounceOwnership",
      "outputs": [],
      "stateMutability": "nonpayable",
      "type": "function"
    },
    {
      "inputs": [],
      "name": "s_denominator",
      "outputs": [
        {
          "internalType": "uint256",
          "name": "",
          "type": "uint256"
        }
      ],
      "stateMutability": "view",
      "type": "function"
    },
    {
      "inputs": [],
      "name": "s_gwsMax",
      "outputs": [
        {
          "internalType": "uint8",
          "name": "",
          "type": "uint8"
        }
      ],
      "stateMutability": "view",
      "type": "function"
    },
    {
      "inputs": [],
      "name": "s_gwsMinimumOrder",
      "outputs": [
        {
          "internalType": "uint256",
          "name": "",
          "type": "uint256"
        }
      ],
      "stateMutability": "view",
      "type": "function"
    },
    {
      "inputs": [],
      "name": "s_gwsSpeedupCost",
      "outputs": [
        {
          "internalType": "uint8",
          "name": "",
          "type": "uint8"
        }
      ],
      "stateMutability": "view",
      "type": "function"
    },
    {
      "inputs": [],
      "name": "s_gwsTax",
      "outputs": [
        {
          "internalType": "uint256",
          "name": "",
          "type": "uint256"
        }
      ],
      "stateMutability": "view",
      "type": "function"
    },
    {
      "inputs": [],
      "name": "s_gwsTime",
      "outputs": [
        {
          "internalType": "uint256",
          "name": "",
          "type": "uint256"
        }
      ],
      "stateMutability": "view",
      "type": "function"
    },
    {
      "inputs": [],
      "name": "s_numerator",
      "outputs": [
        {
          "internalType": "uint256",
          "name": "",
          "type": "uint256"
        }
      ],
      "stateMutability": "view",
      "type": "function"
    },
    {
      "inputs": [],
      "name": "s_speedupTime",
      "outputs": [
        {
          "internalType": "uint256",
          "name": "",
          "type": "uint256"
        }
      ],
      "stateMutability": "view",
      "type": "function"
    },
    {
      "inputs": [
        {
          "internalType": "uint256",
          "name": "_numerator",
          "type": "uint256"
        },
        {
          "internalType": "uint256",
          "name": "_denominator",
          "type": "uint256"
        }
      ],
      "name": "setExchangeRate",
      "outputs": [],
      "stateMutability": "nonpayable",
      "type": "function"
    },
    {
      "inputs": [
        {
          "internalType": "address",
          "name": "_feeWallet",
          "type": "address"
        }
      ],
      "name": "setFeeWallet",
      "outputs": [],
      "stateMutability": "nonpayable",
      "type": "function"
    },
    {
      "inputs": [
        {
          "internalType": "uint8",
          "name": "_gwsMax",
          "type": "uint8"
        }
      ],
      "name": "setGwsMax",
      "outputs": [],
      "stateMutability": "nonpayable",
      "type": "function"
    },
    {
      "inputs": [
        {
          "internalType": "uint16",
          "name": "_gwsMinimumOrder",
          "type": "uint16"
        }
      ],
      "name": "setGwsMinimumOrder",
      "outputs": [],
      "stateMutability": "nonpayable",
      "type": "function"
    },
    {
      "inputs": [
        {
          "internalType": "uint8",
          "name": "_gwsSpeedupCost",
          "type": "uint8"
        }
      ],
      "name": "setGwsSpeedupCost",
      "outputs": [],
      "stateMutability": "nonpayable",
      "type": "function"
    },
    {
      "inputs": [
        {
          "internalType": "uint16",
          "name": "_gwsTax",
          "type": "uint16"
        }
      ],
      "name": "setGwsTax",
      "outputs": [],
      "stateMutability": "nonpayable",
      "type": "function"
    },
    {
      "inputs": [
        {
          "internalType": "uint256",
          "name": "_gwsTime",
          "type": "uint256"
        }
      ],
      "name": "setGwsTime",
      "outputs": [],
      "stateMutability": "nonpayable",
      "type": "function"
    },
    {
      "inputs": [
        {
          "internalType": "address",
          "name": "_iAssetManager",
          "type": "address"
        }
      ],
      "name": "setIAssetManager",
      "outputs": [],
      "stateMutability": "nonpayable",
      "type": "function"
    },
    {
      "inputs": [
        {
          "internalType": "address",
          "name": "_moderator",
          "type": "address"
        }
      ],
      "name": "setModerator",
      "outputs": [],
      "stateMutability": "nonpayable",
      "type": "function"
    },
    {
      "inputs": [
        {
          "internalType": "address",
          "name": "_signer",
          "type": "address"
        }
      ],
      "name": "setSigner",
      "outputs": [],
      "stateMutability": "nonpayable",
      "type": "function"
    },
    {
      "inputs": [
        {
          "internalType": "uint256",
          "name": "_speedupTime",
          "type": "uint256"
        }
      ],
      "name": "setSpeedupTime",
      "outputs": [],
      "stateMutability": "nonpayable",
      "type": "function"
    },
    {
      "inputs": [
        {
          "internalType": "uint256",
          "name": "_numSpeedUps",
          "type": "uint256"
        },
        {
          "internalType": "uint256",
          "name": "_orderId",
          "type": "uint256"
        }
      ],
      "name": "speedUpOrder",
      "outputs": [],
      "stateMutability": "nonpayable",
      "type": "function"
    },
    {
      "inputs": [
        {
          "internalType": "uint256",
          "name": "_numSpeedUps",
          "type": "uint256"
        },
        {
          "internalType": "uint256",
          "name": "_orderId",
          "type": "uint256"
        }
      ],
      "name": "IXTSpeedUpOrder",
      "outputs": [],
      "stateMutability": "nonpayable",
      "type": "function"
    },
    {
      "inputs": [
        {
          "internalType": "address",
          "name": "newOwner",
          "type": "address"
        }
      ],
      "name": "transferOwnership",
      "outputs": [],
      "stateMutability": "nonpayable",
      "type": "function"
    }
  ],
  "bytecode": "0x608060405234801561001057600080fd5b5061269c806100206000396000f3fe608060405234801561001057600080fd5b50600436106102685760003560e01c8063894e1fc111610151578063b926f3e7116100c3578063e6aa216c11610087578063e6aa216c14610510578063eaaa0b731461052b578063eceeb0441461053e578063f1630b9214610547578063f2fde38b14610552578063f55ecf061461056557600080fd5b8063b926f3e7146104c1578063c2030bbb146104d4578063c9d99934146104e7578063dd8ebaf4146104f4578063e544a2941461050757600080fd5b80639a81b139116101155780639a81b13914610462578063a12b84a11461046b578063a22c72ba14610474578063ae4cf2941461047d578063b3c1fee11461048d578063b697ed921461049e57600080fd5b8063894e1fc1146103fe5780638c06c4ab146104075780638da5cb5b1461042b57806390d49b9d1461043c5780639539c62d1461044f57600080fd5b80635459060d116101ea5780635dc86b85116101ae5780635dc86b85146103995780636c19e783146103ac578063715018a6146103bf57806375bba189146103c75780637ac3c02f146103da57806385aa0922146103eb57600080fd5b80635459060d1461033457806354cb4008146103455780635738e0f41461034e5780635bc85463146103565780635bfa78331461035e57600080fd5b80632a58b330116102315780632a58b330146102cd5780632cb19499146102d65780633a3f8239146102e957806348adfbdb146102fc578063520ea9dc1461032157600080fd5b80620db04f1461026d578063093376fe146102825780630e405ab0146102ab57806316e23a9d146102bd5780631a87bb4d146102c5575b600080fd5b61028061027b366004612149565b610578565b005b610295610290366004612149565b6105dd565b6040516102a29190612164565b60405180910390f35b609e545b6040519081526020016102a2565b609f546102af565b610280610682565b6102af60975481565b6102806102e43660046121d2565b61083a565b6102806102f73660046121f4565b610c76565b609a546001600160a01b03165b6040516001600160a01b0390911681526020016102a2565b61028061032f3660046121f4565b610d9d565b609b546001600160a01b0316610309565b6102af609e5481565b60a1546102af565b60a0546102af565b61038c6040518060400160405280600f81526020016e1b5a5cdcda5bdb8818dbdb9d1c9bdb608a1b81525081565b6040516102a2919061223d565b6102806103a7366004612281565b610f68565b6102806103ba366004612149565b610fc1565b610280611026565b6102806103d5366004612149565b61105c565b6098546001600160a01b0316610309565b6102806103f936600461229c565b6110cf565b6102af60a05481565b60a25461041990610100900460ff1681565b60405160ff90911681526020016102a2565b6033546001600160a01b0316610309565b61028061044a366004612149565b61111b565b61028061045d366004612281565b6111a7565b6102af61271081565b6102af609c5481565b6102af609d5481565b60a254610100900460ff16610419565b6099546001600160a01b0316610309565b6104b16104ac3660046122d6565b611206565b60405190151581526020016102a2565b6102806104cf36600461229c565b61132a565b6102806104e23660046121f4565b611376565b60a2546104199060ff1681565b6102806105023660046121f4565b6113be565b6102af609f5481565b609c54609d54604080519283526020830191909152016102a2565b6102806105393660046123b3565b611406565b6102af60a15481565b60a25460ff16610419565b610280610560366004612149565b611500565b6102806105733660046121d2565b61159b565b6033546001600160a01b03163314158061059d5750609a546001600160a01b03163314155b156105bb57604051637899ea9160e11b815260040160405180910390fd5b609980546001600160a01b0319166001600160a01b0392909216919091179055565b6001600160a01b038116600090815260a360209081526040808320805482518185028101850190935280835260609493849084015b8282101561067657838290600052602060002090600502016040518060a00160405290816000820154815260200160018201548152602001600282015481526020016003820154815260200160048201548152505081526020019060010190610612565b50929695505050505050565b33600090815260a36020908152604080832080548251818502810185019093528083529192909190849084015b8282101561071357838290600052602060002090600502016040518060a001604052908160008201548152602001600182015481526020016002820154815260200160038201548152602001600482015481525050815260200190600101906106af565b50505050905080516000141561074357604051631e2653e960e31b81523360048201526024015b60405180910390fd5b80515b8015610836576107788261075b600184612459565b8151811061076b5761076b612470565b60200260200101516115e9565b15610824576107b03360078461078f600186612459565b8151811061079f5761079f612470565b602002602001015160200151611607565b337f84cd032dd3272bec9dd42a3ca89e17a15193b98929afa9c5e58357cb840baa3e836107de600185612459565b815181106107ee576107ee612470565b60200260200101516000015160405161080991815260200190565b60405180910390a261082461081f600183612459565b611768565b8061082e8161249c565b915050610746565b5050565b6002606554141561088d5760405162461bcd60e51b815260206004820152601f60248201527f5265656e7472616e637947756172643a207265656e7472616e742063616c6c00604482015260640161073a565b600260655533600090815260a36020526040902080546108c257604051631e2653e960e31b815233600482015260240161073a565b60005b8154811015610c5057828282815481106108e1576108e1612470565b9060005260206000209060050201600001541415610c485761095e82828154811061090e5761090e612470565b90600052602060002090600502016040518060a0016040529081600082015481526020016001820154815260200160028201548152602001600382015481526020016004820154815250506115e9565b610c2c576000609d5483838154811061097957610979612470565b906000526020600020906005020160010154609c5461099891906124b3565b6109a291906124d2565b905060006109b260a15483611894565b9050600060a260019054906101000a900460ff1660ff16609f548686815481106109de576109de612470565b9060005260206000209060050201600301546109fa91906124d2565b610a0491906124b3565b9050610a108284612459565b60a254610a2590610100900460ff16896124b3565b610a2f90836124f4565b10610a505760405163afa7785d60e01b81526004810184905260240161073a565b609f54610a5d90886124b3565b858581548110610a6f57610a6f612470565b90600052602060002090600502016003016000828254610a8f91906124f4565b92505081905550600080868681548110610aab57610aab612470565b906000526020600020906005020160030154609e54610aca919061250c565b13610ad6576000610b07565b858581548110610ae857610ae8612470565b906000526020600020906005020160030154609e54610b079190612459565b905080868681548110610b1c57610b1c612470565b906000526020600020906005020160040181905550336001600160a01b03167f1e2467bf404017c9fd54c8e487c691a3740a020fd15a9b3c24fcb2791a327eb8878781548110610b6e57610b6e612470565b90600052602060002090600502016001015489604051610b98929190918252602082015260400190565b60405180910390a26099546001600160a01b0316630fa6f1cc33610bbc60076118b4565b60a254610bd190610100900460ff168d6124b3565b6040518463ffffffff1660e01b8152600401610bef9392919061254b565b600060405180830381600087803b158015610c0957600080fd5b505af1158015610c1d573d6000803e3d6000fd5b50505050505050505050610c6d565b60405163b56ad09f60e01b81526004810184905260240161073a565b6001016108c5565b50604051637d2907b560e11b81526004810183905260240161073a565b50506001606555565b33600090815260a3602052604090208054610ca657604051631e2653e960e31b815233600482015260240161073a565b60005b8154811015610c505782828281548110610cc557610cc5612470565b9060005260206000209060050201600001541415610d8b57610cf282828154811061090e5761090e612470565b15610d6957610d26336007848481548110610d0f57610d0f612470565b906000526020600020906005020160010154611607565b60405183815233907f84cd032dd3272bec9dd42a3ca89e17a15193b98929afa9c5e58357cb840baa3e9060200160405180910390a2610d6483611768565b505050565b60405163209e020760e11b81523360048201526024810184905260440161073a565b80610d958161256c565b915050610ca9565b60026065541415610df05760405162461bcd60e51b815260206004820152601f60248201527f5265656e7472616e637947756172643a207265656e7472616e742063616c6c00604482015260640161073a565b6002606555609e5415610f545733600090815260a36020908152604080832080548251818502810185019093528083529192909190849084015b82821015610e8e57838290600052602060002090600502016040518060a00160405290816000820154815260200160018201548152602001600282015481526020016003820154815260200160048201548152505081526020019060010190610e2a565b505050509050805160001415610eac57610ea7826118cc565b610f4e565b6000805b8251811015610f0657610ece83828151811061076b5761076b612470565b610efe57828181518110610ee457610ee4612470565b60200260200101516020015182610efb91906124f4565b91505b600101610eb0565b5060a25460ff16610f1784836124f4565b1115610f4357610f2783826124f4565b60405163924e15fb60e01b815260040161073a91815260200190565b610f4c836118cc565b505b50610f60565b610f6033600783611a4e565b506001606555565b6033546001600160a01b031633141580610f8d5750609a546001600160a01b03163314155b15610fab57604051637899ea9160e11b815260040160405180910390fd5b60a2805460ff191660ff92909216919091179055565b6033546001600160a01b031633141580610fe65750609a546001600160a01b03163314155b1561100457604051637899ea9160e11b815260040160405180910390fd5b609880546001600160a01b0319166001600160a01b0392909216919091179055565b6033546001600160a01b031633146110505760405162461bcd60e51b815260040161073a90612587565b61105a6000611b0e565b565b6033546001600160a01b031633146110865760405162461bcd60e51b815260040161073a90612587565b6001600160a01b0381166110ad5760405163ec13f96b60e01b815260040160405180910390fd5b609a80546001600160a01b0319166001600160a01b0392909216919091179055565b6033546001600160a01b0316331415806110f45750609a546001600160a01b03163314155b1561111257604051637899ea9160e11b815260040160405180910390fd5b61ffff1660a155565b6033546001600160a01b0316331415806111405750609a546001600160a01b03163314155b1561115e57604051637899ea9160e11b815260040160405180910390fd5b6001600160a01b0381166111855760405163ec13f96b60e01b815260040160405180910390fd5b609b80546001600160a01b0319166001600160a01b0392909216919091179055565b6033546001600160a01b0316331415806111cc5750609a546001600160a01b03163314155b156111ea57604051637899ea9160e11b815260040160405180910390fd5b60a2805460ff9092166101000261ff0019909216919091179055565b60008061126585856040518060400160405280600f81526020016e1b5a5cdcda5bdb8818dbdb9d1c9bdb608a1b8152508660405160200161124a94939291906125bc565b60405160208183030381529060405280519060200120611b60565b9050600061127288611b60565b90508082146112b75760405162461bcd60e51b815260206004820152601160248201527009c8ca87440929cac82989288be9082a69607b1b604482015260640161073a565b6098546001600160a01b03166112cd8289611bb3565b6001600160a01b03161461131c5760405162461bcd60e51b81526020600482015260166024820152754e46543a20494e56414c49445f5349474e415455524560501b604482015260640161073a565b506001979650505050505050565b6033546001600160a01b03163314158061134f5750609a546001600160a01b03163314155b1561136d57604051637899ea9160e11b815260040160405180910390fd5b61ffff1660a055565b6033546001600160a01b03163314158061139b5750609a546001600160a01b03163314155b156113b957604051637899ea9160e11b815260040160405180910390fd5b609f55565b6033546001600160a01b0316331415806113e35750609a546001600160a01b03163314155b1561140157604051637899ea9160e11b815260040160405180910390fd5b609e55565b600054610100900460ff168061141f575060005460ff16155b61143b5760405162461bcd60e51b815260040161073a90612602565b600054610100900460ff1615801561145d576000805461ffff19166101011790555b611465611bd7565b61146d611c52565b609980546001600160a01b03808e166001600160a01b031992831617909255609b8054928d1692821692909217909155609c8a9055609d899055609e889055609f87905560a086905560a185905560a2805460ff8581166101000261ffff1990921690871617179055609a80549091163317905580156114f3576000805461ff00191690555b5050505050505050505050565b6033546001600160a01b0316331461152a5760405162461bcd60e51b815260040161073a90612587565b6001600160a01b03811661158f5760405162461bcd60e51b815260206004820152602660248201527f4f776e61626c653a206e6577206f776e657220697320746865207a65726f206160448201526564647265737360d01b606482015260840161073a565b61159881611b0e565b50565b6033546001600160a01b0316331415806115c05750609a546001600160a01b03163314155b156115de57604051637899ea9160e11b815260040160405180910390fd5b609c91909155609d55565b6000428260800151836040015161160091906124f4565b1092915050565b6000611612836118b4565b90506000609d5483609c5461162791906124b3565b61163191906124d2565b9050600061164160a15483611894565b6099549091506001600160a01b03166353674f0e87856116618587612459565b6040518463ffffffff1660e01b815260040161167f9392919061254b565b600060405180830381600087803b15801561169957600080fd5b505af11580156116ad573d6000803e3d6000fd5b5050609954609b546040516329b3a78760e11b81526001600160a01b0392831694506353674f0e93506116ea92909116908790869060040161254b565b600060405180830381600087803b15801561170457600080fd5b505af1158015611718573d6000803e3d6000fd5b5050505082866001600160a01b03167fbe6a4aec6674d392cfce09709b6642eafb628164ba1362d0eeb3ecfac38f91108460405161175891815260200190565b60405180910390a3505050505050565b33600090815260a3602052604090205461178490600190612459565b8110156118405733600090815260a36020526040902080546117a890600190612459565b815481106117b8576117b8612470565b906000526020600020906005020160a36000336001600160a01b03166001600160a01b0316815260200190815260200160002082815481106117fc576117fc612470565b906000526020600020906005020160008201548160000155600182015481600101556002820154816002015560038201548160030155600482015481600401559050505b33600090815260a36020526040902080548061185e5761185e612650565b60008281526020812060056000199093019283020181815560018101829055600281018290556003810182905560040155905550565b60006127106118a384846124b3565b6118ad91906124d2565b9392505050565b600060078214156118c757600892915050565b919050565b60a25460ff168111156118f55760405163924e15fb60e01b81526004810182905260240161073a565b60a05481101561191e5760a0546040516346ff2f0960e01b815260040161073a91815260200190565b6097805490819060006119308361256c565b90915550506099546001600160a01b0316630fa6f1cc336007856040518463ffffffff1660e01b81526004016119689392919061254b565b600060405180830381600087803b15801561198257600080fd5b505af1158015611996573d6000803e3d6000fd5b505033600081815260a360209081526040808320815160a0810183528881528084018a81524282850190815260608301878152609e5460808501908152855460018181018855968a529790982093516005909702909301958655905192850192909255905160028401555160038301559151600490910155519092507f3b8e52fb39c697fc540bac9a2da08540b5596f52b9c4e786d875f9bf4f45fdd99150611a429085815260200190565b60405180910390a25050565b6000611a59836118b4565b90506000609d5483609c54611a6e91906124b3565b611a7891906124d2565b90506000611a8860a15483611894565b6099546040516303e9bc7360e21b81529192506001600160a01b031690630fa6f1cc90611abd9089908990899060040161254b565b600060405180830381600087803b158015611ad757600080fd5b505af1158015611aeb573d6000803e3d6000fd5b50506099546001600160a01b031691506353674f0e905087856116618587612459565b603380546001600160a01b038381166001600160a01b0319831681179093556040519116919082907f8be0079c531659141344cd1fd0a4f28419497f9722a3daafe3b4186f6b6457e090600090a35050565b6040517f19457468657265756d205369676e6564204d6573736167653a0a3332000000006020820152603c8101829052600090605c01604051602081830303815290604052805190602001209050919050565b6000806000611bc28585611cb1565b91509150611bcf81611d21565b509392505050565b600054610100900460ff1680611bf0575060005460ff16155b611c0c5760405162461bcd60e51b815260040161073a90612602565b600054610100900460ff16158015611c2e576000805461ffff19166101011790555b611c36611edc565b611c3e611f46565b8015611598576000805461ff001916905550565b600054610100900460ff1680611c6b575060005460ff16155b611c875760405162461bcd60e51b815260040161073a90612602565b600054610100900460ff16158015611ca9576000805461ffff19166101011790555b611c3e611fa6565b600080825160411415611ce85760208301516040840151606085015160001a611cdc87828585612016565b94509450505050611d1a565b825160401415611d125760208301516040840151611d07868383612103565b935093505050611d1a565b506000905060025b9250929050565b6000816004811115611d3557611d35612486565b1415611d3e5750565b6001816004811115611d5257611d52612486565b1415611da05760405162461bcd60e51b815260206004820152601860248201527f45434453413a20696e76616c6964207369676e61747572650000000000000000604482015260640161073a565b6002816004811115611db457611db4612486565b1415611e025760405162461bcd60e51b815260206004820152601f60248201527f45434453413a20696e76616c6964207369676e6174757265206c656e67746800604482015260640161073a565b6003816004811115611e1657611e16612486565b1415611e6f5760405162461bcd60e51b815260206004820152602260248201527f45434453413a20696e76616c6964207369676e6174757265202773272076616c604482015261756560f01b606482015260840161073a565b6004816004811115611e8357611e83612486565b14156115985760405162461bcd60e51b815260206004820152602260248201527f45434453413a20696e76616c6964207369676e6174757265202776272076616c604482015261756560f01b606482015260840161073a565b600054610100900460ff1680611ef5575060005460ff16155b611f115760405162461bcd60e51b815260040161073a90612602565b600054610100900460ff16158015611c3e576000805461ffff19166101011790558015611598576000805461ff001916905550565b600054610100900460ff1680611f5f575060005460ff16155b611f7b5760405162461bcd60e51b815260040161073a90612602565b600054610100900460ff16158015611f9d576000805461ffff19166101011790555b611c3e33611b0e565b600054610100900460ff1680611fbf575060005460ff16155b611fdb5760405162461bcd60e51b815260040161073a90612602565b600054610100900460ff16158015611ffd576000805461ffff19166101011790555b60016065558015611598576000805461ff001916905550565b6000807f7fffffffffffffffffffffffffffffff5d576e7357a4501ddfe92f46681b20a083111561204d57506000905060036120fa565b8460ff16601b1415801561206557508460ff16601c14155b1561207657506000905060046120fa565b6040805160008082526020820180845289905260ff881692820192909252606081018690526080810185905260019060a0016020604051602081039080840390855afa1580156120ca573d6000803e3d6000fd5b5050604051601f1901519150506001600160a01b0381166120f3576000600192509250506120fa565b9150600090505b94509492505050565b6000806001600160ff1b03831660ff84901c601b0161212487828885612016565b935093505050935093915050565b80356001600160a01b03811681146118c757600080fd5b60006020828403121561215b57600080fd5b6118ad82612132565b602080825282518282018190526000919060409081850190868401855b828110156121c55781518051855286810151878601528581015186860152606080820151908601526080908101519085015260a09093019290850190600101612181565b5091979650505050505050565b600080604083850312156121e557600080fd5b50508035926020909101359150565b60006020828403121561220657600080fd5b5035919050565b60005b83811015612228578181015183820152602001612210565b83811115612237576000848401525b50505050565b602081526000825180602084015261225c81604085016020870161220d565b601f01601f19169190910160400192915050565b803560ff811681146118c757600080fd5b60006020828403121561229357600080fd5b6118ad82612270565b6000602082840312156122ae57600080fd5b813561ffff811681146118ad57600080fd5b634e487b7160e01b600052604160045260246000fd5b600080600080600060a086880312156122ee57600080fd5b85359450602086013567ffffffffffffffff8082111561230d57600080fd5b818801915088601f83011261232157600080fd5b813581811115612333576123336122c0565b604051601f8201601f19908116603f0116810190838211818310171561235b5761235b6122c0565b816040528281528b602084870101111561237457600080fd5b82602086016020830137600060208483010152809850505050505061239b60408701612132565b94979396509394606081013594506080013592915050565b6000806000806000806000806000806101408b8d0312156123d357600080fd5b6123dc8b612132565b99506123ea60208c01612132565b985060408b0135975060608b0135965060808b0135955060a08b0135945060c08b0135935060e08b013592506124236101008c01612270565b91506124326101208c01612270565b90509295989b9194979a5092959850565b634e487b7160e01b600052601160045260246000fd5b60008282101561246b5761246b612443565b500390565b634e487b7160e01b600052603260045260246000fd5b634e487b7160e01b600052602160045260246000fd5b6000816124ab576124ab612443565b506000190190565b60008160001904831182151516156124cd576124cd612443565b500290565b6000826124ef57634e487b7160e01b600052601260045260246000fd5b500490565b6000821982111561250757612507612443565b500190565b60008083128015600160ff1b85018412161561252a5761252a612443565b6001600160ff1b038401831381161561254557612545612443565b50500390565b6001600160a01b039390931683526020830191909152604082015260600190565b600060001982141561258057612580612443565b5060010190565b6020808252818101527f4f776e61626c653a2063616c6c6572206973206e6f7420746865206f776e6572604082015260600190565b6bffffffffffffffffffffffff198560601b168152836014820152600083516125ec81603485016020880161220d565b6034920191820192909252605401949350505050565b6020808252602e908201527f496e697469616c697a61626c653a20636f6e747261637420697320616c72656160408201526d191e481a5b9a5d1a585b1a5e995960921b606082015260800190565b634e487b7160e01b600052603160045260246000fdfea264697066735822122002956257e9d96fdd8cbc9d937ce449db5f0524fecd513e62444f472823df279764736f6c63430008090033",
  "linkReferences": {},
  "deployedLinkReferences": {}
}