{
  "_format": "hh-sol-artifact-1",
  "contractName": "PIXLandmark",
  "sourceName": "contracts/core/PIXLandmark.sol",
  "abi": [
    {
      "anonymous": false,
      "inputs": [
        {
          "indexed": true,
          "internalType": "address",
          "name": "account",
          "type": "address"
        },
        {
          "indexed": true,
          "internalType": "address",
          "name": "operator",
          "type": "address"
        },
        {
          "indexed": false,
          "internalType": "bool",
          "name": "approved",
          "type": "bool"
        }
      ],
      "name": "ApprovalForAll",
      "type": "event"
    },
    {
      "anonymous": false,
      "inputs": [
        {
          "indexed": true,
          "internalType": "address",
          "name": "account",
          "type": "address"
        },
        {
          "indexed": true,
          "internalType": "uint256",
          "name": "tokenId",
          "type": "uint256"
        },
        {
          "indexed": false,
          "internalType": "uint256",
          "name": "amount",
          "type": "uint256"
        },
        {
          "indexed": false,
          "internalType": "enum IPIXLandmark.PIXCategory",
          "name": "category",
          "type": "uint8"
        }
      ],
      "name": "LandmarkMinted",
      "type": "event"
    },
    {
      "anonymous": false,
      "inputs": [
        {
          "indexed": true,
          "internalType": "address",
          "name": "previousOwner",
          "type": "address"
        },
        {
          "indexed": true,
          "internalType": "address",
          "name": "newOwner",
          "type": "address"
        }
      ],
      "name": "OwnershipTransferred",
      "type": "event"
    },
    {
      "anonymous": false,
      "inputs": [
        {
          "indexed": true,
          "internalType": "address",
          "name": "operator",
          "type": "address"
        },
        {
          "indexed": true,
          "internalType": "address",
          "name": "from",
          "type": "address"
        },
        {
          "indexed": true,
          "internalType": "address",
          "name": "to",
          "type": "address"
        },
        {
          "indexed": false,
          "internalType": "uint256[]",
          "name": "ids",
          "type": "uint256[]"
        },
        {
          "indexed": false,
          "internalType": "uint256[]",
          "name": "values",
          "type": "uint256[]"
        }
      ],
      "name": "TransferBatch",
      "type": "event"
    },
    {
      "anonymous": false,
      "inputs": [
        {
          "indexed": true,
          "internalType": "address",
          "name": "operator",
          "type": "address"
        },
        {
          "indexed": true,
          "internalType": "address",
          "name": "from",
          "type": "address"
        },
        {
          "indexed": true,
          "internalType": "address",
          "name": "to",
          "type": "address"
        },
        {
          "indexed": false,
          "internalType": "uint256",
          "name": "id",
          "type": "uint256"
        },
        {
          "indexed": false,
          "internalType": "uint256",
          "name": "value",
          "type": "uint256"
        }
      ],
      "name": "TransferSingle",
      "type": "event"
    },
    {
      "anonymous": false,
      "inputs": [
        {
          "indexed": false,
          "internalType": "string",
          "name": "value",
          "type": "string"
        },
        {
          "indexed": true,
          "internalType": "uint256",
          "name": "id",
          "type": "uint256"
        }
      ],
      "name": "URI",
      "type": "event"
    },
    {
      "inputs": [
        {
          "internalType": "address",
          "name": "account",
          "type": "address"
        },
        {
          "internalType": "uint256",
          "name": "id",
          "type": "uint256"
        }
      ],
      "name": "balanceOf",
      "outputs": [
        {
          "internalType": "uint256",
          "name": "",
          "type": "uint256"
        }
      ],
      "stateMutability": "view",
      "type": "function"
    },
    {
      "inputs": [
        {
          "internalType": "address[]",
          "name": "accounts",
          "type": "address[]"
        },
        {
          "internalType": "uint256[]",
          "name": "ids",
          "type": "uint256[]"
        }
      ],
      "name": "balanceOfBatch",
      "outputs": [
        {
          "internalType": "uint256[]",
          "name": "",
          "type": "uint256[]"
        }
      ],
      "stateMutability": "view",
      "type": "function"
    },
    {
      "inputs": [
        {
          "internalType": "address[]",
          "name": "_walletAddresses",
          "type": "address[]"
        },
        {
          "internalType": "uint256[]",
          "name": "_tokenIds",
          "type": "uint256[]"
        },
        {
          "internalType": "uint256[]",
          "name": "_amounts",
          "type": "uint256[]"
        }
      ],
      "name": "batchMint",
      "outputs": [],
      "stateMutability": "nonpayable",
      "type": "function"
    },
    {
      "inputs": [],
      "name": "changeProfitState",
      "outputs": [],
      "stateMutability": "nonpayable",
      "type": "function"
    },
    {
      "inputs": [
        {
          "internalType": "uint256",
          "name": "id",
          "type": "uint256"
        }
      ],
      "name": "exists",
      "outputs": [
        {
          "internalType": "bool",
          "name": "",
          "type": "bool"
        }
      ],
      "stateMutability": "view",
      "type": "function"
    },
    {
      "inputs": [
        {
          "internalType": "uint256",
          "name": "_tokenId",
          "type": "uint256"
        }
      ],
      "name": "getLandCategory",
      "outputs": [
        {
          "internalType": "enum IPIXLandmark.PIXCategory",
          "name": "",
          "type": "uint8"
        }
      ],
      "stateMutability": "view",
      "type": "function"
    },
    {
      "inputs": [
        {
          "internalType": "uint256",
          "name": "_tokenId",
          "type": "uint256"
        }
      ],
      "name": "getMaxSupply",
      "outputs": [
        {
          "internalType": "uint256",
          "name": "",
          "type": "uint256"
        }
      ],
      "stateMutability": "view",
      "type": "function"
    },
    {
      "inputs": [],
      "name": "initialize",
      "outputs": [],
      "stateMutability": "nonpayable",
      "type": "function"
    },
    {
      "inputs": [
        {
          "internalType": "address",
          "name": "account",
          "type": "address"
        },
        {
          "internalType": "address",
          "name": "operator",
          "type": "address"
        }
      ],
      "name": "isApprovedForAll",
      "outputs": [
        {
          "internalType": "bool",
          "name": "",
          "type": "bool"
        }
      ],
      "stateMutability": "view",
      "type": "function"
    },
    {
      "inputs": [
        {
          "internalType": "address",
          "name": "_walletAddress",
          "type": "address"
        }
      ],
      "name": "isModerator",
      "outputs": [
        {
          "internalType": "bool",
          "name": "",
          "type": "bool"
        }
      ],
      "stateMutability": "view",
      "type": "function"
    },
    {
      "inputs": [
        {
          "internalType": "uint256",
          "name": "_amount",
          "type": "uint256"
        },
        {
          "internalType": "address",
          "name": "_currency",
          "type": "address"
        }
      ],
      "name": "mint",
      "outputs": [],
      "stateMutability": "payable",
      "type": "function"
    },
    {
      "inputs": [],
      "name": "name",
      "outputs": [
        {
          "internalType": "string",
          "name": "",
          "type": "string"
        }
      ],
      "stateMutability": "view",
      "type": "function"
    },
    {
      "inputs": [],
      "name": "owner",
      "outputs": [
        {
          "internalType": "address",
          "name": "",
          "type": "address"
        }
      ],
      "stateMutability": "view",
      "type": "function"
    },
    {
      "inputs": [],
      "name": "renounceOwnership",
      "outputs": [],
      "stateMutability": "nonpayable",
      "type": "function"
    },
    {
      "inputs": [
        {
          "internalType": "address",
          "name": "from",
          "type": "address"
        },
        {
          "internalType": "address",
          "name": "to",
          "type": "address"
        },
        {
          "internalType": "uint256[]",
          "name": "ids",
          "type": "uint256[]"
        },
        {
          "internalType": "uint256[]",
          "name": "amounts",
          "type": "uint256[]"
        },
        {
          "internalType": "bytes",
          "name": "data",
          "type": "bytes"
        }
      ],
      "name": "safeBatchTransferFrom",
      "outputs": [],
      "stateMutability": "nonpayable",
      "type": "function"
    },
    {
      "inputs": [
        {
          "internalType": "address",
          "name": "_walletAddress",
          "type": "address"
        },
        {
          "internalType": "uint256",
          "name": "_tokenId",
          "type": "uint256"
        },
        {
          "internalType": "uint256",
          "name": "_amount",
          "type": "uint256"
        }
      ],
      "name": "safeMint",
      "outputs": [],
      "stateMutability": "nonpayable",
      "type": "function"
    },
    {
      "inputs": [
        {
          "internalType": "address",
          "name": "from",
          "type": "address"
        },
        {
          "internalType": "address",
          "name": "to",
          "type": "address"
        },
        {
          "internalType": "uint256",
          "name": "id",
          "type": "uint256"
        },
        {
          "internalType": "uint256",
          "name": "amount",
          "type": "uint256"
        },
        {
          "internalType": "bytes",
          "name": "data",
          "type": "bytes"
        }
      ],
      "name": "safeTransferFrom",
      "outputs": [],
      "stateMutability": "nonpayable",
      "type": "function"
    },
    {
      "inputs": [
        {
          "internalType": "address",
          "name": "operator",
          "type": "address"
        },
        {
          "internalType": "bool",
          "name": "approved",
          "type": "bool"
        }
      ],
      "name": "setApprovalForAll",
      "outputs": [],
      "stateMutability": "nonpayable",
      "type": "function"
    },
    {
      "inputs": [
        {
          "internalType": "string",
          "name": "_baseURI",
          "type": "string"
        }
      ],
      "name": "setBaseURI",
      "outputs": [],
      "stateMutability": "nonpayable",
      "type": "function"
    },
    {
      "inputs": [
        {
          "internalType": "uint256[]",
          "name": "_tokenIds",
          "type": "uint256[]"
        },
        {
          "internalType": "enum IPIXLandmark.PIXCategory[]",
          "name": "_categories",
          "type": "uint8[]"
        }
      ],
      "name": "setCategories",
      "outputs": [],
      "stateMutability": "nonpayable",
      "type": "function"
    },
    {
      "inputs": [
        {
          "internalType": "address",
          "name": "_contractAddress",
          "type": "address"
        }
      ],
      "name": "setIxtAddress",
      "outputs": [],
      "stateMutability": "nonpayable",
      "type": "function"
    },
    {
      "inputs": [
        {
          "internalType": "uint256[]",
          "name": "_tokenIds",
          "type": "uint256[]"
        },
        {
          "internalType": "uint256[]",
          "name": "_supplies",
          "type": "uint256[]"
        }
      ],
      "name": "setMaxSupplies",
      "outputs": [],
      "stateMutability": "nonpayable",
      "type": "function"
    },
    {
      "inputs": [
        {
          "internalType": "address",
          "name": "_moderator",
          "type": "address"
        },
        {
          "internalType": "bool",
          "name": "_approved",
          "type": "bool"
        }
      ],
      "name": "setModerator",
      "outputs": [],
      "stateMutability": "nonpayable",
      "type": "function"
    },
    {
      "inputs": [
        {
          "internalType": "address",
          "name": "_oracleManager",
          "type": "address"
        }
      ],
      "name": "setOracleManager",
      "outputs": [],
      "stateMutability": "nonpayable",
      "type": "function"
    },
    {
      "inputs": [
        {
          "internalType": "uint256",
          "name": "_price",
          "type": "uint256"
        }
      ],
      "name": "setPrice",
      "outputs": [],
      "stateMutability": "nonpayable",
      "type": "function"
    },
    {
      "inputs": [
        {
          "internalType": "address",
          "name": "_swapManager",
          "type": "address"
        }
      ],
      "name": "setSwapManager",
      "outputs": [],
      "stateMutability": "nonpayable",
      "type": "function"
    },
    {
      "inputs": [
        {
          "internalType": "address",
          "name": "_contractAddress",
          "type": "address"
        }
      ],
      "name": "setUsdtAddress",
      "outputs": [],
      "stateMutability": "nonpayable",
      "type": "function"
    },
    {
      "inputs": [
        {
          "internalType": "bytes4",
          "name": "interfaceId",
          "type": "bytes4"
        }
      ],
      "name": "supportsInterface",
      "outputs": [
        {
          "internalType": "bool",
          "name": "",
          "type": "bool"
        }
      ],
      "stateMutability": "view",
      "type": "function"
    },
    {
      "inputs": [],
      "name": "symbol",
      "outputs": [
        {
          "internalType": "string",
          "name": "",
          "type": "string"
        }
      ],
      "stateMutability": "view",
      "type": "function"
    },
    {
      "inputs": [
        {
          "internalType": "uint256",
          "name": "id",
          "type": "uint256"
        }
      ],
      "name": "totalSupply",
      "outputs": [
        {
          "internalType": "uint256",
          "name": "",
          "type": "uint256"
        }
      ],
      "stateMutability": "view",
      "type": "function"
    },
    {
      "inputs": [
        {
          "internalType": "address",
          "name": "newOwner",
          "type": "address"
        }
      ],
      "name": "transferOwnership",
      "outputs": [],
      "stateMutability": "nonpayable",
      "type": "function"
    },
    {
      "inputs": [
        {
          "internalType": "uint256",
          "name": "_tokenId",
          "type": "uint256"
        }
      ],
      "name": "uri",
      "outputs": [
        {
          "internalType": "string",
          "name": "",
          "type": "string"
        }
      ],
      "stateMutability": "view",
      "type": "function"
    },
    {
      "inputs": [
        {
          "internalType": "address[]",
          "name": "tokens",
          "type": "address[]"
        }
      ],
      "name": "withdraw",
      "outputs": [],
      "stateMutability": "nonpayable",
      "type": "function"
    }
  ],
  "bytecode": "0x6080604052610104805460ff1916600117905534801561001e57600080fd5b5061360c8061002e6000396000f3fe6080604052600436106101ed5760003560e01c8063715018a61161010d578063a22cb465116100a0578063e985e9c51161006f578063e985e9c5146105bb578063ea8c1ccf14610604578063f242432a14610624578063f2fde38b14610644578063fa6f39361461066457600080fd5b8063a22cb4651461052e578063bd5dec981461054e578063bd85b0391461056e578063d559f05b1461059b57600080fd5b806391b7f5ed116100dc57806391b7f5ed146104c6578063929e2e08146104e657806394bf804d1461050657806395d89b411461051957600080fd5b8063715018a6146104545780638129fc1c146104695780638674c6941461047e5780638da5cb5b1461049e57600080fd5b80632eb2c2d6116101855780634f558e79116101545780634f558e79146103c357806355f804b3146103f25780635e495d7414610412578063700a354e1461043f57600080fd5b80632eb2c2d61461033657806330284efc146103565780633ee2b01d146103765780634e1273f41461039657600080fd5b80630e89341c116101c15780630e89341c146102995780631ba4f665146102b957806324eeedf6146102d957806328e10a28146102f957600080fd5b8062fdd58e146101f257806301ffc9a71461022557806306fdde03146102555780630cb46b7514610277575b600080fd5b3480156101fe57600080fd5b5061021261020d3660046128c7565b61069e565b6040519081526020015b60405180910390f35b34801561023157600080fd5b50610245610240366004612907565b61073a565b604051901515815260200161021c565b34801561026157600080fd5b5061026a61078a565b60405161021c9190612987565b34801561028357600080fd5b5061029761029236600461299a565b61081c565b005b3480156102a557600080fd5b5061026a6102b43660046129b5565b61086f565b3480156102c557600080fd5b506102976102d4366004612a19565b6108ec565b3480156102e557600080fd5b506102976102f4366004612a84565b610a32565b34801561030557600080fd5b506103296103143660046129b5565b600090815260fe602052604090205460ff1690565b60405161021c9190612aef565b34801561034257600080fd5b50610297610351366004612c50565b610ab6565b34801561036257600080fd5b5061029761037136600461299a565b610b4d565b34801561038257600080fd5b50610297610391366004612d07565b610b9a565b3480156103a257600080fd5b506103b66103b1366004612d3e565b610c46565b60405161021c9190612e43565b3480156103cf57600080fd5b506102456103de3660046129b5565b600090815260976020526040902054151590565b3480156103fe57600080fd5b5061029761040d366004612e56565b610d6f565b34801561041e57600080fd5b5061021261042d3660046129b5565b600090815260ff602052604090205490565b34801561044b57600080fd5b50610297610db0565b34801561046057600080fd5b50610297610def565b34801561047557600080fd5b50610297610e25565b34801561048a57600080fd5b50610297610499366004612a19565b610f35565b3480156104aa57600080fd5b5060c9546040516001600160a01b03909116815260200161021c565b3480156104d257600080fd5b506102976104e13660046129b5565b6110e8565b3480156104f257600080fd5b5061029761050136600461299a565b611118565b610297610514366004612e9e565b611165565b34801561052557600080fd5b5061026a611569565b34801561053a57600080fd5b50610297610549366004612d07565b611578565b34801561055a57600080fd5b50610297610569366004612eca565b611583565b34801561057a57600080fd5b506102126105893660046129b5565b60009081526097602052604090205490565b3480156105a757600080fd5b506102976105b6366004612f0b565b611784565b3480156105c757600080fd5b506102456105d6366004612fa4565b6001600160a01b03918216600090815260666020908152604080832093909416825291909152205460ff1690565b34801561061057600080fd5b5061029761061f36600461299a565b611981565b34801561063057600080fd5b5061029761063f366004612fce565b6119ce565b34801561065057600080fd5b5061029761065f36600461299a565b611a55565b34801561067057600080fd5b5061024561067f36600461299a565b6001600160a01b03166000908152610100602052604090205460ff1690565b60006001600160a01b03831661070f5760405162461bcd60e51b815260206004820152602b60248201527f455243313135353a2062616c616e636520717565727920666f7220746865207a60448201526a65726f206164647265737360a81b60648201526084015b60405180910390fd5b5060008181526065602090815260408083206001600160a01b03861684529091529020545b92915050565b60006001600160e01b03198216636cdb3d1360e11b148061076b57506001600160e01b031982166303a24d0760e21b145b8061073457506301ffc9a760e01b6001600160e01b0319831614610734565b606060fb805461079990613032565b80601f01602080910402602001604051908101604052809291908181526020018280546107c590613032565b80156108125780601f106107e757610100808354040283529160200191610812565b820191906000526020600020905b8154815290600101906020018083116107f557829003601f168201915b5050505050905090565b60c9546001600160a01b031633146108465760405162461bcd60e51b81526004016107069061306d565b61010480546001600160a01b0390921661010002610100600160a81b0319909216919091179055565b6060600082116108ba5760405162461bcd60e51b81526020600482015260166024820152754c616e646d61726b3a204e4f545f4558495354494e4760501b6044820152606401610706565b60fd6108c583611aed565b6040516020016108d69291906130be565b6040516020818303038152906040529050919050565b60c9546001600160a01b031633146109165760405162461bcd60e51b81526004016107069061306d565b8281146109355760405162461bcd60e51b815260040161070690613165565b60008484808060200260200160405190810160405280939291908181526020018383602002808284376000920182905250604080516020808a0282810182019093528982529697509195919450889350879250829185019084908082843760009201829052509394505050505b8151811015610a29578181815181106109bd576109bd61319c565b602002602001015160fe60008584815181106109db576109db61319c565b6020026020010151815260200190815260200160002060006101000a81548160ff02191690836004811115610a1257610a12612ab7565b021790555080610a21816131c8565b9150506109a2565b50505050505050565b336000908152610100602052604090205460ff16610a625760405162461bcd60e51b8152600401610706906131e3565b600082815260ff6020908152604080832054609790925290912054610a8890839061321a565b1115610aa65760405162461bcd60e51b815260040161070690613232565b610ab1838383611bf2565b505050565b6001600160a01b038516331480610ad25750610ad285336105d6565b610b395760405162461bcd60e51b815260206004820152603260248201527f455243313135353a207472616e736665722063616c6c6572206973206e6f74206044820152711bdddb995c881b9bdc88185c1c1c9bdd995960721b6064820152608401610706565b610b468585858585611c9b565b5050505050565b60c9546001600160a01b03163314610b775760405162461bcd60e51b81526004016107069061306d565b61010280546001600160a01b0319166001600160a01b0392909216919091179055565b60c9546001600160a01b03163314610bc45760405162461bcd60e51b81526004016107069061306d565b6001600160a01b038216610c1a5760405162461bcd60e51b815260206004820152601b60248201527f4c616e646d61726b3a20494e56414c49445f4d4f44455241544f5200000000006044820152606401610706565b6001600160a01b0391909116600090815261010060205260409020805460ff1916911515919091179055565b60608151835114610cab5760405162461bcd60e51b815260206004820152602960248201527f455243313135353a206163636f756e747320616e6420696473206c656e677468604482015268040dad2e6dac2e8c6d60bb1b6064820152608401610706565b600083516001600160401b03811115610cc657610cc6612afd565b604051908082528060200260200182016040528015610cef578160200160208202803683370190505b50905060005b8451811015610d6757610d3a858281518110610d1357610d1361319c565b6020026020010151858381518110610d2d57610d2d61319c565b602002602001015161069e565b828281518110610d4c57610d4c61319c565b6020908102919091010152610d60816131c8565b9050610cf5565b509392505050565b60c9546001600160a01b03163314610d995760405162461bcd60e51b81526004016107069061306d565b8051610dac9060fd906020840190612812565b5050565b60c9546001600160a01b03163314610dda5760405162461bcd60e51b81526004016107069061306d565b610104805460ff19811660ff90911615179055565b60c9546001600160a01b03163314610e195760405162461bcd60e51b81526004016107069061306d565b610e236000611e89565b565b600054610100900460ff1680610e3e575060005460ff16155b610e5a5760405162461bcd60e51b815260040161070690613269565b600054610100900460ff16158015610e7c576000805461ffff19166101011790555b610e84611edb565b610e9c60405180602001604052806000815250611f5e565b610ea4611fe3565b3360009081526101006020908152604091829020805460ff191660011790558151808301909252600c8083526b504958204c414e444d41524b60a01b92909101918252610ef39160fb91612812565b50604080518082019091526004808252631412561360e21b6020909201918252610f1f9160fc91612812565b508015610f32576000805461ff00191690555b50565b60c9546001600160a01b03163314610f5f5760405162461bcd60e51b81526004016107069061306d565b828114610f7e5760405162461bcd60e51b815260040161070690613165565b60008484808060200260200160405190810160405280939291908181526020018383602002808284376000920182905250604080516020808a0282810182019093528982529697509195919450889350879250829185019084908082843760009201829052509394505050505b8151811015610a29578181815181106110065761100661319c565b602002602001015161103d8483815181106110235761102361319c565b602002602001015160009081526097602052604090205490565b111561108b5760405162461bcd60e51b815260206004820152601a60248201527f4c616e646d61726b3a20414d4f554e545f544f4f5f534d414c4c0000000000006044820152606401610706565b81818151811061109d5761109d61319c565b602002602001015160ff60008584815181106110bb576110bb61319c565b602002602001015181526020019081526020016000208190555080806110e0906131c8565b915050610feb565b60c9546001600160a01b031633146111125760405162461bcd60e51b81526004016107069061306d565b61010355565b60c9546001600160a01b031633146111425760405162461bcd60e51b81526004016107069061306d565b61010180546001600160a01b0319166001600160a01b0392909216919091179055565b600082118015611176575060328211155b6111c25760405162461bcd60e51b815260206004820152601d60248201527f4c616e646d61726b3a20494e56414c49445f4d494e545f414d4f554e540000006044820152606401610706565b60026000527fb0f1df1d730d08dc90b3a0398ffe9349eff7fc9a3154de5d356b01c785e0f0fb5460976020527fd6ca216b3b8b63bcc0099d5c8294d1780d598ac9b3a29b15c3c3e68c85f6e30c5461121b90849061321a565b106112385760405162461bcd60e51b815260040161070690613232565b6001600160a01b0381161561128f5760405162461bcd60e51b815260206004820152601a60248201527f4c616e646d61726b3a20494e56414c49445f43555252454e43590000000000006044820152606401610706565b600082610103546112a091906132b7565b610104549091506001600160a01b038381166101009092041614611358576101015461010454604051632550332960e11b81526001600160a01b0361010090920482166004820152848216602482015260448101849052911690634aa0665290606401602060405180830381600087803b15801561131d57600080fd5b505af1158015611331573d6000803e3d6000fd5b505050506040513d601f19601f8201168201806040525081019061135591906132d6565b90505b6040516323b872dd60e01b8152336004820152306024820152604481018290526001600160a01b038316906323b872dd90606401602060405180830381600087803b1580156113a657600080fd5b505af11580156113ba573d6000803e3d6000fd5b505050506040513d601f19601f820116820180604052508101906113de91906132ef565b61142a5760405162461bcd60e51b815260206004820152601960248201527f4c414e444d41524b3a205452414e534445525f4641494c4544000000000000006044820152606401610706565b6101045460ff161580156114525750610104546001600160a01b038381166101009092041614155b1561155d576101025460405163095ea7b360e01b81526001600160a01b039182166004820152602481018390529083169063095ea7b390604401602060405180830381600087803b1580156114a657600080fd5b505af11580156114ba573d6000803e3d6000fd5b505050506040513d601f19601f820116820180604052508101906114de91906132ef565b506101025461010454604051631ba0488760e21b81526001600160a01b0385811660048301526101009092048216602482015260448101849052306064820152911690636e81221c90608401600060405180830381600087803b15801561154457600080fd5b505af1158015611558573d6000803e3d6000fd5b505050505b610ab133600285611bf2565b606060fc805461079990613032565b610dac33838361204a565b60c9546001600160a01b031633146115ad5760405162461bcd60e51b81526004016107069061306d565b60005b81811015610ab15760008383838181106115cc576115cc61319c565b90506020020160208101906115e1919061299a565b6040516370a0823160e01b81523060048201529091506000906001600160a01b038316906370a082319060240160206040518083038186803b15801561162657600080fd5b505afa15801561163a573d6000803e3d6000fd5b505050506040513d601f19601f8201168201806040525081019061165e91906132d6565b1115611771576040516370a0823160e01b815230600482018190526001600160a01b038316916323b872dd9190339084906370a082319060240160206040518083038186803b1580156116b057600080fd5b505afa1580156116c4573d6000803e3d6000fd5b505050506040513d601f19601f820116820180604052508101906116e891906132d6565b6040516001600160e01b031960e086901b1681526001600160a01b0393841660048201529290911660248301526044820152606401602060405180830381600087803b15801561173757600080fd5b505af115801561174b573d6000803e3d6000fd5b505050506040513d601f19601f8201168201806040525081019061176f91906132ef565b505b5061177d60018261321a565b90506115b0565b336000908152610100602052604090205460ff166117b45760405162461bcd60e51b8152600401610706906131e3565b84831480156117c257508481145b6117de5760405162461bcd60e51b815260040161070690613165565b60008686808060200260200160405190810160405280939291908181526020018383602002808284376000920182905250604080516020808c0282810182019093528b825296975091959194508a935089925082918501908490808284376000920182905250604080516020808b0282810182019093528a82529697509195919450899350889250829185019084908082843760009201829052509394505050505b81518110156119755760ff600084838151811061189f5761189f61319c565b60200260200101518152602001908152602001600020548282815181106118c8576118c861319c565b60200260200101516118e58584815181106110235761102361319c565b6118ef919061321a565b111561190d5760405162461bcd60e51b815260040161070690613232565b6119638482815181106119225761192261319c565b602002602001015184838151811061193c5761193c61319c565b60200260200101518484815181106119565761195661319c565b6020026020010151611bf2565b8061196d816131c8565b915050611880565b50505050505050505050565b60c9546001600160a01b031633146119ab5760405162461bcd60e51b81526004016107069061306d565b61010580546001600160a01b0319166001600160a01b0392909216919091179055565b6001600160a01b0385163314806119ea57506119ea85336105d6565b611a485760405162461bcd60e51b815260206004820152602960248201527f455243313135353a2063616c6c6572206973206e6f74206f776e6572206e6f7260448201526808185c1c1c9bdd995960ba1b6064820152608401610706565b610b468585858585612123565b60c9546001600160a01b03163314611a7f5760405162461bcd60e51b81526004016107069061306d565b6001600160a01b038116611ae45760405162461bcd60e51b815260206004820152602660248201527f4f776e61626c653a206e6577206f776e657220697320746865207a65726f206160448201526564647265737360d01b6064820152608401610706565b610f3281611e89565b606081611b115750506040805180820190915260018152600360fc1b602082015290565b8160005b8115611b3b5780611b25816131c8565b9150611b349050600a83613322565b9150611b15565b6000816001600160401b03811115611b5557611b55612afd565b6040519080825280601f01601f191660200182016040528015611b7f576020820181803683370190505b5090505b8415611bea57611b94600183613336565b9150611ba1600a8661334d565b611bac90603061321a565b60f81b818381518110611bc157611bc161319c565b60200101906001600160f81b031916908160001a905350611be3600a86613322565b9450611b83565b949350505050565b336000908152610100602052604090205460ff16611c225760405162461bcd60e51b8152600401610706906131e3565b611c3d8383836040518060200160405280600081525061224a565b600082815260fe60205260409081902054905183916001600160a01b038616917f9a34b7627ceb6257b349b1d6747c1b32f1b56c63798ca5b9b4a6e40fa05f015e91611c8e91869160ff1690613361565b60405180910390a3505050565b8151835114611cfd5760405162461bcd60e51b815260206004820152602860248201527f455243313135353a2069647320616e6420616d6f756e7473206c656e677468206044820152670dad2e6dac2e8c6d60c31b6064820152608401610706565b6001600160a01b038416611d235760405162461bcd60e51b815260040161070690613375565b33611d3281878787878761234d565b60005b8451811015611e1b576000858281518110611d5257611d5261319c565b602002602001015190506000858381518110611d7057611d7061319c565b60209081029190910181015160008481526065835260408082206001600160a01b038e168352909352919091205490915081811015611dc15760405162461bcd60e51b8152600401610706906133ba565b60008381526065602090815260408083206001600160a01b038e8116855292528083208585039055908b16825281208054849290611e0090849061321a565b9250508190555050505080611e14906131c8565b9050611d35565b50846001600160a01b0316866001600160a01b0316826001600160a01b03167f4a39dc06d4c0dbc64b70af90fd698a233a518aa5d07e595d983b8c0526c8f7fb8787604051611e6b929190613404565b60405180910390a4611e81818787878787612459565b505050505050565b60c980546001600160a01b038381166001600160a01b0319831681179093556040519116919082907f8be0079c531659141344cd1fd0a4f28419497f9722a3daafe3b4186f6b6457e090600090a35050565b600054610100900460ff1680611ef4575060005460ff16155b611f105760405162461bcd60e51b815260040161070690613269565b600054610100900460ff16158015611f32576000805461ffff19166101011790555b611f3a6125c4565b611f426125c4565b611f4a6125c4565b8015610f32576000805461ff001916905550565b600054610100900460ff1680611f77575060005460ff16155b611f935760405162461bcd60e51b815260040161070690613269565b600054610100900460ff16158015611fb5576000805461ffff19166101011790555b611fbd6125c4565b611fc56125c4565b611fce8261262e565b8015610dac576000805461ff00191690555050565b600054610100900460ff1680611ffc575060005460ff16155b6120185760405162461bcd60e51b815260040161070690613269565b600054610100900460ff1615801561203a576000805461ffff19166101011790555b6120426125c4565b611f4a61268e565b816001600160a01b0316836001600160a01b031614156120be5760405162461bcd60e51b815260206004820152602960248201527f455243313135353a2073657474696e6720617070726f76616c20737461747573604482015268103337b91039b2b63360b91b6064820152608401610706565b6001600160a01b03838116600081815260666020908152604080832094871680845294825291829020805460ff191686151590811790915591519182527f17307eab39ab6107e8899845ad3d59bd9653f200f220920489ca2b5937696c319101611c8e565b6001600160a01b0384166121495760405162461bcd60e51b815260040161070690613375565b33612168818787612159886126ee565b612162886126ee565b8761234d565b60008481526065602090815260408083206001600160a01b038a168452909152902054838110156121ab5760405162461bcd60e51b8152600401610706906133ba565b60008581526065602090815260408083206001600160a01b038b81168552925280832087850390559088168252812080548692906121ea90849061321a565b909155505060408051868152602081018690526001600160a01b03808916928a821692918616917fc3d58168c5ae7397731d063d5bbf3d657854427343f4c083240f7aacaa2d0f62910160405180910390a4610a29828888888888612739565b6001600160a01b0384166122aa5760405162461bcd60e51b815260206004820152602160248201527f455243313135353a206d696e7420746f20746865207a65726f206164647265736044820152607360f81b6064820152608401610706565b336122bb81600087612159886126ee565b60008481526065602090815260408083206001600160a01b0389168452909152812080548592906122ed90849061321a565b909155505060408051858152602081018590526001600160a01b0380881692600092918516917fc3d58168c5ae7397731d063d5bbf3d657854427343f4c083240f7aacaa2d0f62910160405180910390a4610b4681600087878787612739565b6001600160a01b0385166123d45760005b83518110156123d2578281815181106123795761237961319c565b6020026020010151609760008684815181106123975761239761319c565b6020026020010151815260200190815260200160002060008282546123bc919061321a565b909155506123cb9050816131c8565b905061235e565b505b6001600160a01b038416611e815760005b8351811015610a29578281815181106124005761240061319c565b60200260200101516097600086848151811061241e5761241e61319c565b6020026020010151815260200190815260200160002060008282546124439190613336565b909155506124529050816131c8565b90506123e5565b6001600160a01b0384163b15611e815760405163bc197c8160e01b81526001600160a01b0385169063bc197c819061249d9089908990889088908890600401613429565b602060405180830381600087803b1580156124b757600080fd5b505af19250505080156124e7575060408051601f3d908101601f191682019092526124e491810190613487565b60015b612594576124f36134a4565b806308c379a0141561252d57506125086134c0565b80612513575061252f565b8060405162461bcd60e51b81526004016107069190612987565b505b60405162461bcd60e51b815260206004820152603460248201527f455243313135353a207472616e7366657220746f206e6f6e20455243313135356044820152732932b1b2b4bb32b91034b6b83632b6b2b73a32b960611b6064820152608401610706565b6001600160e01b0319811663bc197c8160e01b14610a295760405162461bcd60e51b815260040161070690613549565b600054610100900460ff16806125dd575060005460ff16155b6125f95760405162461bcd60e51b815260040161070690613269565b600054610100900460ff16158015611f4a576000805461ffff19166101011790558015610f32576000805461ff001916905550565b600054610100900460ff1680612647575060005460ff16155b6126635760405162461bcd60e51b815260040161070690613269565b600054610100900460ff16158015612685576000805461ffff19166101011790555b611fce82612803565b600054610100900460ff16806126a7575060005460ff16155b6126c35760405162461bcd60e51b815260040161070690613269565b600054610100900460ff161580156126e5576000805461ffff19166101011790555b611f4a33611e89565b604080516001808252818301909252606091600091906020808301908036833701905050905082816000815181106127285761272861319c565b602090810291909101015292915050565b6001600160a01b0384163b15611e815760405163f23a6e6160e01b81526001600160a01b0385169063f23a6e619061277d9089908990889088908890600401613591565b602060405180830381600087803b15801561279757600080fd5b505af19250505080156127c7575060408051601f3d908101601f191682019092526127c491810190613487565b60015b6127d3576124f36134a4565b6001600160e01b0319811663f23a6e6160e01b14610a295760405162461bcd60e51b815260040161070690613549565b8051610dac9060679060208401905b82805461281e90613032565b90600052602060002090601f0160209004810192826128405760008555612886565b82601f1061285957805160ff1916838001178555612886565b82800160010185558215612886579182015b8281111561288657825182559160200191906001019061286b565b50612892929150612896565b5090565b5b808211156128925760008155600101612897565b80356001600160a01b03811681146128c257600080fd5b919050565b600080604083850312156128da57600080fd5b6128e3836128ab565b946020939093013593505050565b6001600160e01b031981168114610f3257600080fd5b60006020828403121561291957600080fd5b8135612924816128f1565b9392505050565b60005b8381101561294657818101518382015260200161292e565b83811115612955576000848401525b50505050565b6000815180845261297381602086016020860161292b565b601f01601f19169290920160200192915050565b602081526000612924602083018461295b565b6000602082840312156129ac57600080fd5b612924826128ab565b6000602082840312156129c757600080fd5b5035919050565b60008083601f8401126129e057600080fd5b5081356001600160401b038111156129f757600080fd5b6020830191508360208260051b8501011115612a1257600080fd5b9250929050565b60008060008060408587031215612a2f57600080fd5b84356001600160401b0380821115612a4657600080fd5b612a52888389016129ce565b90965094506020870135915080821115612a6b57600080fd5b50612a78878288016129ce565b95989497509550505050565b600080600060608486031215612a9957600080fd5b612aa2846128ab565b95602085013595506040909401359392505050565b634e487b7160e01b600052602160045260246000fd5b60058110612aeb57634e487b7160e01b600052602160045260246000fd5b9052565b602081016107348284612acd565b634e487b7160e01b600052604160045260246000fd5b601f8201601f191681016001600160401b0381118282101715612b3857612b38612afd565b6040525050565b60006001600160401b03821115612b5857612b58612afd565b5060051b60200190565b600082601f830112612b7357600080fd5b81356020612b8082612b3f565b604051612b8d8282612b13565b83815260059390931b8501820192828101915086841115612bad57600080fd5b8286015b84811015612bc85780358352918301918301612bb1565b509695505050505050565b60006001600160401b03831115612bec57612bec612afd565b604051612c03601f8501601f191660200182612b13565b809150838152848484011115612c1857600080fd5b83836020830137600060208583010152509392505050565b600082601f830112612c4157600080fd5b61292483833560208501612bd3565b600080600080600060a08688031215612c6857600080fd5b612c71866128ab565b9450612c7f602087016128ab565b935060408601356001600160401b0380821115612c9b57600080fd5b612ca789838a01612b62565b94506060880135915080821115612cbd57600080fd5b612cc989838a01612b62565b93506080880135915080821115612cdf57600080fd5b50612cec88828901612c30565b9150509295509295909350565b8015158114610f3257600080fd5b60008060408385031215612d1a57600080fd5b612d23836128ab565b91506020830135612d3381612cf9565b809150509250929050565b60008060408385031215612d5157600080fd5b82356001600160401b0380821115612d6857600080fd5b818501915085601f830112612d7c57600080fd5b81356020612d8982612b3f565b604051612d968282612b13565b83815260059390931b8501820192828101915089841115612db657600080fd5b948201945b83861015612ddb57612dcc866128ab565b82529482019490820190612dbb565b96505086013592505080821115612df157600080fd5b50612dfe85828601612b62565b9150509250929050565b600081518084526020808501945080840160005b83811015612e3857815187529582019590820190600101612e1c565b509495945050505050565b6020815260006129246020830184612e08565b600060208284031215612e6857600080fd5b81356001600160401b03811115612e7e57600080fd5b8201601f81018413612e8f57600080fd5b611bea84823560208401612bd3565b60008060408385031215612eb157600080fd5b82359150612ec1602084016128ab565b90509250929050565b60008060208385031215612edd57600080fd5b82356001600160401b03811115612ef357600080fd5b612eff858286016129ce565b90969095509350505050565b60008060008060008060608789031215612f2457600080fd5b86356001600160401b0380821115612f3b57600080fd5b612f478a838b016129ce565b90985096506020890135915080821115612f6057600080fd5b612f6c8a838b016129ce565b90965094506040890135915080821115612f8557600080fd5b50612f9289828a016129ce565b979a9699509497509295939492505050565b60008060408385031215612fb757600080fd5b612fc0836128ab565b9150612ec1602084016128ab565b600080600080600060a08688031215612fe657600080fd5b612fef866128ab565b9450612ffd602087016128ab565b9350604086013592506060860135915060808601356001600160401b0381111561302657600080fd5b612cec88828901612c30565b600181811c9082168061304657607f821691505b6020821081141561306757634e487b7160e01b600052602260045260246000fd5b50919050565b6020808252818101527f4f776e61626c653a2063616c6c6572206973206e6f7420746865206f776e6572604082015260600190565b600081516130b481856020860161292b565b9290920192915050565b600080845481600182811c9150808316806130da57607f831692505b60208084108214156130fa57634e487b7160e01b86526022600452602486fd5b81801561310e576001811461311f5761314c565b60ff1986168952848901965061314c565b60008b81526020902060005b868110156131445781548b82015290850190830161312b565b505084890196505b50505050505061315c81856130a2565b95945050505050565b6020808252601b908201527f4c616e646d61726b3a20494e56414c49445f415247554d454e54530000000000604082015260600190565b634e487b7160e01b600052603260045260246000fd5b634e487b7160e01b600052601160045260246000fd5b60006000198214156131dc576131dc6131b2565b5060010190565b60208082526017908201527f4c616e646d61726b3a204e4f4e5f4d4f44455241544f52000000000000000000604082015260600190565b6000821982111561322d5761322d6131b2565b500190565b60208082526018908201527f4c616e646d61726b3a20414d4f554e545f544f4f5f4249470000000000000000604082015260600190565b6020808252602e908201527f496e697469616c697a61626c653a20636f6e747261637420697320616c72656160408201526d191e481a5b9a5d1a585b1a5e995960921b606082015260800190565b60008160001904831182151516156132d1576132d16131b2565b500290565b6000602082840312156132e857600080fd5b5051919050565b60006020828403121561330157600080fd5b815161292481612cf9565b634e487b7160e01b600052601260045260246000fd5b6000826133315761333161330c565b500490565b600082821015613348576133486131b2565b500390565b60008261335c5761335c61330c565b500690565b828152604081016129246020830184612acd565b60208082526025908201527f455243313135353a207472616e7366657220746f20746865207a65726f206164604082015264647265737360d81b606082015260800190565b6020808252602a908201527f455243313135353a20696e73756666696369656e742062616c616e636520666f60408201526939103a3930b739b332b960b11b606082015260800190565b6040815260006134176040830185612e08565b828103602084015261315c8185612e08565b6001600160a01b0386811682528516602082015260a06040820181905260009061345590830186612e08565b82810360608401526134678186612e08565b9050828103608084015261347b818561295b565b98975050505050505050565b60006020828403121561349957600080fd5b8151612924816128f1565b600060033d11156134bd5760046000803e5060005160e01c5b90565b600060443d10156134ce5790565b6040516003193d81016004833e81513d6001600160401b0381602484011181841117156134fd57505050505090565b82850191508151818111156135155750505050505090565b843d870101602082850101111561352f5750505050505090565b61353e60208286010187612b13565b509095945050505050565b60208082526028908201527f455243313135353a204552433131353552656365697665722072656a656374656040820152676420746f6b656e7360c01b606082015260800190565b6001600160a01b03868116825285166020820152604081018490526060810183905260a0608082018190526000906135cb9083018461295b565b97965050505050505056fea2646970667358221220ec75c77a7376105ef1d49bf625d86d5525d94be713a8fc9ac8e647ff310013d164736f6c63430008090033",
  "linkReferences": {},
  "deployedLinkReferences": {}
}